:020000040800F2
:1000000000000220691A0008E9170008EF1700082D
:10001000F5170008FB170008011800080000000091
:1000200000000000000000000000000007180008A9
:1000300015180008000000002318000831180008F7
:10004000B91A0008B91A0008B91A0008B91A000844
:10005000B91A0008B91A0008B91A0008B91A000834
:10006000B91A0008B91A0008B91A0008B91A000824
:10007000B91A00083D180008B91A000851180008FC
:100080006518000879180008B91A0008B91A00089C
:10009000B91A0008B91A0008B91A0008B91A0008F4
:1000A000B91A0008B91A0008B91A0008B91A0008E4
:1000B000B91A0008B91A0008B91A0008B91A0008D4
:1000C000B91A0008B91A0008B91A0008B91A0008C4
:1000D000B91A00088D180008A1180008B91A0008FC
:1000E000B91A0008B91A0008B91A0008B91A0008A4
:1000F000B91A0008B91A0008B91A0008B91A000894
:10010000B91A0008B91A0008B91A0008B91A000883
:10011000B5180008B91A0008B91A0008B91A000879
:10012000B91A0008B91A0008C9180008B91A000855
:10013000B91A00080000000000000000B91A000809
:10014000B91A0008B91A0008B91A0008B91A000843
:10015000B91A0008B91A0008DD180008B91A000811
:10016000B91A0008B91A0008B91A0008B91A000823
:10017000B91A0008B91A00080000000000000000C9
:08018000B91A0008B91A0008C1
:1001900010B5054C237833B9044B13B10448AFF3C1
:1001A00000800123237010BD3402002000000000F5
:1001B000FCB3000808B5034B1BB103490348AFF378
:1001C000008008BD0000000038020020FCB30008D9
:1001D000034613F8012B002AFBD1181A0138704787
:1001E00001F0FF01102A2BDB10F0070F08D010F8E8
:1001F000013B013A8B422DD010F0070F42B3F6D1EC
:10020000F0B441EA012141EA014122F007047FF004
:1002100000070023F0E80256083C85EA010586EA5B
:10022000010685FA47F5A3FA87F586FA47F6A5FA97
:1002300087F68EB9EED1F0BC01F0FF0102F00702A3
:1002400032B110F8013B013A83EA010313B1F8D14E
:100250000020704701387047002D06BF354603382F
:10026000073815F0010F07D1013015F4807F02BF68
:10027000013015F4C03F0130F0BC0138704700BFB9
:1002800081F0004102E000BF83F0004330B54FEA47
:1002900041044FEA430594EA050F08BF90EA020FB4
:1002A0001FBF54EA000C55EA020C7FEA645C7FEA47
:1002B000655C00F0E2804FEA5454D4EB5555B8BF6A
:1002C0006D420CDD2C4480EA020281EA030382EADB
:1002D000000083EA010180EA020281EA0303362D6D
:1002E00088BF30BD11F0004F4FEA01314FF4801C40
:1002F0004CEA113102D0404261EB410113F0004F52
:100300004FEA03334CEA133302D0524263EB430308
:1003100094EA050F00F0A780A4F10104D5F1200EA6
:100320000DDB02FA0EFC22FA05F2801841F1000101
:1003300003FA0EF2801843FA05F359410EE0A5F1D5
:1003400020050EF1200E012A03FA0EFC28BF4CF006
:10035000020C43FA05F3C01851EBE37101F00045BC
:1003600007D54FF0000EDCF1000C7EEB00006EEBC9
:100370000101B1F5801F1BD3B1F5001F0CD3490853
:100380005FEA30004FEA3C0C04F101044FEA4452AA
:1003900012F5800F80F09A80BCF1004F08BF5FEA31
:1003A000500C50F1000041EB045141EA050130BD11
:1003B0005FEA4C0C404141EB0101013C28BFB1F523
:1003C000801FE9D291F0000F04BF01460020B1FA6E
:1003D00081F308BF2033A3F10B03B3F120020CDA41
:1003E0000C3208DD02F1140CC2F10C0201FA0CF01F
:1003F00021FA02F10CE002F11402D8BFC2F1200C84
:1004000001FA02F120FA0CFCDCBF41EA0C01904039
:10041000E41AA2BF01EB0451294330BD6FEA040482
:100420001F3C1CDA0C340EDC04F11404C4F120026D
:1004300020FA04F001FA02F340EA030021FA04F37F
:1004400045EA030130BDC4F10C04C4F1200220FAD6
:1004500002F001FA04F340EA0300294630BD21FA14
:1004600004F0294630BD94F0000F83F4801306BFDA
:1004700081F480110134013D4EE77FEA645C18BFCE
:100480007FEA655C29D094EA050F08BF90EA020F65
:1004900005D054EA000C04BF1946104630BD91EA5D
:1004A000030F1EBF0021002030BD5FEA545C05D160
:1004B0004000494128BF41F0004130BD14F580049F
:1004C0003CBF01F5801130BD01F0004545F0FE4113
:1004D00041F470014FF0000030BD7FEA645C1ABF48
:1004E000194610467FEA655C1CBF0B46024650EA7F
:1004F000013406BF52EA033591EA030F41F40021AB
:1005000030BD00BF90F0000F04BF0021704730B530
:100510004FF4806404F132044FF000054FF0000105
:1005200050E700BF90F0000F04BF0021704730B5C6
:100530004FF4806404F1320410F0004548BF40429B
:100540004FF000013EE700BF42004FEAE2014FEAF0
:1005500031014FEA02701FBF12F07F4393F07F4FCB
:1005600081F06051704732F07F4208BF704793F0CE
:100570007F4F04BF41F40021704730B54FF46074E1
:1005800001F0004521F000411CE700BF50EA0102E4
:1005900008BF704730B54FF000050AE050EA01028D
:1005A00008BF704730B511F0004502D5404261EBFD
:1005B00041014FF4806404F132045FEA915C3FF43E
:1005C000D8AE4FF003025FEADC0C18BF03325FEADB
:1005D000DC0C18BF033202EBDC02C2F1200300FA8C
:1005E00003FC20FA02F001FA03FE40EA0E0021FAB1
:1005F00002F11444BDE600BF70B54FF0FF0C4CF49F
:10060000E06C1CEA11541DBF1CEA135594EA0C0F50
:1006100095EA0C0F00F0DEF82C4481EA030621EA8B
:100620004C5123EA4C5350EA013518BF52EA0335C6
:1006300041F4801143F4801338D0A0FB02CE4FF078
:100640000005E1FB02E506F00042E0FB03E54FF0A8
:100650000006E1FB03569CF0000F18BF4EF0010EA0
:10066000A4F1FF04B6F5007F64F5407404D25FEA9C
:100670004E0E6D4146EB060642EAC62141EA55514F
:100680004FEAC52040EA5E504FEACE2EB4F1FD0C91
:1006900088BFBCF5E06F1ED8BEF1004F08BF5FEA0F
:1006A000500E50F1000041EB045170BD06F00046C1
:1006B00046EA010140EA020081EA0301B4EB5C046E
:1006C000C2BFD4EB0C0541EA045170BD41F4801166
:1006D0004FF0000E013C00F3AB8014F1360FDEBF8B
:1006E000002001F0004170BDC4F10004203C35DA67
:1006F0000C341BDC04F11404C4F1200500FA05F3EA
:1007000020FA04F001FA05F240EA020001F000428A
:1007100021F0004110EBD37021FA04F642EB060100
:100720005EEA430E08BF20EAD37070BDC4F10C042A
:10073000C4F1200500FA04F320FA05F001FA04F2EE
:1007400040EA020001F0004110EBD37041F10001DA
:100750005EEA430E08BF20EAD37070BDC4F12005E5
:1007600000FA05F24EEA020E20FA04F301FA05F24D
:1007700043EA020321FA04F001F0004121FA04F2F5
:1007800020EA020000EBD3705EEA430E08BF20EAC5
:10079000D37070BD94F0000F0FD101F000464000FF
:1007A00041EB010111F4801F08BF013CF7D041EA81
:1007B000060195F0000F18BF704703F00046520085
:1007C00043EB030313F4801F08BF013DF7D043EA56
:1007D0000603704794EA0C0F0CEA135518BF95EA0C
:1007E0000C0F0CD050EA410618BF52EA4306D1D193
:1007F00081EA030101F000414FF0000070BD50EAB2
:10080000410606BF1046194652EA430619D094EA3B
:100810000C0F02D150EA013613D195EA0C0F05D125
:1008200052EA03361CBF104619460AD181EA030179
:1008300001F0004141F0FE4141F470014FF0000031
:1008400070BD41F0FE4141F4780170BD70B54FF0CC
:10085000FF0C4CF4E06C1CEA11541DBF1CEA13554C
:1008600094EA0C0F95EA0C0F00F0A7F8A4EB05042E
:1008700081EA030E52EA03354FEA013100F0888025
:100880004FEA03334FF0805545EA131343EA1263EE
:100890004FEA022245EA111545EA10654FEA0026A3
:1008A0000EF000419D4208BF964244F1FD0404F55C
:1008B000407402D25B084FEA3202B61A65EB0305B8
:1008C0005B084FEA32024FF480104FF4002CB6EB75
:1008D000020E75EB030E22BFB61A754640EA0C00F5
:1008E0005B084FEA3202B6EB020E75EB030E22BF35
:1008F000B61A754640EA5C005B084FEA3202B6EB76
:10090000020E75EB030E22BFB61A754640EA9C0034
:100910005B084FEA3202B6EB020E75EB030E22BF04
:10092000B61A754640EADC0055EA060E18D04FEAC2
:10093000051545EA16754FEA06164FEAC30343EA62
:1009400052734FEAC2025FEA1C1CC0D111F4801F2F
:100950000BD141EA00014FF000004FF0004CB6E728
:1009600011F4801F04BF01430020B4F1FD0C88BFC7
:10097000BCF5E06F3FF6AFAEB5EB030C04BFB6EBD2
:10098000020C5FEA500C50F1000041EB045170BDC5
:100990000EF0004E4EEA113114EB5C04C2BFD4EBF2
:1009A0000C0541EA045170BD41F480114FF0000E76
:1009B000013C90E645EA060E8DE60CEA135594EAF2
:1009C0000C0F08BF95EA0C0F3FF43BAF94EA0C0FF5
:1009D0000AD150EA01347FF434AF95EA0C0F7FF46A
:1009E00025AF104619462CE795EA0C0F06D152EABE
:1009F00003353FF4FDAE1046194622E750EA4106A2
:100A000018BF52EA43067FF4C5AE50EA41047FF4B2
:100A10000DAF52EA43057FF4EBAE12E74FF0FF3C17
:100A200006E000BF4FF0010C02E000BF4FF0010CE8
:100A30004DF804CD4FEA410C7FEA6C5C4FEA430C61
:100A400018BF7FEA6C5C1BD001B050EA410C0CBFB0
:100A500052EA430C91EA030F02BF90EA020F002012
:100A6000704710F1000F91EA030F58BF994208BF79
:100A700090422CBFD8176FEAE37040F00100704736
:100A80004FEA410C7FEA6C5C02D150EA013C07D18D
:100A90004FEA430C7FEA6C5CD6D152EA033CD3D0D8
:100AA0005DF8040B704700BF8446104662468C46D2
:100AB0001946634600E000BF01B5FFF7B7FF002805
:100AC00048BF10F1000F01BD4DF808EDFFF7F4FF2E
:100AD0000CBF012000205DF808FB00BF4DF808EDB9
:100AE000FFF7EAFF34BF012000205DF808FB00BFDC
:100AF0004DF808EDFFF7E0FF94BF012000205DF8FE
:100B000008FB00BF4DF808EDFFF7CEFF94BF0120B2
:100B100000205DF808FB00BF4DF808EDFFF7C4FFAB
:100B200034BF012000205DF808FB00BF4FEA410CF4
:100B30007FEA6C5C02D150EA013C0AD14FEA430CD7
:100B40007FEA6C5C02D152EA033C02D14FF0000014
:100B500070474FF0010070474FEA410212F5001252
:100B600015D211D56FF47873B3EB625212D94FEAF4
:100B7000C12343F0004343EA505311F0004F23FADE
:100B800002F018BF404270474FF00000704750EA33
:100B9000013005D111F0004008BF6FF000407047F0
:100BA0004FF00000704700BF4A0011D212F500124A
:100BB00011D20DD56FF47873B3EB62520ED44FEAB5
:100BC000C12343F0004343EA505323FA02F0704735
:100BD0004FF00000704750EA013002D14FF0FF3073
:100BE00070474FF0000070474FEA4102B2F1E04316
:100BF00024BFB3F5001CDCF1FE5C0DD901F0004C04
:100C00004FEAC0024CEA5070B2F1004F40EB830053
:100C100008BF20F00100704711F0804F21D113F17F
:100C20003872BCBF01F00040704741F480114FEAB8
:100C30005252C2F11802C2F1200C10FA0CF320FA41
:100C400002F018BF40F001004FEAC1234FEAD3235E
:100C500003FA0CFC40EA0C0023FA02F34FEA4303C8
:100C6000CCE77FEA625307D150EA01331EBF4FF051
:100C7000FE4040F44000704701F0004040F0FE406C
:100C800040F40000704700BF53B94AB9002908BFBB
:100C900000281CBF4FF0FF314FF0FF3000F0A4B927
:100CA000ADF1080C6DE904CE00F03CF8DDF804E08D
:100CB000DDE9022304B0704738B500220023044662
:100CC0000D46FFF70BFF28B920462946BDE83840FE
:100CD00000F00AB8204605F1004100F005F8404256
:100CE00061EB410138BD00BFD0B50C4B0022064678
:100CF0000F46FFF781FCFFF757FF0446FFF702FCA2
:100D0000074B0022FFF778FC02460B463046394677
:100D1000FFF7BAFAFFF748FF2146D0BD0000F03DCB
:100D20000000F0412DE9F047089D04468C46002B59
:100D300040F083808A42174647D9B2FA82F242B124
:100D4000C2F1200024FA00F09140974040EA010CE3
:100D500094404FEA1748230CBCFBF8F61FFA87FEB5
:100D600008FB16C143EA014306FB0EF1994209D97B
:100D7000FB1806F1FF3080F01981994240F216818C
:100D8000023E3B445B1AA4B2B3FBF8F008FB1033FD
:100D900044EA034400FB0EFEA64509D93C1900F1C4
:100DA000FF3380F00581A64540F2028102383C44C1
:100DB00040EA0640A4EB0E0400261DB1D4400023F7
:100DC000C5E900433146BDE8F08702B9FFDEB2FA5B
:100DD00082F2002A50D1CB1B4FEA174E1FFA87F838
:100DE0000126B3FBFEFC210C0EFB1C3341EA034140
:100DF00008FB0CF38B4207D979180CF1FF3002D2B3
:100E00008B4200F2E9808446C91AA3B2B1FBFEF01E
:100E10000EFB101143EA014408FB00F8A04507D976
:100E20003C1900F1FF3302D2A04500F2D9801846E8
:100E3000A4EB080440EA0C40BFE78B4209D9002D1F
:100E400000F0B1800026C5E9000130463146BDE81A
:100E5000F087B3FA83F6002E4AD18B4202D3824246
:100E600000F2B880841A61EB030101208C46002D4A
:100E7000A8D0C5E9004CA5E7C2F1200320FA03F68B
:100E8000974001FA02F04FEA174ED9403043030C65
:100E9000B1FBFEF61FFA87F80EFB161143EA014379
:100EA00006FB08F1994204FA02F409D9FB1806F18D
:100EB000FF3C80F08D80994240F28A80023E3B44A4
:100EC0005B1A81B2B3FBFEF00EFB103341EA034123
:100ED00000FB08F38B4207D9791800F1FF3C73D26D
:100EE0008B4271D902383944CB1A40EA064678E77A
:100EF000C6F1200C03FA06F422FA0CF31C4320FA84
:100F00000CF701FA06F34FEA144E21FA0CF11F43D5
:100F10003B0CB1FBFEF91FFA84F80EFB191143EAF2
:100F2000014109FB08FA8A4502FA06F200FA06F3C3
:100F300008D9611809F1FF3048D28A4546D9A9F18C
:100F400002092144A1EB0A01BFB2B1FBFEF00EFB86
:100F5000101147EA014700FB08F8B84507D9E7191F
:100F600000F1FF312ED2B8452CD90238274440EA8F
:100F70000940A7EB0807A0FB02894F45C646494632
:100F80001AD317D05DB1B3EB0E0267EB010707FA76
:100F90000CFCF2404CEA0202F740C5E900270026AB
:100FA0003146BDE8F0872E4628460BE70646E9E6BF
:100FB0001846FDE64345E5D2B8EB020E69EB0401A5
:100FC0000138DFE70846D2E760468DE78146B9E79A
:100FD000664675E730464AE7ACF1020C394413E740
:100FE00002383C4424E700BF704700BF80B584B09E
:100FF00000AFF860B9607A607B689AB20A23B9687A
:10100000034802F07CFD7B6818461037BD4680BD62
:101010007804002080B500AF0C4B1B689B68002152
:10102000184606F053FC00F049FD00F011F800F0FE
:101030004DF900F0F5F800F075F800F0C7F800F091
:101040009BF804F079FC05F06BFBFCE760000020E6
:1010500080B594B000AF07F120033022002118467C
:1010600005F05AFC07F10C0300221A605A609A60DE
:10107000DA601A610023BB60284B1B6C274A43F0DF
:1010800080531364254B1B6C03F08053BB60BB681B
:1010900000237B60224B1B68214A43F4804313608A
:1010A0001F4B1B6803F480437B607B6801233B621A
:1010B0004FF480337B620223BB634FF48003FB63F6
:1010C00004233B64A8237B640223BB640423FB64E6
:1010D00007F12003184601F083FF0346002B01D0DF
:1010E00000F046F90F23FB6002233B6100237B6184
:1010F0004FF4A053BB614FF48053FB6107F10C0325
:101100000521184602F0E4F90346002B01D000F057
:101110002FF900BF5037BD4680BD00BF00380240E8
:101120000070004080B500AF114B124A1A60104B9E
:101130004FF4E1325A600E4B00229A600C4B0022B1
:10114000DA600B4B00221A61094B0C225A61084BE2
:1011500000229A61064B0022DA61054802F082FC07
:101160000346002B01D000F003F900BF80BD00BF93
:10117000BC040020004C004080B500AF114B124A67
:101180001A60104B4FF4E1325A600E4B00229A6005
:101190000C4B0022DA600B4B00221A61094B0C2227
:1011A0005A61084B00229A61064B0022DA61054819
:1011B00002F058FC0346002B01D000F0D9F800BF24
:1011C00080BD00BF780400200010014080B500AF52
:1011D000114B124A1A60104B4FF4E1325A600E4B19
:1011E00000229A600C4B0022DA600B4B00221A613D
:1011F000094B0C225A61084B00229A61064B0022CF
:10120000DA61054802F02EFC0346002B01D000F005
:10121000AFF800BF80BD00BF0005002000440040C3
:1012200080B582B000AF00237B60274B1B6B264A42
:1012300043F400131363244B1B6B03F400137B6014
:101240007B6800233B60204B1B6B1F4A43F48003E9
:1012500013631D4B1B6B03F480033B603B68002250
:1012600000210D2000F0CFFD0D2000F0E8FD002250
:1012700000210F2000F0C7FD0F2000F0E0FD00224C
:101280000021102000F0BFFD102000F0D8FD00224A
:101290000021112000F0B7FD112000F0D0FD002248
:1012A00000213A2000F0AFFD3A2000F0C8FD0022F6
:1012B0000021462000F0A7FD462000F0C0FD00BF41
:1012C0000837BD4680BD00BF0038024080B588B0F9
:1012D00000AF07F10C0300221A605A609A60DA60CE
:1012E0001A610023BB60204B1B6B1F4A43F00403B1
:1012F00013631D4B1B6B03F00403BB60BB6800232F
:101300007B60194B1B6B184A43F080031363164B29
:101310001B6B03F080037B607B6800233B60124BF8
:101320001B6B114A43F0010313630F4B1B6B03F05C
:1013300001033B603B6801224FF460410B4801F020
:101340001BFE4FF46043FB6001233B6100237B6184
:101350000023BB6107F10C031946044801F070FC3F
:1013600000BF2037BD4680BD003802400008024063
:1013700080B500AF72B600BF034806F08FFA4FF495
:101380007A7000F041FCF7E718B4000880B483B02D
:1013900000AF00237B60104B5B6C0F4A43F480432B
:1013A00053640D4B5B6C03F480437B607B680023CC
:1013B0003B60094B1B6C084A43F080531364064B97
:1013C0001B6C03F080533B603B6800BF0C37BD468D
:1013D0005DF8047B704700BF0038024080B58EB0D6
:1013E00000AF786007F1240300221A605A609A6007
:1013F000DA601A617B681B68984A934240F09580D6
:1014000000233B62964B1B6C954A43F40023136404
:10141000934B1B6C03F400233B623B6A0023FB618C
:101420008F4B1B6B8E4A43F0040313638C4B1B6B77
:1014300003F00403FB61FB694FF440637B6202230A
:10144000BB620023FB6203233B6308237B6307F13A
:1014500024031946834801F0F3FB834B834A1A6047
:10146000814B4FF000625A607F4B40229A607E4B66
:101470000022DA607C4B4FF480621A617A4B0022C2
:101480005A61794B00229A61774B0022DA61764BE0
:101490004FF400321A62744B00225A62724800F014
:1014A000E9FC0346002B01D0FFF762FF7B686E4A20
:1014B0005A636D4A7B6893636D4B6E4A1A606C4B3E
:1014C0004FF000625A606A4B00229A60684B00221B
:1014D000DA60674B4FF480621A61654B00225A61F3
:1014E000634B00229A61624B4FF48072DA61604B69
:1014F0004FF400321A625E4B00225A625C4800F0E0
:10150000B9FC0346002B01D0FFF732FF7B68584A35
:101510009A63574A7B68936300220021342000F0CD
:1015200072FC342000F08BFC4BE17B681B68524A54
:10153000934240F0AD800023BB61494B5B6C484A4D
:1015400043F010035364464B5B6C03F01003BB6124
:10155000BB6900237B61424B1B6B414A43F0010393
:1015600013633F4B1B6B03F001037B617B694FF4FB
:10157000C0637B620223BB620023FB6203233B63E5
:1015800007237B6307F1240319463C4801F058FB0D
:101590003B4B3C4A1A603A4B4FF000625A60384B62
:1015A00040229A60364B0022DA60354B4FF480625D
:1015B0001A61334B00225A61314B00229A61304B41
:1015C0000022DA612E4B00221A622D4B00225A6251
:1015D0002B4800F04FFC0346002B01D0FFF7C8FE5C
:1015E0007B68274A5A63264A7B689363264B274ABF
:1015F0001A60254B4FF000625A60234B00229A601C
:10160000214B0022DA60204B4FF480621A611E4B9E
:1016100000225A611C4B00229A611B4B4FF48072CE
:10162000DA61194B00221A62174B00225A621648DF
:1016300000F020FC0346002B01D0FFF799FE7B68E9
:10164000114A9A63104A7B68936300220021252087
:1016500000F0D9FB252000F0F2FBB2E0004C004086
:10166000003802400008024044050020706002403B
:10167000980200204060024000100140000002403B
:1016800058030020B8640240B803002040640240C0
:101690007B681B684D4A934240F0938000233B6176
:1016A0004B4B1B6C4A4A43F400331364484B1B6C8E
:1016B00003F400333B613B690023FB60444B1B6B2D
:1016C000434A43F001031363414B1B6B03F00103D7
:1016D000FB60FB680C237B620223BB620023FB627E
:1016E00003233B6307237B6307F12403194639482F
:1016F00001F0A6FA384B394A1A60374B4FF00062B6
:101700005A60354B40229A60334B0022DA60324BEC
:101710004FF480621A61304B00225A612E4B002236
:101720009A612D4B0022DA612B4B4FF400321A6282
:10173000294B00225A62284800F09CFB0346002BEC
:1017400001D0FFF715FE7B68234A5A63224A7B6863
:101750009363234B234A1A60214B4FF000625A6077
:101760001F4B00229A601E4B0022DA601C4B4FF484
:1017700080621A611A4B00225A61194B00229A6149
:10178000174B4FF48072DA61154B4FF400321A6236
:10179000134B00225A62124800F06CFB0346002BE8
:1017A00001D0FFF7E5FD7B680D4A9A630C4A7B6820
:1017B000936300220021262000F025FB262000F064
:1017C0003EFB00BF3837BD4680BD00BF004400402F
:1017D000003802400000024018040020A0600240CF
:1017E000F80200208860024080B400AFFEE780B4B9
:1017F00000AFFEE780B400AFFEE780B400AFFEE7C5
:1018000080B400AFFEE780B400AF00BFBD465DF816
:10181000047B704780B400AF00BFBD465DF8047B19
:10182000704780B400AF00BFBD465DF8047B7047D1
:1018300080B500AF00F0C8F900BF80BD80B500AF33
:10184000024800F0AFFC00BF80BD00BF980200203E
:1018500080B500AF024800F0A5FC00BF80BD00BF0E
:101860004405002080B500AF024800F09BFC00BF9B
:1018700080BD00BFF802002080B500AF024800F034
:1018800091FC00BF80BD00BF1804002080B500AFF0
:10189000024802F075FA00BF80BD00BF7804002046
:1018A00080B500AF024802F06BFA00BF80BD00BFF8
:1018B0000005002080B500AF024802F061FA00BFC9
:1018C00080BD00BFBC04002080B500AF024800F01E
:1018D00069FC00BF80BD00BFB803002080B500AF29
:1018E000024800F05FFC00BF80BD00BF580300202D
:1018F00080B400AF01231846BD465DF8047B7047F5
:1019000080B582B000AF7860396004F0C5FF03464F
:1019100016221A604FF0FF3318460837BD4680BDC7
:1019200080B582B000AF78604FF0FF317868FFF784
:10193000E7FFFEE780B586B000AFF860B9607A6077
:1019400000237B610AE0AFF300800146BB685A1CAC
:10195000BA60CAB21A707B6901337B617A697B68AD
:101960009A42F0DB7B6818461837BD4680BD80B4CC
:1019700083B000AF78604FF0FF3318460C37BD4698
:101980005DF8047B704780B483B000AF7860396045
:101990003B684FF400525A60002318460C37BD468E
:1019A0005DF8047B704780B483B000AF786001239A
:1019B00018460C37BD465DF8047B704780B485B08F
:1019C00000AFF860B9607A60002318461437BD464E
:1019D0005DF8047B7047000080B586B000AF78608A
:1019E000144A154BD31A7B617B693B61134B1B680F
:1019F000002B02D1114B124A1A60104B1A687B68F7
:101A000013443A699A4207D204F046FF03460C2277
:101A10001A604FF0FF3309E0084B1B68FB60074B6F
:101A20001A687B681344054A1360FB681846183728
:101A3000BD4680BD000002200004000050020020CE
:101A4000E01D002080B400AF064BD3F88830054A73
:101A500043F47003C2F8883000BFBD465DF8047BD4
:101A6000704700BF00ED00E0DFF834D00D480E49AC
:101A70000E4A002302E0D458C4500433C4188C42E8
:101A8000F9D30B4A0B4C002301E013600432A2424D
:101A9000FBD3FFF7D7FF04F005FFFFF7BBFA704752
:101AA0000000022000000020340200204CC6000884
:101AB00034020020E01D0020FEE7000080B500AFEA
:101AC0000E4B1B680D4A43F4007313600B4B1B68ED
:101AD0000A4A43F480631360084B1B68074A43F4C7
:101AE00080731360032000F083F90F2000F03CF8AE
:101AF000FFF74CFC0023184680BD00BF003C0240AD
:101B000080B500AF134B4FF0FF321A62114B002229
:101B10001A62104B4FF0FF325A620E4B00225A628B
:101B20000C4B4FF0FF321A610A4B00221A61094B2D
:101B30004FF0FF325A61074B00225A61054B4FF0BC
:101B4000FF329A61034B00229A6100F005F80023EE
:101B5000184680BD0038024080B400AF00BFBD46CB
:101B60005DF8047B7047000080B582B000AF7860FC
:101B7000124B1A68124B1B7819464FF47A73B3FB59
:101B8000F1F3B2FBF3F3184600F067F90346002BBC
:101B900001D001230EE07B680F2B0AD80022796860
:101BA0004FF0FF3000F02FF9064A7B6813600023E6
:101BB00000E0012318460837BD4680BD0000002024
:101BC000080000200400002080B400AF064B1B7802
:101BD0001A46064B1B681344044A136000BFBD46F7
:101BE0005DF8047B704700BF08000020A4050020BA
:101BF00080B400AF034B1B681846BD465DF8047BFC
:101C0000704700BFA405002080B584B000AF7860A5
:101C1000FFF7EEFFB8607B68FB60FB68B3F1FF3F46
:101C200005D00A4B1B781A46FB681344FB6000BFC3
:101C3000FFF7DEFF0246BB68D31AFA689A42F7D86C
:101C400000BF00BF1037BD4680BD00BF08000020A8
:101C500080B485B000AF78607B6803F00703FB6059
:101C60000C4BDB68BB60BA684FF6FF031340BB60E8
:101C7000FB681A02BB68134343F0BF6343F40033AD
:101C8000BB60044ABB68D36000BF1437BD465DF833
:101C9000047B704700ED00E080B400AF044BDB68CC
:101CA0001B0A03F007031846BD465DF8047B704726
:101CB00000ED00E080B483B000AF0346FB7197F9FC
:101CC0000730002B0BDBFB7903F01F02074997F964
:101CD00007305B09012000FA02F241F8232000BF1F
:101CE0000C37BD465DF8047B704700BF00E100E0A3
:101CF00080B483B000AF03463960FB7197F90730B9
:101D0000002B0ADB3B68DAB20C4997F90730120165
:101D1000D2B20B4483F800230AE03B68DAB20849E8
:101D2000FB7903F00F03043B1201D2B20B441A7685
:101D300000BF0C37BD465DF8047B704700E100E052
:101D400000ED00E080B489B000AFF860B9607A605F
:101D5000FB6803F00703FB61FB69C3F10703042B76
:101D600028BF0423BB61FB690433062B02D9FB693E
:101D7000033B00E000237B614FF0FF32BB6902FAB6
:101D800003F3DA43BB681A407B699A404FF0FF3196
:101D90007B6901FA03F3D9437B680B401343184670
:101DA0002437BD465DF8047B7047000080B582B0E3
:101DB00000AF78607B68013BB3F1807F01D30123E2
:101DC0000FE00A4A7B68013B53600F214FF0FF3060
:101DD000FFF78EFF054B00229A60044B07221A6022
:101DE000002318460837BD4680BD00BF10E000E064
:101DF00080B582B000AF78607868FFF729FF00BF38
:101E00000837BD4680BD80B586B000AF0346B960D7
:101E10007A60FB7300237B61FFF73EFF78617A688D
:101E2000B9687869FFF78EFF024697F90F301146BF
:101E30001846FFF75DFF00BF1837BD4680BD80B56F
:101E400082B000AF0346FB7197F907301846FFF7E1
:101E500031FF00BF0837BD4680BD80B582B000AFFE
:101E600078607868FFF7A2FF034618460837BD463A
:101E700080BD000080B586B000AF786000237B6134
:101E8000FFF7B6FE38617B68002B01D1012399E092
:101E90007B68022283F835207B68002283F8342097
:101EA0007B681B681A687B681B6822F001021A6055
:101EB0000FE0FFF79DFE02463B69D31A052B08D9B8
:101EC0007B6820225A657B68032283F83520032330
:101ED00078E07B681B681B6803F00103002BE8D1E6
:101EE0007B681B681B687B617A69384B13407B6198
:101EF0007B685A687B689B681A437B68DB681A4377
:101F00007B681B691A437B685B691A437B689B6922
:101F10001A437B68DB691A437B681B6A13437A693F
:101F200013437B617B685B6A042B07D17B68DA6AA9
:101F30007B681B6B13437A6913437B617B681B6867
:101F40007A691A607B681B685B697B617B6923F037
:101F500007037B617B685B6A7A6913437B617B68FB
:101F60005B6A042B17D17B689B6A7A6913437B6198
:101F70007B68DB6A002B0ED0786800F001FB03461B
:101F8000002B08D07B6840225A657B68012283F8C9
:101F90003520012316E07B681B687A695A617868EE
:101FA00000F0B8FA0346FB607B68DB6D3F229A4085
:101FB000FB689A607B6800225A657B68012283F87F
:101FC0003520002318461837BD4680BD3F8010F0ED
:101FD00080B586B000AFF860B9607A603B600023DE
:101FE000FB75FB689B6D3B61FB6893F83430012BFC
:101FF00001D1022340E0FB68012283F83420FB6812
:1020000093F83530DBB2012B2FD1FB68022283F825
:102010003520FB6800225A653B687A68B968F86821
:1020200000F04AFAFB68DB6D3F229A403B699A60F8
:10203000FB681B681A68FB681B6842F016021A608E
:10204000FB681B6C002B07D0FB681B681A68FB68D9
:102050001B6842F008021A60FB681B681A68FB687C
:102060001B6842F001021A6005E0FB68002283F859
:1020700034200223FB75FB7D18461837BD4680BD12
:1020800080B584B000AF78607B689B6DFB60FFF724
:10209000AFFDB8607B6893F83530DBB2022B08D017
:1020A0007B6880225A657B68002283F834200123F4
:1020B00052E07B681B681A687B681B6822F0160276
:1020C0001A607B681B685A697B681B6822F0800273
:1020D0005A617B681B6C002B03D17B689B6C002BC7
:1020E00007D07B681B681A687B681B6822F00802AF
:1020F0001A607B681B681A687B681B6822F0010203
:102100001A6013E0FFF774FD0246BB68D31A052B73
:102110000CD97B6820225A657B68032283F835201E
:102120007B68002283F83420032315E07B681B685A
:102130001B6803F00103002BE4D17B68DB6D3F22B9
:102140009A40FB689A607B68012283F835207B689F
:10215000002283F83420002318461037BD4680BD86
:1021600080B483B000AF78607B6893F83530DBB221
:10217000022B04D07B6880225A6501230CE07B6827
:10218000052283F835207B681B681A687B681B680A
:1021900022F001021A60002318460C37BD465DF894
:1021A000047B704780B586B000AF78600023BB60C9
:1021B000924B1B68924AA2FB03239B0A7B617B68BC
:1021C0009B6D3B613B691B68FB607B68DB6D082294
:1021D0009A40FB681340002B1AD07B681B681B6871
:1021E00003F00403002B13D07B681B681A687B681C
:1021F0001B6822F004021A607B68DB6D08229A409B
:102200003B699A607B685B6D43F001027B685A65AD
:102210007B68DB6D01229A40FB681340002B12D0D3
:102220007B681B685B6903F08003002B0BD07B6825
:10223000DB6D01229A403B699A607B685B6D43F0DD
:1022400002027B685A657B68DB6D04229A40FB685A
:102250001340002B12D07B681B681B6803F002033D
:10226000002B0BD07B68DB6D04229A403B699A609F
:102270007B685B6D43F004027B685A657B68DB6DAD
:1022800010229A40FB681340002B43D07B681B68E8
:102290001B6803F00803002B3CD07B68DB6D102229
:1022A0009A403B699A607B681B681B6803F4802333
:1022B000002B18D07B681B681B6803F40023002BDD
:1022C00008D17B681B6C002B24D07B681B6C786862
:1022D00098471FE07B689B6C002B1BD07B689B6C36
:1022E0007868984716E07B681B681B6803F4807366
:1022F000002B07D17B681B681A687B681B6822F07B
:1023000008021A607B681B6C002B03D07B681B6C77
:10231000786898477B68DB6D20229A40FB68134001
:10232000002B00F08E807B681B681B6803F0100395
:10233000002B00F086807B68DB6D20229A403B6991
:102340009A607B6893F83530DBB2052B36D17B6819
:102350001B681A687B681B6822F016021A607B688B
:102360001B685A697B681B6822F080025A617B688F
:102370001B6C002B03D17B689B6C002B07D07B6808
:102380001B681A687B681B6822F008021A607B6869
:10239000DB6D3F229A403B699A607B68012283F89B
:1023A00035207B68002283F834207B681B6D002B6E
:1023B0007DD07B681B6D7868984778E07B681B68E8
:1023C0001B6803F48023002B1CD07B681B681B68F0
:1023D00003F40023002B08D17B685B6C002B30D00A
:1023E0007B685B6C786898472BE07B68DB6B002B25
:1023F00027D07B68DB6B7868984722E000000020DC
:10240000B5814E1B7B681B681B6803F48073002B2F
:102410000FD17B681B681A687B681B6822F010026A
:102420001A607B68012283F835207B68002283F8DC
:1024300034207B68DB6B002B03D07B68DB6B786818
:1024400098477B685B6D002B32D07B685B6D03F037
:102450000103002B22D07B68052283F835207B689E
:102460001B681A687B681B6822F001021A60BB684F
:102470000133BB607A699A4207D37B681B681B688B
:1024800003F00103002BF2D100E000BF7B680122C2
:1024900083F835207B68002283F834207B68DB6C6E
:1024A000002B05D07B68DB6C7868984700E000BFA4
:1024B0001837BD4680BD00BF80B485B000AFF8605E
:1024C000B9607A603B60FB681B681A68FB681B6830
:1024D00022F480221A60FB681B683A685A60FB6825
:1024E0009B68402B08D1FB681B687A689A60FB6880
:1024F0001B68BA68DA6007E0FB681B68BA689A6014
:10250000FB681B687A68DA6000BF1437BD465DF867
:10251000047B704780B485B000AF78607B681B682F
:10252000DBB2103B144AA2FB03231B09FB60134AD6
:10253000FB6813441B781A467B68DA65FB68032B3B
:1025400009D97B681B6823F47F7323F003031A1DEA
:102550007B689A6507E07B681B6823F47F7323F030
:1025600003037A6893657B689B6D18461437BD46F4
:102570005DF8047B704700BFABAAAAAA80C100081F
:1025800080B485B000AF78600023FB737B689B6AE2
:10259000BB607B689B69002B1FD1BB68032B56D89F
:1025A00001A252F823F000BFB9250008CB2500088E
:1025B000B92500084F2600087B68DB6A03F08073AA
:1025C000002B46D00123FB7343E07B68DB6AB3F149
:1025D000C07F40D10123FB733DE07B689B69B3F56D
:1025E000005F21D1BB68032B37D801A252F823F03A
:1025F0000126000807260008012600081926000801
:102600000123FB7330E07B68DB6A03F08073002BEF
:1026100025D00123FB7322E07B68DB6AB3F1C07F26
:102620001FD10123FB731CE0BB68022B03D9BB68DD
:10263000032B03D018E00123FB7315E07B68DB6AF2
:1026400003F08073002B0ED00123FB730BE000BF5F
:102650000AE000BF08E000BF06E000BF04E000BFE2
:1026600002E000BF00E000BFFB7B18461437BD4608
:102670005DF8047B704700BF80B586B000AFF8609E
:10268000B960C7E900230123FB75234B1B7E012B97
:1026900001D102233BE0204B01221A764CF250304C
:1026A00000F07CF80346FB75FB7D002B2BD1FB680B
:1026B000002B05D13B781946B86800F027F916E0E1
:1026C000FB68012B05D13B881946B86800F0FAF881
:1026D0000DE0FB68022B05D13B681946B86800F095
:1026E000CFF804E0D7E90023B86800F097F84CF27F
:1026F000503000F053F80346FB75084B1B69074A3E
:1027000023F001031361044B00221A76FB7D184667
:102710001837BD4680BD00BFA8050020003C024020
:1027200080B483B000AF0023FB710B4B1B69002BFF
:102730000BDA094B094A5A60074B094A5A60064BA3
:102740001B69002B01DA0123FB71FB7918460C375A
:10275000BD465DF8047B7047003C0240230167459D
:10276000AB89EFCD80B400AF054B1B69044A43F041
:102770000043136100231846BD465DF8047B704793
:10278000003C024080B400AF034BDB691846BD46F5
:102790005DF8047B704700BFA805002080B584B0B9
:1027A00000AF78600023FB601A4B0022DA61FFF76C
:1027B0001FFAF86010E07B68B3F1FF3F0CD07B6834
:1027C000002B07D0FFF714FA0246FB68D31A7A6889
:1027D0009A4201D2032319E00F4BDB6803F48033E4
:1027E000002BE8D10C4BDB6803F00103002B02D077
:1027F000094B0122DA60084BDB6803F0F203002B7F
:1028000003D000F0A5F8012300E00023184610379C
:10281000BD4680BDA8050020003C024080B485B0C4
:1028200000AFF860C7E90023144B1B69134A23F477
:1028300040731361114B1B69104A43F440731361D9
:102840000E4B1B690D4A43F001031361FB683A68A4
:102850001A60BFF36F8F00BFD7E900014FF000028D
:102860004FF000030A000023F968043113460B609F
:1028700000BF1437BD465DF8047B7047003C024042
:1028800080B483B000AF786039600D4B1B690C4A8F
:1028900023F4407313610A4B1B69094A43F4007324
:1028A0001361074B1B69064A43F0010313617B6800
:1028B0003A681A6000BF0C37BD465DF8047B70476C
:1028C000003C024080B483B000AF78600B467B8050
:1028D0000D4B1B690C4A23F4407313610A4B1B69AF
:1028E000094A43F480731361074B1B69064A43F09E
:1028F000010313617B687A881A8000BF0C37BD46DC
:102900005DF8047B704700BF003C024080B483B098
:1029100000AF78600B46FB700C4B1B690B4A23F42D
:1029200040731361094B094A1B691361074B1B690B
:10293000064A43F0010313617B68FA781A7000BFFE
:102940000C37BD465DF8047B704700BF003C024079
:1029500080B400AF274BDB6803F01003002B08D0D6
:10296000254BDB6943F01003234AD361214B10222E
:10297000DA60204BDB6803F02003002B08D01E4BED
:10298000DB6943F008031C4AD3611A4B2022DA604A
:10299000184BDB6803F04003002B08D0164BDB69B3
:1029A00043F00403144AD361124B4022DA60114B06
:1029B000DB6803F08003002B08D00F4BDB6943F08A
:1029C00002030D4AD3610B4B8022DA60094BDB68AE
:1029D00003F00203002B08D0074BDB6943F0200310
:1029E000054AD361034B0222DA6000BFBD465DF8A1
:1029F000047B7047003C0240A805002080B584B0ED
:102A000000AF786039600123FB730023BB60314B5A
:102A10001B7E012B01D1022358E02E4B01221A7696
:102A20004CF25030FFF7BAFE0346FB73FB7B002BE2
:102A300048D13B684FF0FF321A607B681B68012B5E
:102A400015D17B681B69DAB27B685B681946104652
:102A500000F044F84CF25030FFF7A0FE0346FB7341
:102A60001D4B1B691C4A23F00403136128E07B689B
:102A70009B68BB601CE07B681B69DBB21946B868C9
:102A800000F050F84CF25030FFF788FE0346FB731D
:102A9000114B1B69104A23F0FA031361FB7B002BD7
:102AA00003D03B68BA681A600AE0BB680133BB60B8
:102AB0007B68DA687B689B681344BA689A42DAD309
:102AC00000F078F8034B00221A76FB7B184610378B
:102AD000BD4680BDA8050020003C024080B483B004
:102AE00000AF03463960FB710D4B1B690C4A23F4A0
:102AF000407313610A4B1B69094A43F004031361D5
:102B0000074B1A69FB791B021343054A43F48033D0
:102B1000136100BF0C37BD465DF8047B704700BFF2
:102B2000003C024080B485B000AF78600B46FB707B
:102B30000023FB60FB78002B02D10023FB6010E038
:102B4000FB78012B03D14FF48073FB6009E0FB7825
:102B5000022B03D14FF40073FB6002E04FF440738B
:102B6000FB60134B1B69124A23F440731361104B33
:102B70001A690F49FB6813430B610D4B1B690C4A23
:102B800023F0F80313610A4B1A697B68DB001343D7
:102B9000074A43F002031361054B1B69044A43F4DF
:102BA0008033136100BF1437BD465DF8047B704766
:102BB000003C024080B400AF204B1B6803F400735C
:102BC000002B17D01D4B1B681C4A23F400731360A5
:102BD0001A4B1B68194A43F400631360174B1B68B8
:102BE000164A23F400631360144B1B68134A43F422
:102BF00000731360114B1B6803F48063002B17D024
:102C00000E4B1B680D4A23F4806313600B4B1B684B
:102C10000A4A43F480531360084B1B68074A23F4A5
:102C200080531360054B1B68044A43F480631360B0
:102C300000BFBD465DF8047B704700BF003C02400A
:102C400080B489B000AF7860396000237B610023D5
:102C50003B610023BB610023FB616BE10122FB6947
:102C600002FA03F37B613B681B687A6913403B619E
:102C70003A697B699A4240F05A813B685B6803F08D
:102C80000303012B05D03B685B6803F00303022BB1
:102C900030D17B689B68BB61FB695B00032202FA51
:102CA00003F3DB43BA691340BB613B68DA68FB6935
:102CB0005B0002FA03F3BA691343BB617B68BA692C
:102CC0009A607B685B68BB610122FB6902FA03F3CF
:102CD000DB43BA691340BB613B685B681B0903F0C7
:102CE0000102FB6902FA03F3BA691343BB617B6813
:102CF000BA695A603B685B6803F00303032B17D083
:102D00007B68DB68BB61FB695B00032202FA03F3AB
:102D1000DB43BA691340BB613B689A68FB695B009F
:102D200002FA03F3BA691343BB617B68BA69DA60DC
:102D30003B685B6803F00303022B23D1FB69DA08CD
:102D40007B68083253F82230BB61FB6903F007034C
:102D50009B000F2202FA03F3DB43BA691340BB6105
:102D60003B681A69FB6903F007039B0002FA03F34F
:102D7000BA691343BB61FB69DA087B680832B96939
:102D800043F822107B681B68BB61FB695B00032270
:102D900002FA03F3DB43BA691340BB613B685B682B
:102DA00003F00302FB695B0002FA03F3BA69134301
:102DB000BB617B68BA691A603B685B6803F44033A7
:102DC000002B00F0B4800023FB60604B5B6C5F4A1B
:102DD00043F4804353645D4B5B6C03F48043FB60BE
:102DE000FB685B4AFB699B08023352F82330BB61E6
:102DF000FB6903F003039B000F2202FA03F3DB439A
:102E0000BA691340BB617B68524A93422BD07B68FE
:102E1000514A934225D07B68504A93421FD07B6829
:102E20004F4A934219D07B684E4A934213D07B6835
:102E30004D4A93420DD07B684C4A934207D07B6841
:102E40004B4A934201D107230EE008230CE00623EE
:102E50000AE0052308E0042306E0032304E002233C
:102E600002E0012300E00023FA6902F0030292006D
:102E70009340BA691343BB613549FB699B08023330
:102E8000BA6941F823203B4B1B68BB613B69DB43BC
:102E9000BA691340BB613B685B6803F48033002B65
:102EA00003D0BA693B691343BB61324ABB69136003
:102EB000304B5B68BB613B69DB43BA691340BB6164
:102EC0003B685B6803F40033002B03D0BA693B69AD
:102ED0001343BB61274ABB695360264B9B68BB61A8
:102EE0003B69DB43BA691340BB613B685B6803F431
:102EF0008013002B03D0BA693B691343BB611D4AA1
:102F0000BB6993601B4BDB68BB613B69DB43BA6900
:102F10001340BB613B685B6803F40013002B03D0D4
:102F2000BA693B691343BB61124ABB69D360FB6951
:102F30000133FB61FB690F2B7FF690AE00BF00BF32
:102F40002437BD465DF8047B704700BF003802405F
:102F50000038014000000240000402400008024026
:102F6000000C024000100240001402400018024011
:102F7000001C0240003C014080B483B000AF786088
:102F80000B467B8013467B707B78002B03D07A88BE
:102F90007B689A6103E07B881A047B689A6100BFB2
:102FA0000C37BD465DF8047B704780B485B000AF38
:102FB00078600B467B807B685B69FB607A88FB6886
:102FC00013401A04FB68D9437B880B401A437B6883
:102FD0009A6100BF1437BD465DF8047B704700005E
:102FE00080B586B000AF78607B68002B01D10123EB
:102FF00064E27B681B6803F00103002B75D0A34BD0
:103000009B6803F00C03042B0CD0A04B9B6803F0CF
:103010000C03082B12D19D4B5B6803F48003B3F5BE
:10302000800F0BD1994B1B6803F40033002B5BD04E
:103030007B685B68002B57D101233FE27B685B68AC
:10304000B3F5803F06D1914B1B68904A43F480331F
:1030500013601DE07B685B68B3F5A02F0CD18B4B30
:103060001B688A4A43F480231360884B1B68874A95
:1030700043F4803313600BE0844B1B68834A23F4D2
:1030800080331360814B1B68804A23F480231360D4
:103090007B685B68002B13D0FEF7AAFD386108E05F
:1030A000FEF7A6FD02463B69D31A642B01D9032320
:1030B00004E2764B1B6803F40033002BF0D014E0DD
:1030C000FEF796FD386108E0FEF792FD02463B6987
:1030D000D31A642B01D90323F0E16C4B1B6803F472
:1030E0000033002BF0D100E000BF7B681B6803F0C9
:1030F0000203002B63D0654B9B6803F00C03002B8D
:103100000BD0624B9B6803F00C03082B1CD15F4B68
:103110005B6803F48003002B16D15C4B1B6803F043
:103120000203002B05D07B68DB68012B01D0012353
:10313000C4E1564B1B6823F0F8027B681B69DB0077
:10314000524913430B603AE07B68DB68002B20D0C8
:103150004F4B01221A60FEF74BFD386108E0FEF785
:1031600047FD02463B69D31A022B01D90323A5E18F
:10317000464B1B6803F00203002BF0D0434B1B6847
:1031800023F0F8027B681B69DB00404913430B60A6
:1031900015E03F4B00221A60FEF72AFD386108E077
:1031A000FEF726FD02463B69D31A022B01D9032301
:1031B00084E1364B1B6803F00203002BF0D17B68DF
:1031C0001B6803F00803002B30D07B685B69002B81
:1031D00016D0304B01221A60FEF70AFD386108E074
:1031E000FEF706FD02463B69D31A022B01D90323E1
:1031F00064E1264B5B6F03F00203002BF0D015E077
:10320000244B00221A60FEF7F3FC386108E0FEF759
:10321000EFFC02463B69D31A022B01D903234DE18F
:103220001A4B5B6F03F00203002BF0D17B681B6825
:1032300003F00403002B00F0A0800023FB75134B68
:103240001B6C03F08053002B0FD10023BB600F4B8E
:103250001B6C0E4A43F0805313640C4B1B6C03F041
:103260008053BB60BB680123FB750B4B1B6803F4E9
:103270008073002B21D1084B1B68074A43F48073ED
:103280001360FEF7B5FC386111E000BF0038024062
:1032900000004742800E474200700040FEF7A8FC45
:1032A00002463B69D31A022B01D9032306E1854B61
:1032B0001B6803F48073002BF0D07B689B68012BA4
:1032C00006D1814B1B6F804A43F0010313671CE05A
:1032D0007B689B68052B0CD17B4B1B6F7A4A43F0B4
:1032E00004031367784B1B6F774A43F0010313679E
:1032F0000BE0754B1B6F744A23F001031367724B8D
:103300001B6F714A23F0040313677B689B68002BD3
:1033100015D0FEF76DFC38610AE0FEF769FC024645
:103320003B69D31A41F28832934201D90323C5E0A5
:10333000654B1B6F03F00203002BEED014E0FEF789
:1033400057FC38610AE0FEF753FC02463B69D31A8A
:1033500041F28832934201D90323AFE05A4B1B6FED
:1033600003F00203002BEED1FB7D012B05D1564B60
:103370001B6C554A23F0805313647B689B69002BB8
:1033800000F09B80504B9B6803F00C03082B5CD033
:103390007B689B69022B41D14C4B00221A60FEF7DF
:1033A00027FC386108E0FEF723FC02463B69D31A8C
:1033B000022B01D9032381E0434B1B6803F0007308
:1033C000002BF0D17B68DA697B681B6A1A437B6843
:1033D0005B6A9B011A437B689B6A5B08013B1B0489
:1033E0001A437B68DB6A1B06374913434B60374B34
:1033F00001221A60FEF7FCFB386108E0FEF7F8FBDB
:1034000002463B69D31A022B01D9032356E02E4B07
:103410001B6803F00073002BF0D04EE02B4B002212
:103420001A60FEF7E5FB386108E0FEF7E1FB0246B3
:103430003B69D31A022B01D903233FE0224B1B68BF
:1034400003F00073002BF0D137E07B689B69012B00
:1034500001D1012332E01C4B5B68FB607B689B69F8
:10346000012B28D0FB6803F480027B68DB699A4259
:1034700021D1FB6803F03F027B681B6A9A421AD194
:10348000FA6847F6C07313407A68526A9201934211
:1034900011D1FB6803F440327B689B6A5B08013BF7
:1034A0001B049A4207D1FB6803F070627B68DB6AF9
:1034B0001B069A4201D0012300E00023184618376A
:1034C000BD4680BD007000400038024060004742A9
:1034D00080B584B000AF786039607B68002B01D183
:1034E0000123CCE0684B1B6803F007033A689A425B
:1034F0000CD9654B3A68D2B21A70634B1B6803F063
:1035000007033A689A4201D00123B8E07B681B6840
:1035100003F00203002B20D07B681B6803F0040338
:10352000002B05D0594B9B68584A43F4E0539360F5
:103530007B681B6803F00803002B05D0534B9B6886
:10354000524A43F460439360504B9B6823F0F0026F
:103550007B689B684D4913438B607B681B6803F055
:103560000103002B44D07B685B68012B07D1474BDC
:103570001B6803F40033002B19D101237FE07B6823
:103580005B68022B03D07B685B68032B07D13F4B42
:103590001B6803F00073002B09D101236FE03B4B44
:1035A0001B6803F00203002B01D1012367E0374BB6
:1035B0009B6823F003027B685B68344913438B608C
:1035C000FEF716FBF8600AE0FEF712FB0246FB6806
:1035D000D31A41F28832934201D903234FE02B4B97
:1035E0009B6803F00C027B685B689B009A42EBD1FE
:1035F000254B1B6803F007033A689A420CD2224B12
:103600003A68D2B21A70204B1B6803F007033A687D
:103610009A4201D0012332E07B681B6803F0040367
:10362000002B08D0194B9B6823F4E0527B68DB68C1
:10363000164913438B607B681B6803F00803002B5B
:1036400009D0124B9B6823F460427B681B69DB0046
:103650000E4913438B6000F021F802460B4B9B6828
:103660001B0903F00F030A49CB5C22FA03F3094A52
:103670001360094B1B681846FEF776FA00231846BC
:103680001037BD4680BD00BF003C024000380240FC
:1036900068C1000800000020040000202DE9B043AC
:1036A00084B000AF00237B600023FB6000233B60FD
:1036B0000023BB60674B9B6803F00C03082B0DD005
:1036C000082B00F2BD80002B02D0042B03D0B7E002
:1036D000614BBB60B7E0614BBB60B4E05D4B5B68C6
:1036E00003F03F037B605B4B5B6803F48003002BBC
:1036F0004DD0584B5B689B091A464FF0000340F2CF
:10370000FF104FF0000102EA000803EA01094046F9
:1037100049464FF000024FF000034B0143EAD063EB
:10372000420110461946B0EB080061EB09014FF069
:1037300000024FF000038B0143EA90638201121AEA
:1037400063EB01034FF000004FF00001D90041EAA4
:103750005271D00002460B4612EB080243EB0903FC
:103760004FF000004FF00001590241EAD2515002DF
:1037700002460B46104619467B681A464FF0000376
:10378000FDF782FA02460B461346FB604AE0314BD6
:103790005B689B091A464FF0000340F2FF104FF0A0
:1037A000000102EA000403EA0105204629464FF021
:1037B00000024FF000034B0143EAD0634201104680
:1037C0001946001B61EB05014FF000024FF00003AA
:1037D0008B0143EA90638201121A63EB01034FF0FD
:1037E00000004FF00001D90041EA5271D0000246BA
:1037F0000B46121945EB03034FF000004FF0000198
:10380000990241EA9251900202460B46104619462F
:103810007B681A464FF00003FDF736FA02460B4666
:103820001346FB600B4B5B681B0C03F00303013377
:103830005B003B60FA683B68B2FBF3F3BB6002E0FD
:10384000054BBB6000BFBB6818461037BD46BDE8DE
:10385000B08300BF003802400024F40000127A0058
:1038600080B400AF034B1B681846BD465DF8047B6F
:10387000704700BF0000002080B500AFFFF7F0FFE9
:103880000246054B9B689B0A03F007030349CB5C88
:1038900022FA03F3184680BD0038024078C10008C0
:1038A00080B500AFFFF7DCFF0246054B9B685B0B62
:1038B00003F007030349CB5C22FA03F3184680BDEB
:1038C0000038024078C1000880B582B000AFFEF732
:1038D0008FF978605D4B1B685C4A43F0010313600D
:1038E00008E0FEF785F902467B68D31A022B01D95E
:1038F0000323A7E0554B1B6803F00203002BF0D015
:10390000524B1B68514A43F080031360FEF770F975
:1039100078604E4B00229A600AE0FEF769F9024691
:103920007B68D31A41F28832934201D9032389E09C
:10393000464B9B6803F00C03002BEED1FEF758F9C1
:103940007860424B1B68414A23F45023136008E01F
:10395000FEF74EF902467B68D31A642B01D9032384
:1039600070E03A4B1B6803F40033002BF0D1FEF7F4
:103970003FF97860354B1B68344A23F0807313603D
:1039800008E0FEF735F902467B68D31A022B01D90D
:10399000032357E02D4B1B6803F00073002BF0D17D
:1039A000FEF726F97860294B1B68284A23F08063CC
:1039B000136008E0FEF71CF902467B68D31A022B5D
:1039C00001D903233EE0214B1B6803F00063002B69
:1039D000F0D11E4B1E4A5A601C4B1E4AC3F884206D
:1039E0001A4BDB68194A23F4F853D360174BDB6892
:1039F000164A23F40053D360144BDB68134A43F494
:103A00001F03D360114BDB68104A43F40013D360EB
:103A10000E4B5B6F0D4A23F0010353670B4B5B6F3B
:103A20000A4A43F0807353670B4B0C4A1A600C4BE5
:103A30001B681846FEF798F80346002B01D00123B7
:103A400000E0002318460837BD4680BD003802401C
:103A50001030000400300020000000200024F4009A
:103A60000400002080B582B000AF78607B68002B36
:103A700001D101233FE07B6893F83D30DBB2002B9E
:103A800006D17B68002283F83C207868FDF7A6FC0D
:103A90007B68242283F83D207B681B68DA687B689A
:103AA0001B6822F40052DA60786801F03FF87B6806
:103AB0001B681A697B681B6822F490421A617B6854
:103AC0001B685A697B681B6822F02A025A617B686E
:103AD0001B68DA687B681B6842F40052DA607B6816
:103AE00000221A647B68202283F83D207B68202214
:103AF00083F83E20002318460837BD4680BD80B5B8
:103B00008AB002AFF860B9603B601346FB800023C7
:103B10007B61FB6893F83D30DBB2202B7CD1BB6826
:103B2000002B02D0FB88002B01D1012375E0FB683C
:103B300093F83C30012B01D102236EE0FB68012297
:103B400083F83C20FB6800221A64FB68212283F87A
:103B50003D20FEF74DF87861FB68FA889A84FB688F
:103B6000FA88DA84FB689B68B3F5805F08D1FB684C
:103B70001B69002B04D10023FB61BB68BB6103E020
:103B8000BB68FB610023BB61FB68002283F83C201B
:103B90002AE03B6800937B6900228021F86800F0EE
:103BA000FAFC0346002B01D0032336E0FB69002B0F
:103BB0000BD1BB691B881A46FB681B68C2F308025D
:103BC0005A60BB690233BB6107E0FB691A78FB6886
:103BD0001B685A60FB690133FB61FB68DB8C9BB29D
:103BE000013B9AB2FB68DA84FB68DB8C9BB2002B4A
:103BF000CFD13B6800937B6900224021F86800F038
:103C0000CAFC0346002B01D0032306E0FB682022F8
:103C100083F83D20002300E0022318462037BD46EC
:103C200080BD000080B58CB000AFF860B96013466D
:103C3000FB80FB6893F83D30DBB2202B65D1BB687D
:103C4000002B02D0FB88002B01D101235EE0FB6832
:103C500093F83C30012B01D1022357E0FB6801228D
:103C600083F83C20BA68FB681A62FB68FA889A8479
:103C7000FB68FA88DA84FB6800221A64FB68212258
:103C800083F83D20FB685B6B224ADA63FB685B6B61
:103C9000214A1A64FB685B6B204ADA64FB685B6B41
:103CA00000221A6507F10803FB62FB68586BFB6A88
:103CB0001968FB681B6804331A46FB88FEF788F90D
:103CC000FB681B686FF040021A60FB68002283F8F3
:103CD0003C20FB681B681433BB61BB6953E8003FA1
:103CE0007B617B6943F08003BB62FB681B68143314
:103CF000BA6A7A623B62396A7A6A41E80023FB61F8
:103D0000FB69002BE5D1002300E002231846303781
:103D1000BD4680BDF14200088B4300080345000802
:103D200080B584B000AFF860B9601346FB80FB68D3
:103D300093F83E30DBB2202B1DD1BB68002B02D0A4
:103D4000FB88002B01D1012316E0FB6893F83C307F
:103D5000012B01D102230FE0FB68012283F83C20F4
:103D6000FB6800221A63FB881A46B968F86800F0FD
:103D700081FC034600E0022318461037BD4680BD93
:103D800080B5BAB000AF78607B681B681B68C7F865
:103D9000E4307B681B68DB68C7F8E0307B681B6831
:103DA0005B69C7F8DC300023C7F8D8300023C7F8B8
:103DB000D430D7F8E43003F00F03C7F8D830D7F881
:103DC000D830002B0FD1D7F8E43003F02003002BBC
:103DD00009D0D7F8E03003F02003002B03D0786837
:103DE00000F0E9FD56E2D7F8D830002B00F0DE8075
:103DF000D7F8DC3003F00103002B06D1D7F8E03010
:103E000003F49073002B00F0D180D7F8E43003F076
:103E10000103002B0BD0D7F8E03003F48073002BA4
:103E200005D07B681B6C43F001027B681A64D7F8ED
:103E3000E43003F00403002B0BD0D7F8DC3003F0A0
:103E40000103002B05D07B681B6C43F002027B68EA
:103E50001A64D7F8E43003F00203002B0BD0D7F834
:103E6000DC3003F00103002B05D07B681B6C43F0B2
:103E700004027B681A64D7F8E43003F00803002BCF
:103E800011D0D7F8E03003F02003002B05D1D7F88C
:103E9000DC3003F00103002B05D07B681B6C43F082
:103EA00008027B681A647B681B6C002B00F0ED81B4
:103EB000D7F8E43003F02003002B08D0D7F8E03027
:103EC00003F02003002B02D0786800F074FD7B68BB
:103ED0001B685B6903F04003402B0CBF01230023E8
:103EE000DBB2C7F8D4307B681B6C03F00803002BEF
:103EF00003D1D7F8D430002B4FD0786800F07CFC89
:103F00007B681B685B6903F04003402B41D17B68F1
:103F10001B681433C7F89C30D7F89C3053E8003F37
:103F2000C7F89830D7F8983023F04003C7F8D0305E
:103F30007B681B681433D7F8D020C7F8A820C7F8CF
:103F4000A430D7F8A410D7F8A82041E80023C7F878
:103F5000A030D7F8A030002BD9D17B689B6B002B09
:103F600013D07B689B6B7D4A1A657B689B6B1846F8
:103F7000FEF7F6F80346002B16D07B689B6B1B6D93
:103F80007A68926B104698470EE0786800F09AF9CC
:103F90000AE0786800F096F906E0786800F092F997
:103FA0007B6800221A6470E100BF6EE17B681B6BC6
:103FB000012B40F04A81D7F8E43003F01003002BC6
:103FC00000F04381D7F8E03003F01003002B00F03D
:103FD0003C810023BB607B681B681B68BB607B68FF
:103FE0001B685B68BB60BB687B681B685B6903F030
:103FF0004003402B40F0B4807B689B6B1B685B6880
:10400000A7F8BE30B7F8BE30002B00F040817B68C7
:104010009B8DB7F8BE209A4280F039817B68B7F853
:10402000BE20DA857B689B6BDB69B3F5807F00F08F
:1040300088807B681B680C33C7F88830D7F88830D5
:1040400053E8003FC7F88430D7F8843023F48073F6
:10405000C7F8B8307B681B680C33D7F8B820C7F8AE
:104060009420C7F89030D7F89010D7F8942041E802
:104070000023C7F88C30D7F88C30002BD9D17B685F
:104080001B6814337B677B6F53E8003F3B673B6FD4
:1040900023F00103C7F8B4307B681B681433D7F8EA
:1040A000B420C7F88020FB67F96FD7F8802041E87B
:1040B0000023BB67BB6F002BE1D17B681B68143307
:1040C0003B663B6E53E8003FFB65FB6D23F040030E
:1040D000C7F8B0307B681B681433D7F8B020FA6695
:1040E000BB66B96EFA6E41E800237B667B6E002BDF
:1040F000E3D17B68202283F83E207B6800221A638C
:104100007B681B680C33FB64FB6C53E8003FBB64AB
:10411000BB6C23F01003C7F8AC307B681B680C3312
:10412000D7F8AC20BA657B65796DBA6D41E800239C
:104130003B653B6D002BE3D17B689B6B1846FDF71D
:104140009FFF7B689A8D7B68DB8D9BB2D31A9BB2F5
:104150001946786800F0C0F899E000BFBF48000831
:104160007B689A8D7B68DB8D9BB2D31AA7F8CE3023
:104170007B68DB8D9BB2002B00F08B80B7F8CE30D4
:10418000002B00F086807B681B680C33BB63BB6B25
:1041900053E8003F7B637B6B23F49073C7F8C83010
:1041A0007B681B680C33D7F8C8207A643B64396C91
:1041B0007A6C41E80023FB63FB6B002BE3D17B6847
:1041C0001B6814337B627B6A53E8003F3B623B6AA7
:1041D00023F00103C7F8C4307B681B681433D7F899
:1041E000C4203A63FB62F96A3A6B41E80023BB6280
:1041F000BB6A002BE3D17B68202283F83E207B68DA
:1042000000221A637B681B680C333B613B6953E8EF
:10421000003FFB60FB6823F01003C7F8C0307B68E9
:104220001B680C33D7F8C020FA61BB61B969FA6921
:1042300041E800237B617B69002BE3D1B7F8CE30E6
:104240001946786800F048F823E0D7F8E43003F026
:104250008003002B09D0D7F8E03003F08003002B57
:1042600003D0786800F03FFB14E0D7F8E43003F0A7
:104270004003002B0ED0D7F8E03003F04003002BB2
:1042800008D0786800F07FFB04E000BF02E000BFC8
:1042900000E000BFE837BD4680BD00BF80B483B0FA
:1042A00000AF786000BF0C37BD465DF8047B7047F7
:1042B00080B483B000AF786000BF0C37BD465DF8B6
:1042C000047B704780B483B000AF786000BF0C37C8
:1042D000BD465DF8047B704780B483B000AF786062
:1042E0000B467B8000BF0C37BD465DF8047B7047F2
:1042F00080B590B000AF78607B689B6BFB637B6898
:104300001B681B6803F48073002B37D1FB6B002202
:10431000DA84FB6B1B6814337B627B6A53E8003FD3
:104320003B623B6A23F08003BB63FB6B1B68143367
:10433000BA6B3A63FB62F96A3A6B41E80023BB62ED
:10434000BB6A002BE5D1FB6B1B680C333B613B69FF
:1043500053E8003FFB60FB6843F040037B63FB6B6B
:104360001B680C337A6BFA61BB61B969FA6941E881
:1043700000237B617B69002BE5D102E0F86B02F042
:104380003DFA00BF4037BD4680BD80B584B000AF68
:1043900078607B689B6BFB60F868FFF77FFF00BF6E
:1043A0001037BD4680BD80B59CB000AF78607B689B
:1043B0009B6BFB667B681B681B6803F48073002B98
:1043C00072D1FB6E0022DA85FB6E1B680C33FB6436
:1043D000FB6C53E8003FBB64BB6C23F48073BB668B
:1043E000FB6E1B680C33BA6EBA657B65796DBA6D6E
:1043F00041E800233B653B6D002BE5D1FB6E1B685C
:104400001433BB63BB6B53E8003F7B637B6B23F0D0
:1044100001037B66FB6E1B6814337A6E7A643B641F
:10442000396C7A6C41E80023FB63FB6B002BE5D110
:10443000FB6E1B6814337B627B6A53E8003F3B6270
:104440003B6A23F040033B66FB6E1B6814333A6EF5
:104450003A63FB62F96A3A6B41E80023BB62BB6ACC
:10446000002BE5D1FB6E202283F83E20FB6E1B6BF8
:10447000012B19D1FB6E1B680C333B613B6953E880
:10448000003FFB60FB6823F01003FB65FB6E1B68BD
:104490000C33FA6DFA61BB61B969FA6941E800232E
:1044A0007B617B69002BE5D1FB6E1B6B012B06D179
:1044B000FB6E9B8D1946F86EFFF70EFF02E0F86E5B
:1044C00002F0B4F900BF7037BD4680BD80B584B03E
:1044D00000AF78607B689B6BFB60FB681B6B012BFC
:1044E00008D1FB689B8D5B089BB21946F868FFF703
:1044F000F3FE02E0F868FFF7DBFE00BF1037BD46B1
:1045000080BD80B584B000AF78600023FB607B681D
:104510009B6BBB60BB681B685B6903F08003802BEF
:104520000CBF01230023DBB2FB60BB6893F83D3076
:10453000DBB2212B08D1FB68002B05D0BB68002221
:10454000DA84B86800F030F9BB681B685B6903F077
:104550004003402B0CBF01230023DBB2FB60BB6890
:1045600093F83E30DBB2222B08D1FB68002B05D03C
:10457000BB680022DA85B86800F03EF9BB681B6CA6
:1045800043F01002BB681A64B868FFF79BFE00BFD7
:104590001037BD4680BD80B590B000AFF860B960FF
:1045A0003B601346FB7150E0BB6CB3F1FF3F4CD056
:1045B000BB6C002B07D0FDF71BFB02463B68D31AF0
:1045C000BA6C9A4241D2FB681B680C33BB62BB6A6F
:1045D00053E8003F7B627B6A23F4D073FB63FB6884
:1045E0001B680C33FA6B7A633B63396B7A6B41E877
:1045F0000023FB62FB6A002BE5D1FB681B681433C8
:104600007B617B6953E8003F3B613B6923F0010319
:10461000BB63FB681B681433BA6B3A62FB61F969D0
:104620003A6A41E80023BB61BB69002BE5D1FB6816
:10463000202283F83D20FB68202283F83E20FB687F
:10464000002283F83C2003230FE0FB681B681A68F4
:10465000BB681340BA689A420CBF01230023DBB247
:104660001A46FB799A429FD0002318464037BD4630
:1046700080BD000080B598B000AFF860B960134607
:10468000FB80BA68FB689A62FB68FA889A85FB68C7
:1046900000221A64FB68222283F83E20FB689B6B91
:1046A0003E4ADA63FB689B6B3D4A1A64FB689B6B6E
:1046B0003C4ADA64FB689B6B00221A6507F1080329
:1046C000FB65FB68986BFB681B6804331946FB6D40
:1046D0001A68FB88FDF77CFC00233B61FB681B68C4
:1046E0001B683B61FB681B685B683B613B69FB685F
:1046F000002283F83C20FB681B680C333B643B6C56
:1047000053E8003FFB63FB6B43F48073BB65FB68BE
:104710001B680C33BA6DFA64BB64B96CFA6C41E87F
:1047200000237B647B6C002BE5D1FB681B68143392
:10473000FB62FB6A53E8003FBB62BB6A43F00103C4
:104740007B65FB681B6814337A6DBA637B63796B96
:10475000BA6B41E800233B633B6B002BE5D1FB6860
:104760001B681433BB61BB6953E8003F7B617B6905
:1047700043F040033B65FB681B6814333A6D7A6273
:104780003B62396A7A6A41E80023FB61FB69002BCE
:10479000E5D1002318466037BD4680BDA743000819
:1047A000CD4400080345000880B489B000AF7860AC
:1047B0007B681B680C33FB60FB6853E8003FBB6001
:1047C000BB6823F0C003FB617B681B680C33FA698C
:1047D000BA617B617969BA6941E800233B613B6951
:1047E000002BE5D17B68202283F83D2000BF2437D1
:1047F000BD465DF8047B704780B495B000AF78602B
:104800007B681B680C337B637B6B53E8003F3B6327
:104810003B6B23F49073FB647B681B680C33FA6C6E
:104820003A64FB63F96B3A6C41E80023BB63BB6BF2
:10483000002BE5D17B681B6814333B623B6A53E86D
:10484000003FFB61FB6923F00103BB647B681B68CD
:104850001433BA6CFA62BB62B96AFA6A41E800239F
:104860007B627B6A002BE5D17B681B6B012B19D126
:104870007B681B680C33FB60FB6853E8003FBB6040
:10488000BB6823F010037B647B681B680C337A6C75
:10489000BA617B617969BA6941E800233B613B6990
:1048A000002BE5D17B68202283F83E207B68002224
:1048B0001A6300BF5437BD465DF8047B704780B56E
:1048C00084B000AF78607B689B6BFB60FB68002264
:1048D000DA85FB680022DA84F868FFF7F3FC00BF92
:1048E0001037BD4680BD80B485B000AF78607B686E
:1048F00093F83D30DBB2212B3ED17B689B68B3F54A
:10490000805F14D17B681B69002B10D17B681B6A08
:10491000FB60FB681B881A467B681B68C2F30802B1
:104920005A607B681B6A9A1C7B681A6208E07B6885
:104930001B6A591C7A6811621A787B681B685A6076
:104940007B68DB8C9BB2013B9BB27A681946D184B1
:10495000002B0FD17B681B68DA687B681B6822F02C
:104960008002DA607B681B68DA687B681B6842F04B
:104970004002DA60002300E0022318461437BD46E7
:104980005DF8047B704780B582B000AF78607B68CB
:104990001B68DA687B681B6822F04002DA607B687B
:1049A000202283F83D20786801F028FF0023184674
:1049B0000837BD4680BD80B58CB000AF78607B689D
:1049C00093F83E30DBB2222B40F0AB807B689B68D3
:1049D000B3F5805F17D17B681B69002B13D10023CF
:1049E000FB627B689B6ABB627B681B685B689BB2EF
:1049F000C3F308039AB2BB6A1A807B689B6A9A1C4D
:104A00007B689A6226E07B689B6AFB620023BB623C
:104A10007B689B68B3F5805F07D07B689B68002B41
:104A20000AD17B681B69002B06D17B681B685B6819
:104A3000DAB2FB6A1A7008E07B681B685B68DBB25D
:104A400003F07F03DAB2FB6A1A707B689B6A5A1C18
:104A50007B689A627B68DB8D9BB2013B9BB27A6874
:104A60001946D185002B5AD17B681B68DA687B68B0
:104A70001B6822F02002DA607B681B68DA687B68BA
:104A80001B6822F48072DA607B681B685A697B6855
:104A90001B6822F001025A617B68202283F83E20C5
:104AA0007B681B6B012B35D17B6800221A637B6806
:104AB0001B680C337B617B6953E8003F3B613B69BA
:104AC00023F010037B627B681B680C337A6A3A62BE
:104AD000FB61F9693A6A41E80023BB61BB69002BBD
:104AE000E5D17B681B681B6803F01003102B0AD10B
:104AF0000023FB607B681B681B68FB607B681B688E
:104B00005B68FB60FB687B689B8D19467868FFF7E4
:104B1000E3FB02E0786801F089FE002302E0002355
:104B200000E0022318463037BD4680BD2DE9F04F26
:104B30009FB000AFF866FB6E1B681B6923F4405002
:104B4000FB6ED968FB6E1A6840EA01031361FB6EC5
:104B50009A68FB6E1B691A43FB6E5B691A43FB6E16
:104B6000DB6913433B67FB6E1B68DB6823F416416C
:104B700021F00C01FB6E1A683B6F0B43D360FB6E98
:104B80001B685B6923F44070FB6E9969FB6E1A68C1
:104B900040EA01035361FB6E1A68C54B9A4204D088
:104BA000FB6E1A68C34B9A4203D1FEF779FE786711
:104BB00002E0FEF761FE7867FB6EDB69B3F5004F3C
:104BC00040F0B6807B6F1C464FF0000522462B4616
:104BD000911839645B417B64D7E91023121945EBC6
:104BE00003034FF000004FF00001D90041EA527179
:104BF000D00002460B46111939666B417B66FB6E8D
:104C00005B681A464FF000039118B9635B41FB6380
:104C1000D7E90E23D7E91801FCF736F802460B4610
:104C2000A54BA3FB02235B091E017B6F1C464FF0C3
:104C3000000522462B46911839635B417B63D7E917
:104C40000C23121945EB03034FF000004FF0000155
:104C5000D90041EA5271D00002460B461119B965DC
:104C60006B41FB65FB6E5B681A464FF000039118C1
:104C7000B9625B41FB62D7E90A23D7E91601FCF769
:104C800003F802460B468C4BA3FB02135B0964211D
:104C900001FB03F3D31ADB003233874AA2FB032361
:104CA0005B095B0003F4F8731E447B6F18464FF0FA
:104CB000000102460B4694183C625B417B62D7E9D7
:104CC0000823121841EB03034FF000044FF00005D6
:104CD000DD0045EA5275D40022462B4614183C6587
:104CE0004B417B65FB6E5B681A464FF000039118E1
:104CF000B9615B41FB61D7E90623D7E91401FBF7F2
:104D0000C3FF02460B466C4BA3FB02135B096421F5
:104D100001FB03F3D31ADB003233674AA2FB032300
:104D20005B0903F00702FB6E1B6832449A60B9E02E
:104D30007B6F1C464FF0000522462B4691183961C7
:104D40005B417B61D7E90423121945EB03034FF064
:104D500000004FF00001D90041EA5271D000024634
:104D60000B4612EB040843EB0509FB6E5B68184623
:104D70004FF000014FF000024FF000038B0043EAB8
:104D80009073820040464946FBF77EFF02460B4681
:104D9000494BA3FB02235B091E017B6F18464FF0B2
:104DA000000102460B469418BC605B41FB60D7E9EA
:104DB0000223121841EB03034FF000044FF00005EB
:104DC000DD0045EA5275D40022462B461418BC6417
:104DD0004B41FB64FB6E5B6818464FF000014FF0DF
:104DE00000024FF000038B0043EA90738200D7E982
:104DF0001201FBF749FF02460B462F4BA3FB0213A0
:104E00005B09642101FB03F3D31A1B0132332A4AE5
:104E1000A2FB03235B0903F0F0031E447B6F1846DB
:104E20004FF0000102460B4694183C605B417B60EA
:104E3000D7E90023121841EB03034FF000044FF0B1
:104E40000005DD0045EA5275D40022462B4612EBE0
:104E5000000A43EB010BFB6E5B6818464FF0000144
:104E60004FF000024FF000038B0043EA9073820082
:104E700050465946FBF708FF02460B460E4BA3FB74
:104E800002135B09642101FB03F3D31A1B013233C4
:104E9000094AA2FB03235B0903F00F02FB6E1B68A8
:104EA00032449A6000BF7C37BD46BDE8F08F00BF3A
:104EB00000100140001401401F85EB5180B483B005
:104EC00000AF78607B6800221A807B6800225A80DD
:104ED0007B6800229A8000BF0C37BD465DF8047BDA
:104EE0007047000080B483B000AF78600B46FB7061
:104EF0007B689B88B3F5877F01D300231FE07B6825
:104F00005B881A467B681344FA789A717B685B88E1
:104F100001330E4A82FB03121A441112DA178A1A5D
:104F20004FF4877101FB02F29A1A92B27B685A80A1
:104F30007B689B8801339AB27B689A80012318466C
:104F40000C37BD465DF8047B704700BF49D6B9F207
:104F500080B483B000AF786039607B689B88002B99
:104F600001D1002320E07B681B881A467B6813442C
:104F70009A793B681A707B681B8801330D4A82FB63
:104F800003121A441112DA178A1A4FF4877101FBBF
:104F900002F29A1A92B27B681A807B689B88013B66
:104FA0009AB27B689A80012318460C37BD465DF89B
:104FB000047B704749D6B9F280B582B000AF0223B6
:104FC000FB710A4802F06AFC00F0B6F90346FB7177
:104FD000FB79022B03D0064802F060FC02E0054892
:104FE00002F05CFC00BF0837BD4680BD30B400084D
:104FF00060B40008A0B4000880B485B000AF786049
:105000000023FB607B68444A934206D87B68B3F177
:10501000006F02D30023FB6077E07B683F4A934236
:1050200006D87B683E4A934202D30123FB606CE0C2
:105030007B683C4A934206D87B683B4A934202D342
:105040000223FB6061E07B68384A934206D27B68AA
:10505000374A934202D30323FB6056E07B68354A0C
:10506000934206D27B68314A934202D90423FB6003
:105070004BE07B68304A934206D27B682D4A9342CC
:1050800002D90523FB6040E07B682C4A934206D29C
:105090007B68294A934202D90623FB6035E07B688E
:1050A000274A934206D27B68244A934202D90723B7
:1050B000FB602AE07B68234A934206D27B68204A41
:1050C000934202D90823FB601FE07B681E4A93428B
:1050D00006D27B681B4A934202D90923FB6014E085
:1050E0007B681A4A934206D87B68174A934202D9D2
:1050F0000A23FB6009E07B68154A934205D87B6868
:10510000144A934201D90B23FB60FB6818461437FD
:10511000BD465DF8047B7047FE3F0008FE7F000837
:1051200000400008FEBF000800800008FFFF0008E4
:1051300000C00008FFFF0108FFFF0308FFFF05088C
:10514000FFFF0708FFFF0908FFFF0B08FEFF0D0820
:10515000FEFF0F08FFFF0D0880B485B000AFF860B8
:10516000B9601346FB80FB681A78BB681A70FB684D
:105170000133FB60BB680133BB60FB885A1EFA80B9
:10518000002BF0D100BF00BF1437BD465DF8047B93
:105190007047000080B586B000AF78603960FDF7D9
:1051A000BFFA7868FFF728FF78617A683B68134494
:1051B0003B613869FFF720FFF860144B00221A604A
:1051C000124B02221A61114A7B699360FA687B696B
:1051D000D31A01330D4AD3607B683A6919460C48EB
:1051E00002F0D6FA07F1080319460848FDF706FC55
:1051F0000346002B03D0FDF7C5FA034602E0FDF796
:10520000B1FA002318461837BD4680BD540200206D
:1052100048B5000880B586B000AFF860B9601346A5
:10522000FB8000237B61FDF77BFA1DE07B69BA6898
:1052300013441B78DAB24FF00003F9680020FDF741
:105240001BFA0346002B0BD14FF480410C48FDF7AD
:10525000ACFEFB680133FB607B6901337B6103E0DB
:10526000FDF790FA034606E0FB887A699A42DDDB97
:10527000FDF778FA002318461837BD4680BD00BFF9
:105280000008024080B582B000AF254B7B60254B03
:105290003B604FF400317868FFF77CFF0346002B3A
:1052A00004D0214802F0FAFA002334E0FDF738FA7E
:1052B0001E4A4FF0000379680220FDF7DDF903462E
:1052C000002B04D01A4802F0E9FA002323E0FDF78E
:1052D00049FA4FF400313868FFF75CFF0346002BB2
:1052E00004D0114802F0DAFA002314E0FDF718FAAE
:1052F0004FF0EE324FF0000339680220FDF7BCF9A1
:105300000346002B04D00B4802F0C8FA002302E049
:10531000FDF728FA022318460837BD4680BD00BFB6
:1053200000000C0800000E08C4B50008EAEEEEEE1E
:10533000F0B5000830B6000880B586B000AF022393
:10534000FB755A4B3B615A4BFB60584B1B68BB606B
:10535000574B1B687B60574BF322DA603B69194659
:10536000554802F015FAFB681946544802F010FA45
:10537000BB68B3F1EE3F0DD0BB68B3F1EE3F00F276
:105380008180BB684E4A934249D0BB684D4A9342E4
:1053900013D077E04C4802F081FA7B68494A934287
:1053A00007D04A4802F07AFAFFF76CFF0346FB7514
:1053B00073E0474802F072FA6FE0464802F06EFA76
:1053C0007B68B3F1EE3F26D0434802F067FA4FF412
:1053D0000031F868FFF7DEFE0346002B04D03F489B
:1053E00002F05CFA00235CE0FDF79AF94FF0EE3230
:1053F0004FF00003F9680220FDF73EF90346002B49
:1054000004D0374802F04AFA00234AE0FDF7AAF92F
:105410000223FB7541E0334802F040FA3DE0324898
:1054200002F03CFA7B68274A934223D12F4802F0CE
:1054300035FA4FF400313869FFF7ACFE0346002B14
:1054400001D000232DE0FDF76BF94FF0EE324FF065
:10545000000339690220FDF70FF90346002B04D041
:105460001F4802F01BFA00231BE0FDF77BF9022323
:10547000FB7512E0154802F011FAFFF703FF03462F
:10548000FB750AE01A4802F009FA104802F006FA21
:10549000FFF7F8FE0346FB7500BF6420FCF7B4FB82
:1054A000FB7D18461837BD4680BD00BF00000C08C4
:1054B00000000E08003C024070B60008B4B60008B8
:1054C000E0EEEEEEEAEEEEEEF8B6000834B70008D5
:1054D00078B70008B4B70008F0B7000838B800087B
:1054E00074B80008B0B80008ECB8000824B9000887
:1054F0006CB9000880B584B000AF0023FB600E4B90
:105500001B68BB600D4B1B687B60BB680C4A9342F9
:1055100002D1094BFB6009E07B68094A934202D142
:10552000064BFB6002E0074802F0B8F9FB6818463A
:105530001037BD4680BD00BF00000C0800000E08FB
:10554000E0EEEEEEACB9000880B584B000AF002309
:10555000FB600E4B1B68BB600D4B1B687B60BB6820
:10556000B3F1EE3F02D1094BFB6009E07B68B3F178
:10557000EE3F02D1064BFB6002E0064802F08EF9D6
:10558000FB6818461037BD4680BD00BF00000C0800
:1055900000000E08DCB9000880B584B000AF00231D
:1055A000FB600E4B1B68BB600D4B1B687B60BB68D0
:1055B0000C4A934202D1094BFB6009E07B68094A1F
:1055C000934202D1064BFB6002E0074802F066F905
:1055D000FB6818461037BD4680BD00BF00000C08B0
:1055E00000000E08EAEEEEEE10BA000880B588B0B2
:1055F00000AF03460A46FB801346BB800023BB6115
:1056000000237B610023FB61FB881A04BB881343E2
:105610003B61FFF7C1FFF860FB68BB61FB6803F506
:10562000FF3303F5FF737B61BB69FB6119E0FB6925
:105630001B68B3F1FF3F11D1FDF772F83B691A46C1
:105640004FF00003F9690220FDF716F80346002B1E
:1056500001D102230AE0FDF785F802E0FB6904337B
:10566000FB61FA697B699A42E1D30023184620372F
:10567000BD4680BD80B588B000AF03463960FB8071
:105680000023BB6100237B6100233B610023FB619E
:105690004FF6FE73FB81FFF72DFFB861BB69002B4E
:1056A00001D1002322E0BB697B617B6903F5FF33F5
:1056B00003F5FF733B613B69FB6111E0FB691B88EC
:1056C000FB81FA89FB889A4207D1FB69023B1B8860
:1056D0009AB23B681A80012308E0FB69043BFB6136
:1056E0007B690233FA699A42E8D8002318462037CA
:1056F000BD4680BD80B588B000AF03460A46FB803A
:105700001346BB800023FB610023BB61FFF71CFF36
:1057100038613B69374A934204D1364BFB61364BC3
:10572000BB610AE03B69344A934204D1324BFB61CE
:10573000304BBB6101E0012357E0FCF7F1FF2F4A3A
:105740004FF00003F9690220FCF796FF0346002B97
:1057500001D0002349E02A4A4FF00003B969022032
:10576000FCF78AFF0346002B01D000233DE0FCF745
:10577000F9FFBA88FB8811461846FFF737FF034642
:10578000FB73FB7B022B04D01E4802F087F800233A
:105790002BE000237B6124E0FB887A699A421DD0CC
:1057A0007B699BB207F10A0211461846FFF762FFB8
:1057B0000346BB73BB7B002B10D07B699BB27A89FD
:1057C00011461846FFF712FF03467B737B7B022BC3
:1057D00004D00C4802F062F8002306E07B69013334
:1057E0007B617B694F2BD7DD022318462037BD46EE
:1057F00080BD00BF00000C0800000E08EAEEEEEECF
:10580000E0EEEEEE48BA000880B584B000AF034683
:105810000A46FB801346BB800223FB73BA88FB88D1
:1058200011461846FFF7E2FE0346FB73FB7B002B95
:1058300007D1BA88FB8811461846FFF75BFF03467D
:10584000FB73FB7B18461037BD4680BD80B588B022
:1058500000AF03463960FB800023BB6100237B61FE
:1058600000233B610023FB614FF6FE73FB81FFF7D2
:1058700093FEB861BB69002B01D1002322E0BB6914
:105880007B617B6903F5FF3303F5FF733B613B6984
:10589000FB6111E0FB691B88FB81FA89FB889A4256
:1058A00007D1FB69023B1B889AB23B681A8001232F
:1058B00008E0FB69043BFB617B690233FA699A42A9
:1058C000E8D8002318462037BD4680BD80B584B097
:1058D00000AFFDF7F9FFFCF713F90C4B5B6A0B4ABD
:1058E00023F4E02353620A4B1B687B607B6883F3DD
:1058F000088800BF074B1B68FB60FB68BB60BB6888
:10590000984700BF1037BD4680BD00BF00ED00E0E6
:10591000000002080400020880B582B000AF034610
:105920003960FB80FB8839681846FFF78FFF034614
:1059300018460837BD4680BD80B582B000AF304BF9
:10594000304A1A602E4B4FF4E1325A602C4B4FF420
:1059500080529A602A4B0022DA60294B4FF4806211
:105960001A61274B0C225A61254B00229A61244B65
:105970000022DA612248FEF775F80346002B01D0B9
:10598000FBF7F6FC1E4B1B685B681F4B1F4AC3F8F6
:1059900040211D4B1B4AC3F808211B4B012283F8F1
:1059A00006211B48FFF78AFA01221A491448FEF71C
:1059B000B7F90346002B01D0FBF7DAFCFFF7FCFA3E
:1059C0000023FB80BB1D19464FF47A70FFF7A4FF3C
:1059D0000346002B0CD0FB88012B03D10E4801F0AD
:1059E000D7FE08E00D4801F0D3FEFFF76FFF02E09D
:1059F0000B4801F053FF00BF0837BD4680BD00BF14
:105A00000005002000440040A8100020F8020020FB
:105A1000A41B0020B91C0020D8BB00080CBC000847
:105A200044BC000880B582B000AF7923BB803B1D29
:105A3000012219460848FEF7F5F800BF074B1B780E
:105A400083F00103DBB2002BF8D1044B00221A7063
:105A500000BF0837BD4680BD00050020B81C0020EF
:105A600080B582B000AF1F23BB803B1D01221946C9
:105A70000848FEF7D7F800BF074B1B7883F00103F7
:105A8000DBB2002BF8D1044B00221A7000BF08379C
:105A9000BD4680BD00050020B81C002080B582B046
:105AA00000AF78600B467B807B881A46796809488E
:105AB000FEF7B8F800BF084B1B7883F00103DBB298
:105AC000002BF8D1044B00221A7000BF0837BD46E6
:105AD00080BD00BF00050020B81C002080B485B048
