:020000040800F2
:1000000000000220611A0008E1170008E717000845
:10001000ED170008F3170008F917000800000000AA
:10002000000000000000000000000000FF170008B2
:100030000D180008000000001B180008291800080F
:10004000B11A0008B11A0008B11A0008B11A000864
:10005000B11A0008B11A0008B11A0008B11A000854
:10006000B11A0008B11A0008B11A0008B11A000844
:10007000B11A000835180008B11A0008491800081C
:100080005D18000871180008B11A0008B11A0008BC
:10009000B11A0008B11A0008B11A0008B11A000814
:1000A000B11A0008B11A0008B11A0008B11A000804
:1000B000B11A0008B11A0008B11A0008B11A0008F4
:1000C000B11A0008B11A0008B11A0008B11A0008E4
:1000D000B11A00088518000899180008B11A00081C
:1000E000B11A0008B11A0008B11A0008B11A0008C4
:1000F000B11A0008B11A0008B11A0008B11A0008B4
:10010000B11A0008B11A0008B11A0008B11A0008A3
:10011000AD180008B11A0008B11A0008B11A000899
:10012000B11A0008B11A0008C1180008B11A000875
:10013000B11A00080000000000000000B11A000819
:10014000B11A0008B11A0008B11A0008B11A000863
:10015000B11A0008B11A0008D5180008B11A000831
:10016000B11A0008B11A0008B11A0008B11A000843
:10017000B11A0008B11A00080000000000000000D9
:08018000B11A0008B11A0008D1
:1001900010B5054C237833B9044B13B10448AFF3C1
:1001A00000800123237010BDE0010020000000004A
:1001B0007C90000808B5034B1BB103490348AFF31B
:1001C000008008BD00000000E40100207C900008D1
:1001D000034613F8012B002AFBD1181A0138704787
:1001E00001F0FF01102A2BDB10F0070F08D010F8E8
:1001F000013B013A8B422DD010F0070F42B3F6D1EC
:10020000F0B441EA012141EA014122F007047FF004
:1002100000070023F0E80256083C85EA010586EA5B
:10022000010685FA47F5A3FA87F586FA47F6A5FA97
:1002300087F68EB9EED1F0BC01F0FF0102F00702A3
:1002400032B110F8013B013A83EA010313B1F8D14E
:100250000020704701387047002D06BF354603382F
:10026000073815F0010F07D1013015F4807F02BF68
:10027000013015F4C03F0130F0BC0138704700BFB9
:1002800081F0004102E000BF83F0004330B54FEA47
:1002900041044FEA430594EA050F08BF90EA020FB4
:1002A0001FBF54EA000C55EA020C7FEA645C7FEA47
:1002B000655C00F0E2804FEA5454D4EB5555B8BF6A
:1002C0006D420CDD2C4480EA020281EA030382EADB
:1002D000000083EA010180EA020281EA0303362D6D
:1002E00088BF30BD11F0004F4FEA01314FF4801C40
:1002F0004CEA113102D0404261EB410113F0004F52
:100300004FEA03334CEA133302D0524263EB430308
:1003100094EA050F00F0A780A4F10104D5F1200EA6
:100320000DDB02FA0EFC22FA05F2801841F1000101
:1003300003FA0EF2801843FA05F359410EE0A5F1D5
:1003400020050EF1200E012A03FA0EFC28BF4CF006
:10035000020C43FA05F3C01851EBE37101F00045BC
:1003600007D54FF0000EDCF1000C7EEB00006EEBC9
:100370000101B1F5801F1BD3B1F5001F0CD3490853
:100380005FEA30004FEA3C0C04F101044FEA4452AA
:1003900012F5800F80F09A80BCF1004F08BF5FEA31
:1003A000500C50F1000041EB045141EA050130BD11
:1003B0005FEA4C0C404141EB0101013C28BFB1F523
:1003C000801FE9D291F0000F04BF01460020B1FA6E
:1003D00081F308BF2033A3F10B03B3F120020CDA41
:1003E0000C3208DD02F1140CC2F10C0201FA0CF01F
:1003F00021FA02F10CE002F11402D8BFC2F1200C84
:1004000001FA02F120FA0CFCDCBF41EA0C01904039
:10041000E41AA2BF01EB0451294330BD6FEA040482
:100420001F3C1CDA0C340EDC04F11404C4F120026D
:1004300020FA04F001FA02F340EA030021FA04F37F
:1004400045EA030130BDC4F10C04C4F1200220FAD6
:1004500002F001FA04F340EA0300294630BD21FA14
:1004600004F0294630BD94F0000F83F4801306BFDA
:1004700081F480110134013D4EE77FEA645C18BFCE
:100480007FEA655C29D094EA050F08BF90EA020F65
:1004900005D054EA000C04BF1946104630BD91EA5D
:1004A000030F1EBF0021002030BD5FEA545C05D160
:1004B0004000494128BF41F0004130BD14F580049F
:1004C0003CBF01F5801130BD01F0004545F0FE4113
:1004D00041F470014FF0000030BD7FEA645C1ABF48
:1004E000194610467FEA655C1CBF0B46024650EA7F
:1004F000013406BF52EA033591EA030F41F40021AB
:1005000030BD00BF90F0000F04BF0021704730B530
:100510004FF4806404F132044FF000054FF0000105
:1005200050E700BF90F0000F04BF0021704730B5C6
:100530004FF4806404F1320410F0004548BF40429B
:100540004FF000013EE700BF42004FEAE2014FEAF0
:1005500031014FEA02701FBF12F07F4393F07F4FCB
:1005600081F06051704732F07F4208BF704793F0CE
:100570007F4F04BF41F40021704730B54FF46074E1
:1005800001F0004521F000411CE700BF50EA0102E4
:1005900008BF704730B54FF000050AE050EA01028D
:1005A00008BF704730B511F0004502D5404261EBFD
:1005B00041014FF4806404F132045FEA915C3FF43E
:1005C000D8AE4FF003025FEADC0C18BF03325FEADB
:1005D000DC0C18BF033202EBDC02C2F1200300FA8C
:1005E00003FC20FA02F001FA03FE40EA0E0021FAB1
:1005F00002F11444BDE600BF70B54FF0FF0C4CF49F
:10060000E06C1CEA11541DBF1CEA135594EA0C0F50
:1006100095EA0C0F00F0DEF82C4481EA030621EA8B
:100620004C5123EA4C5350EA013518BF52EA0335C6
:1006300041F4801143F4801338D0A0FB02CE4FF078
:100640000005E1FB02E506F00042E0FB03E54FF0A8
:100650000006E1FB03569CF0000F18BF4EF0010EA0
:10066000A4F1FF04B6F5007F64F5407404D25FEA9C
:100670004E0E6D4146EB060642EAC62141EA55514F
:100680004FEAC52040EA5E504FEACE2EB4F1FD0C91
:1006900088BFBCF5E06F1ED8BEF1004F08BF5FEA0F
:1006A000500E50F1000041EB045170BD06F00046C1
:1006B00046EA010140EA020081EA0301B4EB5C046E
:1006C000C2BFD4EB0C0541EA045170BD41F4801166
:1006D0004FF0000E013C00F3AB8014F1360FDEBF8B
:1006E000002001F0004170BDC4F10004203C35DA67
:1006F0000C341BDC04F11404C4F1200500FA05F3EA
:1007000020FA04F001FA05F240EA020001F000428A
:1007100021F0004110EBD37021FA04F642EB060100
:100720005EEA430E08BF20EAD37070BDC4F10C042A
:10073000C4F1200500FA04F320FA05F001FA04F2EE
:1007400040EA020001F0004110EBD37041F10001DA
:100750005EEA430E08BF20EAD37070BDC4F12005E5
:1007600000FA05F24EEA020E20FA04F301FA05F24D
:1007700043EA020321FA04F001F0004121FA04F2F5
:1007800020EA020000EBD3705EEA430E08BF20EAC5
:10079000D37070BD94F0000F0FD101F000464000FF
:1007A00041EB010111F4801F08BF013CF7D041EA81
:1007B000060195F0000F18BF704703F00046520085
:1007C00043EB030313F4801F08BF013DF7D043EA56
:1007D0000603704794EA0C0F0CEA135518BF95EA0C
:1007E0000C0F0CD050EA410618BF52EA4306D1D193
:1007F00081EA030101F000414FF0000070BD50EAB2
:10080000410606BF1046194652EA430619D094EA3B
:100810000C0F02D150EA013613D195EA0C0F05D125
:1008200052EA03361CBF104619460AD181EA030179
:1008300001F0004141F0FE4141F470014FF0000031
:1008400070BD41F0FE4141F4780170BD70B54FF0CC
:10085000FF0C4CF4E06C1CEA11541DBF1CEA13554C
:1008600094EA0C0F95EA0C0F00F0A7F8A4EB05042E
:1008700081EA030E52EA03354FEA013100F0888025
:100880004FEA03334FF0805545EA131343EA1263EE
:100890004FEA022245EA111545EA10654FEA0026A3
:1008A0000EF000419D4208BF964244F1FD0404F55C
:1008B000407402D25B084FEA3202B61A65EB0305B8
:1008C0005B084FEA32024FF480104FF4002CB6EB75
:1008D000020E75EB030E22BFB61A754640EA0C00F5
:1008E0005B084FEA3202B6EB020E75EB030E22BF35
:1008F000B61A754640EA5C005B084FEA3202B6EB76
:10090000020E75EB030E22BFB61A754640EA9C0034
:100910005B084FEA3202B6EB020E75EB030E22BF04
:10092000B61A754640EADC0055EA060E18D04FEAC2
:10093000051545EA16754FEA06164FEAC30343EA62
:1009400052734FEAC2025FEA1C1CC0D111F4801F2F
:100950000BD141EA00014FF000004FF0004CB6E728
:1009600011F4801F04BF01430020B4F1FD0C88BFC7
:10097000BCF5E06F3FF6AFAEB5EB030C04BFB6EBD2
:10098000020C5FEA500C50F1000041EB045170BDC5
:100990000EF0004E4EEA113114EB5C04C2BFD4EBF2
:1009A0000C0541EA045170BD41F480114FF0000E76
:1009B000013C90E645EA060E8DE60CEA135594EAF2
:1009C0000C0F08BF95EA0C0F3FF43BAF94EA0C0FF5
:1009D0000AD150EA01347FF434AF95EA0C0F7FF46A
:1009E00025AF104619462CE795EA0C0F06D152EABE
:1009F00003353FF4FDAE1046194622E750EA4106A2
:100A000018BF52EA43067FF4C5AE50EA41047FF4B2
:100A10000DAF52EA43057FF4EBAE12E74FF0FF3C17
:100A200006E000BF4FF0010C02E000BF4FF0010CE8
:100A30004DF804CD4FEA410C7FEA6C5C4FEA430C61
:100A400018BF7FEA6C5C1BD001B050EA410C0CBFB0
:100A500052EA430C91EA030F02BF90EA020F002012
:100A6000704710F1000F91EA030F58BF994208BF79
:100A700090422CBFD8176FEAE37040F00100704736
:100A80004FEA410C7FEA6C5C02D150EA013C07D18D
:100A90004FEA430C7FEA6C5CD6D152EA033CD3D0D8
:100AA0005DF8040B704700BF8446104662468C46D2
:100AB0001946634600E000BF01B5FFF7B7FF002805
:100AC00048BF10F1000F01BD4DF808EDFFF7F4FF2E
:100AD0000CBF012000205DF808FB00BF4DF808EDB9
:100AE000FFF7EAFF34BF012000205DF808FB00BFDC
:100AF0004DF808EDFFF7E0FF94BF012000205DF8FE
:100B000008FB00BF4DF808EDFFF7CEFF94BF0120B2
:100B100000205DF808FB00BF4DF808EDFFF7C4FFAB
:100B200034BF012000205DF808FB00BF4FEA410CF4
:100B30007FEA6C5C02D150EA013C0AD14FEA430CD7
:100B40007FEA6C5C02D152EA033C02D14FF0000014
:100B500070474FF0010070474FEA410212F5001252
:100B600015D211D56FF47873B3EB625212D94FEAF4
:100B7000C12343F0004343EA505311F0004F23FADE
:100B800002F018BF404270474FF00000704750EA33
:100B9000013005D111F0004008BF6FF000407047F0
:100BA0004FF00000704700BF4A0011D212F500124A
:100BB00011D20DD56FF47873B3EB62520ED44FEAB5
:100BC000C12343F0004343EA505323FA02F0704735
:100BD0004FF00000704750EA013002D14FF0FF3073
:100BE00070474FF0000070474FEA4102B2F1E04316
:100BF00024BFB3F5001CDCF1FE5C0DD901F0004C04
:100C00004FEAC0024CEA5070B2F1004F40EB830053
:100C100008BF20F00100704711F0804F21D113F17F
:100C20003872BCBF01F00040704741F480114FEAB8
:100C30005252C2F11802C2F1200C10FA0CF320FA41
:100C400002F018BF40F001004FEAC1234FEAD3235E
:100C500003FA0CFC40EA0C0023FA02F34FEA4303C8
:100C6000CCE77FEA625307D150EA01331EBF4FF051
:100C7000FE4040F44000704701F0004040F0FE406C
:100C800040F40000704700BF53B94AB9002908BFBB
:100C900000281CBF4FF0FF314FF0FF3000F0A4B927
:100CA000ADF1080C6DE904CE00F03CF8DDF804E08D
:100CB000DDE9022304B0704738B500220023044662
:100CC0000D46FFF70BFF28B920462946BDE83840FE
:100CD00000F00AB8204605F1004100F005F8404256
:100CE00061EB410138BD00BFD0B50C4B0022064678
:100CF0000F46FFF781FCFFF757FF0446FFF702FCA2
:100D0000074B0022FFF778FC02460B463046394677
:100D1000FFF7BAFAFFF748FF2146D0BD0000F03DCB
:100D20000000F0412DE9F047089D04468C46002B59
:100D300040F083808A42174647D9B2FA82F242B124
:100D4000C2F1200024FA00F09140974040EA010CE3
:100D500094404FEA1748230CBCFBF8F61FFA87FEB5
:100D600008FB16C143EA014306FB0EF1994209D97B
:100D7000FB1806F1FF3080F01981994240F216818C
:100D8000023E3B445B1AA4B2B3FBF8F008FB1033FD
:100D900044EA034400FB0EFEA64509D93C1900F1C4
:100DA000FF3380F00581A64540F2028102383C44C1
:100DB00040EA0640A4EB0E0400261DB1D4400023F7
:100DC000C5E900433146BDE8F08702B9FFDEB2FA5B
:100DD00082F2002A50D1CB1B4FEA174E1FFA87F838
:100DE0000126B3FBFEFC210C0EFB1C3341EA034140
:100DF00008FB0CF38B4207D979180CF1FF3002D2B3
:100E00008B4200F2E9808446C91AA3B2B1FBFEF01E
:100E10000EFB101143EA014408FB00F8A04507D976
:100E20003C1900F1FF3302D2A04500F2D9801846E8
:100E3000A4EB080440EA0C40BFE78B4209D9002D1F
:100E400000F0B1800026C5E9000130463146BDE81A
:100E5000F087B3FA83F6002E4AD18B4202D3824246
:100E600000F2B880841A61EB030101208C46002D4A
:100E7000A8D0C5E9004CA5E7C2F1200320FA03F68B
:100E8000974001FA02F04FEA174ED9403043030C65
:100E9000B1FBFEF61FFA87F80EFB161143EA014379
:100EA00006FB08F1994204FA02F409D9FB1806F18D
:100EB000FF3C80F08D80994240F28A80023E3B44A4
:100EC0005B1A81B2B3FBFEF00EFB103341EA034123
:100ED00000FB08F38B4207D9791800F1FF3C73D26D
:100EE0008B4271D902383944CB1A40EA064678E77A
:100EF000C6F1200C03FA06F422FA0CF31C4320FA84
:100F00000CF701FA06F34FEA144E21FA0CF11F43D5
:100F10003B0CB1FBFEF91FFA84F80EFB191143EAF2
:100F2000014109FB08FA8A4502FA06F200FA06F3C3
:100F300008D9611809F1FF3048D28A4546D9A9F18C
:100F400002092144A1EB0A01BFB2B1FBFEF00EFB86
:100F5000101147EA014700FB08F8B84507D9E7191F
:100F600000F1FF312ED2B8452CD90238274440EA8F
:100F70000940A7EB0807A0FB02894F45C646494632
:100F80001AD317D05DB1B3EB0E0267EB010707FA76
:100F90000CFCF2404CEA0202F740C5E900270026AB
:100FA0003146BDE8F0872E4628460BE70646E9E6BF
:100FB0001846FDE64345E5D2B8EB020E69EB0401A5
:100FC0000138DFE70846D2E760468DE78146B9E79A
:100FD000664675E730464AE7ACF1020C394413E740
:100FE00002383C4424E700BF704700BF80B584B09E
:100FF00000AFF860B9607A607B689AB20A23B9687A
:10100000034802F078F97B6818461037BD4680BD6A
:10101000E803002080B500AF0A4B1B689B680021E5
:10102000184604F093FA00F045FD00F00DF800F0CA
:1010300049F900F0F1F800F071F800F0C3F800F0A1
:1010400097F8FEE70C00002080B594B000AF07F1E0
:10105000200330220021184603F0B6FA07F10C03F2
:1010600000221A605A609A60DA601A610023BB603D
:10107000284B1B6C274A43F080531364254B1B6C91
:1010800003F08053BB60BB6800237B60224B1B686E
:10109000214A43F4804313601F4B1B6803F48043D1
:1010A0007B607B6801233B624FF480337B620223C9
:1010B000BB634FF48003FB6304233B64A8237B647E
:1010C0000223BB640423FB6407F12003184601F0EC
:1010D00051FC0346002B01D000F046F90F23FB60C2
:1010E00002233B6100237B614FF4A053BB614FF4AB
:1010F0008053FB6107F10C030521184601F0B2FE95
:101100000346002B01D000F02FF900BF5037BD4639
:1011100080BD00BF003802400070004080B500AFC5
:10112000114B124A1A60104B4FF4E1325A600E4BC9
:1011300000229A600C4B0022DA600B4B00221A61ED
:10114000094B0C225A61084B00229A61064B00227F
:10115000DA61054802F082F80346002B01D000F066
:1011600003F900BF80BD00BF2C040020004C0040EC
:1011700080B500AF114B124A1A60104B4FF4E132A8
:101180005A600E4B00229A600C4B0022DA600B4B27
:1011900000221A61094B0C225A61084B00229A6105
:1011A000064B0022DA61054802F058F80346002B8E
:1011B00001D000F0D9F800BF80BD00BFE8030020D7
:1011C0000010014080B500AF114B124A1A60104B5D
:1011D0004FF4E1325A600E4B00229A600C4B002211
:1011E000DA600B4B00221A61094B0C225A61084B42
:1011F00000229A61064B0022DA61054802F02EF8BF
:101200000346002B01D000F0AFF800BF80BD00BF47
:10121000700400200044004080B582B000AF00237D
:101220007B60274B1B6B264A43F400131363244B4C
:101230001B6B03F400137B607B6800233B60204B37
:101240001B6B1F4A43F4800313631D4B1B6B03F49A
:1012500080033B603B68002200210D2000F09BFDD5
:101260000D2000F0B4FD002200210F2000F093FDBE
:101270000F2000F0ACFD00220021102000F08BFDBB
:10128000102000F0A4FD00220021112000F083FDB9
:10129000112000F09CFD002200213A2000F07BFD8F
:1012A0003A2000F094FD00220021462000F073FD5A
:1012B000462000F08CFD00BF0837BD4680BD00BF52
:1012C0000038024080B588B000AF07F10C0300225F
:1012D0001A605A609A60DA601A610023BB60204B82
:1012E0001B6B1F4A43F0040313631D4B1B6B03F07E
:1012F0000403BB60BB6800237B60194B1B6B184A5F
:1013000043F080031363164B1B6B03F080037B6079
:101310007B6800233B60124B1B6B114A43F00103B7
:1013200013630F4B1B6B03F001033B603B6801220F
:101330004FF460410B4801F003FB4FF46043FB6046
:1013400001233B6100237B610023BB6107F10C0398
:101350001946044801F058F900BF2037BD4680BD4A
:10136000003802400008024080B500AF72B600BFEE
:10137000034804F0D3F84FF47A7000F00DFCF7E75F
:101380009890000880B483B000AF00237B60104BBE
:101390005B6C0F4A43F4804353640D4B5B6C03F466
:1013A00080437B607B6800233B60094B1B6C084AD1
:1013B00043F080531364064B1B6C03F080533B6077
:1013C0003B6800BF0C37BD465DF8047B704700BF2B
:1013D0000038024080B58EB000AF786007F124037A
:1013E00000221A605A609A60DA601A617B681B6892
:1013F000984A934240F0958000233B62964B1B6CC9
:10140000954A43F400231364934B1B6C03F40023AD
:101410003B623B6A0023FB618F4B1B6B8E4A43F0A0
:10142000040313638C4B1B6B03F00403FB61FB6928
:101430004FF440637B620223BB620023FB62032301
:101440003B6308237B6307F124031946834801F0BB
:10145000DBF8834B834A1A60814B4FF000625A607D
:101460007F4B40229A607E4B0022DA607C4B4FF427
:1014700080621A617A4B00225A61794B00229A618C
:10148000774B0022DA61764B4FF400321A62744BCC
:1014900000225A62724800F0B5FC0346002B01D0CE
:1014A000FFF762FF7B686E4A5A636D4A7B689363FD
:1014B0006D4B6E4A1A606C4B4FF000625A606A4B7B
:1014C00000229A60684B0022DA60674B4FF480621A
:1014D0001A61654B00225A61634B00229A61624B8C
:1014E0004FF48072DA61604B4FF400321A625E4B47
:1014F00000225A625C4800F085FC0346002B01D0B4
:10150000FFF732FF7B68584A9A63574A7B689363B8
:1015100000220021342000F03EFC342000F057FC73
:101520004BE17B681B68524A934240F0AD80002338
:10153000BB61494B5B6C484A43F010035364464B14
:101540005B6C03F01003BB61BB6900237B61424B02
:101550001B6B414A43F0010313633F4B1B6B03F0CA
:1015600001037B617B694FF4C0637B620223BB6232
:101570000023FB6203233B6307237B6307F1240300
:1015800019463C4801F040F83B4B3C4A1A603A4B44
:101590004FF000625A60384B40229A60364B00226E
:1015A000DA60354B4FF480621A61334B00225A6186
:1015B000314B00229A61304B0022DA612E4B00221F
:1015C0001A622D4B00225A622B4800F01BFC034686
:1015D000002B01D0FFF7C8FE7B68274A5A63264AD2
:1015E0007B689363264B274A1A60254B4FF00062B5
:1015F0005A60234B00229A60214B0022DA60204B74
:101600004FF480621A611E4B00225A611C4B00226B
:101610009A611B4B4FF48072DA61194B00221A62F7
:10162000174B00225A62164800F0ECFB0346002BD1
:1016300001D0FFF799FE7B68114A9A63104A7B68D4
:10164000936300220021252000F0A5FB252000F057
:10165000BEFBB2E0004C00400038024000080240EF
:10166000B404002070600240080200204060024084
:101670000010014000000240C8020020B86402408F
:1016800028030020406402407B681B684D4A934257
:1016900040F0938000233B614B4B1B6C4A4A43F460
:1016A00000331364484B1B6C03F400333B613B690C
:1016B0000023FB60444B1B6B434A43F0010313635D
:1016C000414B1B6B03F00103FB60FB680C237B6247
:1016D0000223BB620023FB6203233B6307237B637C
:1016E00007F124031946394800F08EFF384B394A78
:1016F0001A60374B4FF000625A60354B40229A60B7
:10170000334B0022DA60324B4FF480621A61304B67
:1017100000225A612E4B00229A612D4B0022DA6181
:101720002B4B4FF400321A62294B00225A62284890
:1017300000F068FB0346002B01D0FFF715FE7B6825
:10174000234A5A63224A7B689363234B234A1A60D5
:10175000214B4FF000625A601F4B00229A601E4BD3
:101760000022DA601C4B4FF480621A611A4B00228F
:101770005A61194B00229A61174B4FF48072DA615B
:10178000154B4FF400321A62134B00225A62124872
:1017900000F038FB0346002B01D0FFF7E5FD7B6826
:1017A0000D4A9A630C4A7B6893630022002126202D
:1017B00000F0F1FA262000F00AFB00BF3837BD46E2
:1017C00080BD00BF004400400038024000000240DD
:1017D00088030020A0600240680200208860024068
:1017E00080B400AFFEE780B400AFFEE780B400AF86
:1017F000FEE780B400AFFEE780B400AFFEE780B440
:1018000000AF00BFBD465DF8047B704780B400AFF9
:1018100000BFBD465DF8047B704780B400AF00BFD9
:10182000BD465DF8047B704780B500AF00F094F9C9
:1018300000BF80BD80B500AF024800F07BFC00BF58
:1018400080BD00BF0802002080B500AF024800F054
:1018500071FC00BF80BD00BFB404002080B500AFA4
:10186000024800F067FC00BF80BD00BF6802002096
:1018700080B500AF024800F05DFC00BF80BD00BF36
:101880008803002080B500AF024801F045FE00BF8C
:1018900080BD00BFE803002080B500AF024801F022
:1018A0003BFE00BF80BD00BF7004002080B500AFCC
:1018B000024801F031FE00BF80BD00BF2C040020B3
:1018C00080B500AF024800F035FC00BF80BD00BF0E
:1018D0002803002080B500AF024800F02BFC00BFB9
:1018E00080BD00BFC802002080B400AF01231846AD
:1018F000BD465DF8047B704780B582B000AF78606C
:10190000396002F021FE034616221A604FF0FF33C1
:1019100018460837BD4680BD80B582B000AF7860FC
:101920004FF0FF317868FFF7E7FFFEE780B586B03C
:1019300000AFF860B9607A6000237B610AE0AFF322
:1019400000800146BB685A1CBA60CAB21A707B6933
:1019500001337B617A697B689A42F0DB7B681846C9
:101960001837BD4680BD80B483B000AF78604FF0BB
:10197000FF3318460C37BD465DF8047B704780B4D2
:1019800083B000AF786039603B684FF400525A6012
:10199000002318460C37BD465DF8047B704780B4C1
:1019A00083B000AF7860012318460C37BD465DF860
:1019B000047B704780B485B000AFF860B9607A608E
:1019C000002318461437BD465DF8047B70470000BD
:1019D00080B586B000AF7860144A154BD31A7B618E
:1019E0007B693B61134B1B68002B02D1114B124AE0
:1019F0001A60104B1A687B6813443A699A4207D2FE
:101A000002F0A2FD03460C221A604FF0FF3309E0FA
:101A1000084B1B68FB60074B1A687B681344054A38
:101A20001360FB6818461837BD4680BD00000220D1
:101A300000040000FC010020001C002080B400AF66
:101A4000064BD3F88830054A43F47003C2F8883057
:101A500000BFBD465DF8047B704700BF00ED00E0AD
:101A6000DFF834D00D480E490E4A002302E0D45866
:101A7000C4500433C4188C42F9D30B4A0B4C0023D6
:101A800001E013600432A242FBD3FFF7D7FF02F05C
:101A900061FDFFF7BFFA7047000002200000002040
:101AA000E001002094950008E0010020FC1B0020CC
:101AB000FEE7000080B500AF0E4B1B680D4A43F4F3
:101AC000007313600B4B1B680A4A43F48063136076
:101AD000084B1B68074A43F480731360032000F02F
:101AE0004FF90F2000F008F8FFF74CFC00231846D0
:101AF00080BD00BF003C024080B582B000AF78607E
:101B0000124B1A68124B1B7819464FF47A73B3FBC9
:101B1000F1F3B2FBF3F3184600F067F90346002B2C
:101B200001D001230EE07B680F2B0AD800227968D0
:101B30004FF0FF3000F02FF9064A7B681360002356
:101B400000E0012318460837BD4680BD0000002094
:101B5000080000200400002080B400AF064B1B7872
:101B60001A46064B1B681344044A136000BFBD4667
:101B70005DF8047B704700BF0800002014050020BA
:101B800080B400AF034B1B681846BD465DF8047B6C
:101B9000704700BF1405002080B584B000AF7860A6
:101BA000FFF7EEFFB8607B68FB60FB68B3F1FF3FB7
:101BB00005D00A4B1B781A46FB681344FB6000BF34
:101BC000FFF7DEFF0246BB68D31AFA689A42F7D8DD
:101BD00000BF00BF1037BD4680BD00BF0800002019
:101BE00080B485B000AF78607B6803F00703FB60CA
:101BF0000C4BDB68BB60BA684FF6FF031340BB6059
:101C0000FB681A02BB68134343F0BF6343F400331D
:101C1000BB60044ABB68D36000BF1437BD465DF8A3
:101C2000047B704700ED00E080B400AF044BDB683C
:101C30001B0A03F007031846BD465DF8047B704796
:101C400000ED00E080B483B000AF0346FB7197F96C
:101C50000730002B0BDBFB7903F01F02074997F9D4
:101C600007305B09012000FA02F241F8232000BF8F
:101C70000C37BD465DF8047B704700BF00E100E013
:101C800080B483B000AF03463960FB7197F9073029
:101C9000002B0ADB3B68DAB20C4997F907301201D6
:101CA000D2B20B4483F800230AE03B68DAB2084959
:101CB000FB7903F00F03043B1201D2B20B441A76F6
:101CC00000BF0C37BD465DF8047B704700E100E0C3
:101CD00000ED00E080B489B000AFF860B9607A60D0
:101CE000FB6803F00703FB61FB69C3F10703042BE7
:101CF00028BF0423BB61FB690433062B02D9FB69AF
:101D0000033B00E000237B614FF0FF32BB6902FA26
:101D100003F3DA43BB681A407B699A404FF0FF3106
:101D20007B6901FA03F3D9437B680B4013431846E0
:101D30002437BD465DF8047B7047000080B582B053
:101D400000AF78607B68013BB3F1807F01D3012352
:101D50000FE00A4A7B68013B53600F214FF0FF30D0
:101D6000FFF78EFF054B00229A60044B07221A6092
:101D7000002318460837BD4680BD00BF10E000E0D4
:101D800080B582B000AF78607868FFF729FF00BFA8
:101D90000837BD4680BD80B586B000AF0346B96048
:101DA0007A60FB7300237B61FFF73EFF78617A68FE
:101DB000B9687869FFF78EFF024697F90F30114630
:101DC0001846FFF75DFF00BF1837BD4680BD80B5E0
:101DD00082B000AF0346FB7197F907301846FFF752
:101DE00031FF00BF0837BD4680BD80B582B000AF6F
:101DF00078607868FFF7A2FF034618460837BD46AB
:101E000080BD000080B586B000AF786000237B61A4
:101E1000FFF7B6FE38617B68002B01D1012399E002
:101E20007B68022283F835207B68002283F8342007
:101E30007B681B681A687B681B6822F001021A60C5
:101E40000FE0FFF79DFE02463B69D31A052B08D928
:101E50007B6820225A657B68032283F835200323A0
:101E600078E07B681B681B6803F00103002BE8D156
:101E70007B681B681B687B617A69384B13407B6108
:101E80007B685A687B689B681A437B68DB681A43E7
:101E90007B681B691A437B685B691A437B689B6993
:101EA0001A437B68DB691A437B681B6A13437A69B0
:101EB00013437B617B685B6A042B07D17B68DA6A1A
:101EC0007B681B6B13437A6913437B617B681B68D8
:101ED0007A691A607B681B685B697B617B6923F0A8
:101EE00007037B617B685B6A7A6913437B617B686C
:101EF0005B6A042B17D17B689B6A7A6913437B6109
:101F00007B68DB6A002B0ED0786800F001FB03468B
:101F1000002B08D07B6840225A657B68012283F839
:101F20003520012316E07B681B687A695A6178685E
:101F300000F0B8FA0346FB607B68DB6D3F229A40F5
:101F4000FB689A607B6800225A657B68012283F8EF
:101F50003520002318461837BD4680BD3F8010F05D
:101F600080B586B000AFF860B9607A603B6000234E
:101F7000FB75FB689B6D3B61FB6893F83430012B6C
:101F800001D1022340E0FB68012283F83420FB6882
:101F900093F83530DBB2012B2FD1FB68022283F896
:101FA0003520FB6800225A653B687A68B968F86892
:101FB00000F04AFAFB68DB6D3F229A403B699A6069
:101FC000FB681B681A68FB681B6842F016021A60FF
:101FD000FB681B6C002B07D0FB681B681A68FB684A
:101FE0001B6842F008021A60FB681B681A68FB68ED
:101FF0001B6842F001021A6005E0FB68002283F8CA
:1020000034200223FB75FB7D18461837BD4680BD82
:1020100080B584B000AF78607B689B6DFB60FFF794
:10202000AFFDB8607B6893F83530DBB2022B08D087
:102030007B6880225A657B68002283F83420012364
:1020400052E07B681B681A687B681B6822F01602E6
:102050001A607B681B685A697B681B6822F08002E3
:102060005A617B681B6C002B03D17B689B6C002B37
:1020700007D07B681B681A687B681B6822F008021F
:102080001A607B681B681A687B681B6822F0010273
:102090001A6013E0FFF774FD0246BB68D31A052BE4
:1020A0000CD97B6820225A657B68032283F835208F
:1020B0007B68002283F83420032315E07B681B68CB
:1020C0001B6803F00103002BE4D17B68DB6D3F222A
:1020D0009A40FB689A607B68012283F835207B6810
:1020E000002283F83420002318461037BD4680BDF7
:1020F00080B483B000AF78607B6893F83530DBB292
:10210000022B04D07B6880225A6501230CE07B6897
:10211000052283F835207B681B681A687B681B687A
:1021200022F001021A60002318460C37BD465DF804
:10213000047B704780B586B000AF78600023BB6039
:10214000924B1B68924AA2FB03239B0A7B617B682C
:102150009B6D3B613B691B68FB607B68DB6D082204
:102160009A40FB681340002B1AD07B681B681B68E1
:1021700003F00403002B13D07B681B681A687B688C
:102180001B6822F004021A607B68DB6D08229A400B
:102190003B699A607B685B6D43F001027B685A651E
:1021A0007B68DB6D01229A40FB681340002B12D044
:1021B0007B681B685B6903F08003002B0BD07B6896
:1021C000DB6D01229A403B699A607B685B6D43F04E
:1021D00002027B685A657B68DB6D04229A40FB68CB
:1021E0001340002B12D07B681B681B6803F00203AE
:1021F000002B0BD07B68DB6D04229A403B699A6010
:102200007B685B6D43F004027B685A657B68DB6D1D
:1022100010229A40FB681340002B43D07B681B6858
:102220001B6803F00803002B3CD07B68DB6D102299
:102230009A403B699A607B681B681B6803F48023A3
:10224000002B18D07B681B681B6803F40023002B4D
:1022500008D17B681B6C002B24D07B681B6C7868D2
:1022600098471FE07B689B6C002B1BD07B689B6CA6
:102270007868984716E07B681B681B6803F48073D6
:10228000002B07D17B681B681A687B681B6822F0EB
:1022900008021A607B681B6C002B03D07B681B6CE8
:1022A000786898477B68DB6D20229A40FB68134072
:1022B000002B00F08E807B681B681B6803F0100306
:1022C000002B00F086807B68DB6D20229A403B6902
:1022D0009A607B6893F83530DBB2052B36D17B688A
:1022E0001B681A687B681B6822F016021A607B68FC
:1022F0001B685A697B681B6822F080025A617B6800
:102300001B6C002B03D17B689B6C002B07D07B6878
:102310001B681A687B681B6822F008021A607B68D9
:10232000DB6D3F229A403B699A607B68012283F80B
:1023300035207B68002283F834207B681B6D002BDE
:102340007DD07B681B6D7868984778E07B681B6858
:102350001B6803F48023002B1CD07B681B681B6860
:1023600003F40023002B08D17B685B6C002B30D07A
:102370007B685B6C786898472BE07B68DB6B002B95
:1023800027D07B68DB6B7868984722E0000000204C
:10239000B5814E1B7B681B681B6803F48073002BA0
:1023A0000FD17B681B681A687B681B6822F01002DB
:1023B0001A607B68012283F835207B68002283F84D
:1023C00034207B68DB6B002B03D07B68DB6B786889
:1023D00098477B685B6D002B32D07B685B6D03F0A8
:1023E0000103002B22D07B68052283F835207B680F
:1023F0001B681A687B681B6822F001021A60BB68C0
:102400000133BB607A699A4207D37B681B681B68FB
:1024100003F00103002BF2D100E000BF7B68012232
:1024200083F835207B68002283F834207B68DB6CDE
:10243000002B05D07B68DB6C7868984700E000BF14
:102440001837BD4680BD00BF80B485B000AFF860CE
:10245000B9607A603B60FB681B681A68FB681B68A0
:1024600022F480221A60FB681B683A685A60FB6895
:102470009B68402B08D1FB681B687A689A60FB68F0
:102480001B68BA68DA6007E0FB681B68BA689A6084
:10249000FB681B687A68DA6000BF1437BD465DF8D8
:1024A000047B704780B485B000AF78607B681B68A0
:1024B000DBB2103B144AA2FB03231B09FB60134A47
:1024C000FB6813441B781A467B68DA65FB68032BAC
:1024D00009D97B681B6823F47F7323F003031A1D5B
:1024E0007B689A6507E07B681B6823F47F7323F0A1
:1024F00003037A6893657B689B6D18461437BD4665
:102500005DF8047B704700BFABAAAAAAC890000878
:1025100080B485B000AF78600023FB737B689B6A52
:10252000BB607B689B69002B1FD1BB68032B56D80F
:1025300001A252F823F000BF492500085B250008DE
:1025400049250008DF2500087B68DB6A03F08073FB
:10255000002B46D00123FB7343E07B68DB6AB3F1B9
:10256000C07F40D10123FB733DE07B689B69B3F5DD
:10257000005F21D1BB68032B37D801A252F823F0AA
:10258000912500089725000891250008A925000835
:102590000123FB7330E07B68DB6A03F08073002B60
:1025A00025D00123FB7322E07B68DB6AB3F1C07F97
:1025B0001FD10123FB731CE0BB68022B03D9BB684E
:1025C000032B03D018E00123FB7315E07B68DB6A63
:1025D00003F08073002B0ED00123FB730BE000BFD0
:1025E0000AE000BF08E000BF06E000BF04E000BF53
:1025F00002E000BF00E000BFFB7B18461437BD4679
:102600005DF8047B704700BF80B489B000AF78608C
:10261000396000237B6100233B610023BB61002301
:10262000FB616BE10122FB6902FA03F37B613B680A
:102630001B687A6913403B613A697B699A4240F0B2
:102640005A813B685B6803F00303012B05D03B68AC
:102650005B6803F00303022B30D17B689B68BB618E
:10266000FB695B00032202FA03F3DB43BA69134000
:10267000BB613B68DA68FB695B0002FA03F3BA6985
:102680001343BB617B68BA699A607B685B68BB6116
:102690000122FB6902FA03F3DB43BA691340BB6111
:1026A0003B685B681B0903F00102FB6902FA03F354
:1026B000BA691343BB617B68BA695A603B685B685F
:1026C00003F00303032B17D07B68DB68BB61FB6956
:1026D0005B00032202FA03F3DB43BA691340BB61D8
:1026E0003B689A68FB695B0002FA03F3BA6913431B
:1026F000BB617B68BA69DA603B685B6803F003031F
:10270000022B23D1FB69DA087B68083253F82230A8
:10271000BB61FB6903F007039B000F2202FA03F37E
:10272000DB43BA691340BB613B681A69FB6903F07C
:1027300007039B0002FA03F3BA691343BB61FB6909
:10274000DA087B680832B96943F822107B681B6895
:10275000BB61FB695B00032202FA03F3DB43BA6946
:102760001340BB613B685B6803F00302FB695B00DD
:1027700002FA03F3BA691343BB617B68BA691A6052
:102780003B685B6803F44033002B00F0B480002307
:10279000FB60604B5B6C5F4A43F4804353645D4B6A
:1027A0005B6C03F48043FB60FB685B4AFB699B083E
:1027B000023352F82330BB61FB6903F003039B0033
:1027C0000F2202FA03F3DB43BA691340BB617B6853
:1027D000524A93422BD07B68514A934225D07B6862
:1027E000504A93421FD07B684F4A934219D07B686E
:1027F0004E4A934213D07B684D4A93420DD07B687A
:102800004C4A934207D07B684B4A934201D107233D
:102810000EE008230CE006230AE0052308E0042369
:1028200006E0032304E0022302E0012300E000238A
:10283000FA6902F0030292009340BA691343BB6144
:102840003549FB699B080233BA6941F823203B4BA9
:102850001B68BB613B69DB43BA691340BB613B68E2
:102860005B6803F48033002B03D0BA693B691343E0
:10287000BB61324ABB691360304B5B68BB613B692B
:10288000DB43BA691340BB613B685B6803F4003308
:10289000002B03D0BA693B691343BB61274ABB696C
:1028A0005360264B9B68BB613B69DB43BA691340AD
:1028B000BB613B685B6803F48013002B03D0BA69EB
:1028C0003B691343BB611D4ABB6993601B4BDB68CB
:1028D000BB613B69DB43BA691340BB613B685B6822
:1028E00003F40013002B03D0BA693B691343BB61A7
:1028F000124ABB69D360FB690133FB61FB690F2B93
:102900007FF690AE00BF00BF2437BD465DF8047B64
:10291000704700BF0038024000380140000002400C
:102920000004024000080240000C02400010024077
:102930000014024000180240001C0240003C01400C
:1029400080B483B000AF78600B467B8013467B7009
:102950007B78002B03D07A887B689A6103E07B88C0
:102960001A047B689A6100BF0C37BD465DF8047B92
:102970007047000080B586B000AF78607B68002BA0
:1029800001D1012364E27B681B6803F00103002B83
:1029900075D0A34B9B6803F00C03042B0CD0A04B09
:1029A0009B6803F00C03082B12D19D4B5B6803F46A
:1029B0008003B3F5800F0BD1994B1B6803F40033F0
:1029C000002B5BD07B685B68002B57D101233FE273
:1029D0007B685B68B3F5803F06D1914B1B68904ADA
:1029E00043F4803313601DE07B685B68B3F5A02F70
:1029F0000CD18B4B1B688A4A43F480231360884BAD
:102A00001B68874A43F4803313600BE0844B1B68D8
:102A1000834A23F480331360814B1B68804A23F47C
:102A2000802313607B685B68002B13D0FFF7A8F846
:102A3000386108E0FFF7A4F802463B69D31A642B1B
:102A400001D9032304E2764B1B6803F40033002B07
:102A5000F0D014E0FFF794F8386108E0FFF790F841
:102A600002463B69D31A642B01D90323F0E16C4B76
:102A70001B6803F40033002BF0D100E000BF7B683B
:102A80001B6803F00203002B63D0654B9B6803F0C7
:102A90000C03002B0BD0624B9B6803F00C03082B3C
:102AA0001CD15F4B5B6803F48003002B16D15C4B99
:102AB0001B6803F00203002B05D07B68DB68012B49
:102AC00001D00123C4E1564B1B6823F0F8027B6858
:102AD0001B69DB00524913430B603AE07B68DB68FB
:102AE000002B20D04F4B01221A60FFF749F83861C4
:102AF00008E0FFF745F802463B69D31A022B01D9DB
:102B00000323A5E1464B1B6803F00203002BF0D022
:102B1000434B1B6823F0F8027B681B69DB004049CC
:102B200013430B6015E03F4B00221A60FFF728F8B3
:102B3000386108E0FFF724F802463B69D31A022BFC
:102B400001D9032384E1364B1B6803F00203002BF9
:102B5000F0D17B681B6803F00803002B30D07B6842
:102B60005B69002B16D0304B01221A60FFF708F882
:102B7000386108E0FFF704F802463B69D31A022BDC
:102B800001D9032364E1264B5B6F03F00203002BA2
:102B9000F0D015E0244B00221A60FEF7F1FF3861F7
:102BA00008E0FEF7EDFF02463B69D31A022B01D97C
:102BB00003234DE11A4B5B6F03F00203002BF0D1AE
:102BC0007B681B6803F00403002B00F0A080002347
:102BD000FB75134B1B6C03F08053002B0FD10023AC
:102BE000BB600F4B1B6C0E4A43F0805313640C4BBD
:102BF0001B6C03F08053BB60BB680123FB750B4B60
:102C00001B6803F48073002B21D1084B1B68074A13
:102C100043F480731360FEF7B3FF386111E000BF27
:102C20000038024000004742800E474200700040DA
:102C3000FEF7A6FF02463B69D31A022B01D90323F4
:102C400006E1854B1B6803F48073002BF0D07B6892
:102C50009B68012B06D1814B1B6F804A43F0010317
:102C600013671CE07B689B68052B0CD17B4B1B6FAB
:102C70007A4A43F004031367784B1B6F774A43F09B
:102C8000010313670BE0754B1B6F744A23F00103BC
:102C90001367724B1B6F714A23F0040313677B6841
:102CA0009B68002B15D0FEF76BFF38610AE0FEF73A
:102CB00067FF02463B69D31A41F28832934201D939
:102CC0000323C5E0654B1B6F03F00203002BEED01E
:102CD00014E0FEF755FF38610AE0FEF751FF0246A7
:102CE0003B69D31A41F28832934201D90323AFE002
:102CF0005A4B1B6F03F00203002BEED1FB7D012B1F
:102D000005D1564B1B6C554A23F0805313647B68E6
:102D10009B69002B00F09B80504B9B6803F00C03D9
:102D2000082B5CD07B689B69022B41D14C4B002265
:102D30001A60FEF725FF386108E0FEF721FF024622
:102D40003B69D31A022B01D9032381E0434B1B6853
:102D500003F00073002BF0D17B68DA697B681B6A93
:102D60001A437B685B6A9B011A437B689B6A5B081A
:102D7000013B1B041A437B68DB6A1B06374913437C
:102D80004B60374B01221A60FEF7FAFE386108E00B
:102D9000FEF7F6FE02463B69D31A022B01D9032344
:102DA00056E02E4B1B6803F00073002BF0D04EE072
:102DB0002B4B00221A60FEF7E3FE386108E0FEF7B5
:102DC000DFFE02463B69D31A022B01D903233FE001
:102DD000224B1B6803F00073002BF0D137E07B68B7
:102DE0009B69012B01D1012332E01C4B5B68FB6026
:102DF0007B689B69012B28D0FB6803F480027B6809
:102E0000DB699A4221D1FB6803F03F027B681B6AB1
:102E10009A421AD1FA6847F6C07313407A68526A28
:102E20009201934211D1FB6803F440327B689B6AA4
:102E30005B08013B1B049A4207D1FB6803F07062F8
:102E40007B68DB6A1B069A4201D0012300E0002365
:102E500018461837BD4680BD00700040003802405B
:102E60006000474280B584B000AF786039607B680D
:102E7000002B01D10123CCE0684B1B6803F0070352
:102E80003A689A420CD9654B3A68D2B21A70634BD1
:102E90001B6803F007033A689A4201D00123B8E0A7
:102EA0007B681B6803F00203002B20D07B681B6843
:102EB00003F00403002B05D0594B9B68584A43F498
:102EC000E05393607B681B6803F00803002B05D078
:102ED000534B9B68524A43F460439360504B9B684A
:102EE00023F0F0027B689B684D4913438B607B683D
:102EF0001B6803F00103002B44D07B685B68012B47
:102F000007D1474B1B6803F40033002B19D1012371
:102F10007FE07B685B68022B03D07B685B68032BD8
:102F200007D13F4B1B6803F00073002B09D101232D
:102F30006FE03B4B1B6803F00203002B01D1012320
:102F400067E0374B9B6823F003027B685B6834497A
:102F500013438B60FEF714FEF8600AE0FEF710FEE4
:102F60000246FB68D31A41F28832934201D9032307
:102F70004FE02B4B9B6803F00C027B685B689B0067
:102F80009A42EBD1254B1B6803F007033A689A423B
:102F90000CD2224B3A68D2B21A70204B1B6803F055
:102FA00007033A689A4201D0012332E07B681B682C
:102FB00003F00403002B08D0194B9B6823F4E05264
:102FC0007B68DB68164913438B607B681B6803F0E2
:102FD0000803002B09D0124B9B6823F460427B68E6
:102FE0001B69DB000E4913438B6000F021F8024699
:102FF0000B4B9B681B0903F00F030A49CB5C22FAB9
:1030000003F3094A1360094B1B681846FEF774FD69
:10301000002318461037BD4680BD00BF003C02406B
:1030200000380240B090000800000020040000209A
:103030002DE9B04384B000AF00237B600023FB6028
:1030400000233B600023BB60674B9B6803F00C03CD
:10305000082B0DD0082B00F2BD80002B02D0042BD2
:1030600003D0B7E0614BBB60B7E0614BBB60B4E03D
:103070005D4B5B6803F03F037B605B4B5B6803F475
:103080008003002B4DD0584B5B689B091A464FF0CC
:10309000000340F2FF104FF0000102EA000803EACB
:1030A0000109404649464FF000024FF000034B0132
:1030B00043EAD063420110461946B0EB080061EBC9
:1030C00009014FF000024FF000038B0143EA9063C7
:1030D0008201121A63EB01034FF000004FF0000170
:1030E000D90041EA5271D00002460B4612EB0802A9
:1030F00043EB09034FF000004FF00001590241EA91
:10310000D251500202460B46104619467B681A46B9
:103110004FF00003FDF7B8FD02460B461346FB6077
:103120004AE0314B5B689B091A464FF0000340F2BE
:10313000FF104FF0000102EA000403EA01052046F7
:1031400029464FF000024FF000034B0143EAD063E1
:10315000420110461946001B61EB05014FF00002C9
:103160004FF000038B0143EA90638201121A63EB74
:1031700001034FF000004FF00001D90041EA527105
:10318000D00002460B46121945EB03034FF0000036
:103190004FF00001990241EA9251900202460B461B
:1031A000104619467B681A464FF00003FDF76CFD88
:1031B00002460B461346FB600B4B5B681B0C03F08F
:1031C000030301335B003B60FA683B68B2FBF3F337
:1031D000BB6002E0054BBB6000BFBB681846103700
:1031E000BD46BDE8B08300BF003802400024F400B3
:1031F00000127A0080B400AF034B1B681846BD462E
:103200005DF8047B704700BF0000002080B500AF70
:10321000FFF7F0FF0246054B9B689B0A03F007038C
:103220000349CB5C22FA03F3184680BD0038024004
:10323000C090000880B500AFFFF7DCFF0246054BE9
:103240009B685B0B03F007030349CB5C22FA03F393
:10325000184680BD00380240C090000880B582B09A
:1032600000AF78607B68002B01D101233FE07B68D1
:1032700093F83D30DBB2002B06D17B68002283F847
:103280003C207868FEF7A6F87B68242283F83D206E
:103290007B681B68DA687B681B6822F40052DA607E
:1032A000786800F0BDFE7B681B681A697B681B6844
:1032B00022F490421A617B681B685A697B681B681C
:1032C00022F02A025A617B681B68DA687B681B68F7
:1032D00042F40052DA607B6800221A647B68202284
:1032E00083F83D207B68202283F83E200023184687
:1032F0000837BD4680BD80B58AB002AFF860B960BE
:103300003B601346FB8000237B61FB6893F83D30F4
:10331000DBB2202B7CD1BB68002B02D0FB88002BBA
:1033200001D1012375E0FB6893F83C30012B01D1FA
:1033300002236EE0FB68012283F83C20FB68002238
:103340001A64FB68212283F83D20FEF719FC78619E
:10335000FB68FA889A84FB68FA88DA84FB689B68C1
:10336000B3F5805F08D1FB681B69002B04D10023F3
:10337000FB61BB68BB6103E0BB68FB610023BB6111
:10338000FB68002283F83C202AE03B6800937B69BD
:1033900000228021F86800F012FC0346002B01D0C7
:1033A000032336E0FB69002B0BD1BB691B881A464F
:1033B000FB681B68C2F308025A60BB690233BB6139
:1033C00007E0FB691A78FB681B685A60FB690133E8
:1033D000FB61FB68DB8C9BB2013B9AB2FB68DA8431
:1033E000FB68DB8C9BB2002BCFD13B6800937B69E1
:1033F00000224021F86800F0E2FB0346002B01D0D8
:10340000032306E0FB68202283F83D20002300E030
:10341000022318462037BD4680BD000080B58CB021
:1034200000AFF860B9601346FB80FB6893F83D304D
:10343000DBB2202B65D1BB68002B02D0FB88002BB0
:1034400001D101235EE0FB6893F83C30012B01D1F0
:10345000022357E0FB68012283F83C20BA68FB682E
:103460001A62FB68FA889A84FB68FA88DA84FB6837
:1034700000221A64FB68212283F83D20FB685B6B05
:10348000224ADA63FB685B6B214A1A64FB685B6B58
:10349000204ADA64FB685B6B00221A6507F10803B7
:1034A000FB62FB68586BFB6A1968FB681B68043396
:1034B0001A46FB88FEF754FDFB681B686FF040025C
:1034C0001A60FB68002283F83C20FB681B681433F9
:1034D000BB61BB6953E8003F7B617B6943F08003BC
:1034E000BB62FB681B681433BA6A7A623B62396A52
:1034F0007A6A41E80023FB61FB69002BE5D10023D8
:1035000000E0022318463037BD4680BD753A0008FA
:103510000F3B00082B3B000880B5BAB000AF7860C5
:103520007B681B681B68C7F8E4307B681B68DB6836
:10353000C7F8E0307B681B685B69C7F8DC300023A4
:10354000C7F8D8300023C7F8D430D7F8E43003F0F8
:103550000F03C7F8D830D7F8D830002B0FD1D7F8E1
:10356000E43003F02003002B09D0D7F8E03003F05B
:103570002003002B03D0786800F096FC56E2D7F8C1
:10358000D830002B00F0DE80D7F8DC3003F00103E8
:10359000002B06D1D7F8E03003F49073002B00F035
:1035A000D180D7F8E43003F00103002B0BD0D7F81B
:1035B000E03003F48073002B05D07B681B6C43F074
:1035C00001027B681A64D7F8E43003F00403002B8F
:1035D0000BD0D7F8DC3003F00103002B05D07B685B
:1035E0001B6C43F002027B681A64D7F8E43003F0E6
:1035F0000203002B0BD0D7F8DC3003F00103002BC3
:1036000005D07B681B6C43F004027B681A64D7F812
:10361000E43003F00803002B11D0D7F8E03003F0BA
:103620002003002B05D1D7F8DC3003F00103002B79
:1036300005D07B681B6C43F008027B681A647B68CA
:103640001B6C002B00F0ED81D7F8E43003F0200371
:10365000002B08D0D7F8E03003F02003002B02D075
:10366000786800F021FC7B681B685B6903F040030D
:10367000402B0CBF01230023DBB2C7F8D4307B689A
:103680001B6C03F00803002B03D1D7F8D430002BB8
:103690004FD0786800F029FB7B681B685B6903F0FA
:1036A0004003402B41D17B681B681433C7F89C3022
:1036B000D7F89C3053E8003FC7F89830D7F89830D7
:1036C00023F04003C7F8D0307B681B681433D7F869
:1036D000D020C7F8A820C7F8A430D7F8A410D7F88E
:1036E000A82041E80023C7F8A030D7F8A030002B6D
:1036F000D9D17B689B6B002B13D07B689B6B7D4A79
:103700001A657B689B6B1846FEF7F2FC0346002B9C
:1037100016D07B689B6B1B6D7A68926B104698473E
:103720000EE0786800F090F90AE0786800F08CF913
:1037300006E0786800F088F97B6800221A6470E17E
:1037400000BF6EE17B681B6B012B40F04A81D7F80C
:10375000E43003F01003002B00F04381D7F8E03091
:1037600003F01003002B00F03C810023BB607B685A
:103770001B681B68BB607B681B685B68BB60BB68C1
:103780007B681B685B6903F04003402B40F0B4800A
:103790007B689B6B1B685B68A7F8BE30B7F8BE30D0
:1037A000002B00F040817B689B8DB7F8BE209A42C9
:1037B00080F039817B68B7F8BE20DA857B689B6B27
:1037C000DB69B3F5807F00F088807B681B680C3371
:1037D000C7F88830D7F8883053E8003FC7F88430FE
:1037E000D7F8843023F48073C7F8B8307B681B683F
:1037F0000C33D7F8B820C7F89420C7F89030D7F822
:103800009010D7F8942041E80023C7F88C30D7F8FF
:103810008C30002BD9D17B681B6814337B677B6F9E
:1038200053E8003F3B673B6F23F00103C7F8B43018
:103830007B681B681433D7F8B420C7F88020FB6777
:10384000F96FD7F8802041E80023BB67BB6F002BDE
:10385000E1D17B681B6814333B663B6E53E8003F45
:10386000FB65FB6D23F04003C7F8B0307B681B6835
:103870001433D7F8B020FA66BB66B96EFA6E41E829
:1038800000237B667B6E002BE3D17B68202283F8CC
:103890003E207B6800221A637B681B680C33FB6444
:1038A000FB6C53E8003FBB64BB6C23F01003C7F80C
:1038B000AC307B681B680C33D7F8AC20BA657B65ED
:1038C000796DBA6D41E800233B653B6D002BE3D178
:1038D0007B689B6B1846FEF79BFB7B689A8D7B6829
:1038E000DB8D9BB2D31A9BB21946786800F0B6F80C
:1038F00099E000BFB13D00087B689A8D7B68DB8D45
:103900009BB2D31AA7F8CE307B68DB8D9BB2002B1D
:1039100000F08B80B7F8CE30002B00F086807B68FB
:103920001B680C33BB63BB6B53E8003F7B637B6B53
:1039300023F49073C7F8C8307B681B680C33D7F842
:10394000C8207A643B64396C7A6C41E80023FB63DD
:10395000FB6B002BE3D17B681B6814337B627B6AB3
:1039600053E8003F3B623B6A23F00103C7F8C430D1
:103970007B681B681433D7F8C4203A63FB62F96A8A
:103980003A6B41E80023BB62BB6A002BE3D17B6842
:10399000202283F83E207B6800221A637B681B6824
:1039A0000C333B613B6953E8003FFB60FB6823F04D
:1039B0001003C7F8C0307B681B680C33D7F8C020F1
:1039C000FA61BB61B969FA6941E800237B617B69EF
:1039D000002BE3D1B7F8CE301946786800F03EF8F6
:1039E00023E0D7F8E43003F08003002B09D0D7F8A8
:1039F000E03003F08003002B03D0786800F0ECF98E
:103A000014E0D7F8E43003F04003002B0ED0D7F8D1
:103A1000E03003F04003002B08D0786800F02CFA67
:103A200004E000BF02E000BF00E000BFE837BD4691
:103A300080BD00BF80B483B000AF786000BF0C379A
:103A4000BD465DF8047B704780B483B000AF7860FA
:103A500000BF0C37BD465DF8047B704780B483B06F
:103A600000AF78600B467B8000BF0C37BD465DF829
:103A7000047B704780B590B000AF78607B689B6B2B
:103A8000FB637B681B681B6803F48073002B37D1D2
:103A9000FB6B0022DA84FB6B1B6814337B627B6A4E
:103AA00053E8003F3B623B6A23F08003BB63FB6B40
:103AB0001B681433BA6B3A63FB62F96A3A6B41E8EC
:103AC0000023BB62BB6A002BE5D1FB6B1B680C3388
:103AD0003B613B6953E8003FFB60FB6843F04003F8
:103AE0007B63FB6B1B680C337A6BFA61BB61B96952
:103AF000FA6941E800237B617B69002BE5D102E094
:103B0000F86B00F0F1FC00BF4037BD4680BD80B5CA
:103B100084B000AF78607B689B6BFB60F868FFF750
:103B200089FF00BF1037BD4680BD80B584B000AFAF
:103B300078600023FB607B689B6BBB60BB681B6885
:103B40005B6903F08003802B0CBF01230023DBB2F1
:103B5000FB60BB6893F83D30DBB2212B08D1FB68DA
:103B6000002B05D0BB680022DA84B86800F095F815
:103B7000BB681B685B6903F04003402B0CBF01234B
:103B80000023DBB2FB60BB6893F83E30DBB2222B34
:103B900008D1FB68002B05D0BB680022DA85B86825
:103BA00000F0A3F8BB681B6C43F01002BB681A64FA
:103BB000B868FFF749FF00BF1037BD4680BD80B52C
:103BC00090B000AFF860B9603B601346FB7150E005
:103BD000BB6CB3F1FF3F4CD0BB6C002B07D0FDF7A3
:103BE000CFFF02463B68D31ABA6C9A4241D2FB68B7
:103BF0001B680C33BB62BB6A53E8003F7B627B6A85
:103C000023F4D073FB63FB681B680C33FA6B7A6395
:103C10003B63396B7A6B41E80023FB62FB6A002B44
:103C2000E5D1FB681B6814337B617B6953E8003F77
:103C30003B613B6923F00103BB63FB681B681433E2
:103C4000BA6B3A62FB61F9693A6A41E80023BB61E9
:103C5000BB69002BE5D1FB68202283F83D20FB687F
:103C6000202283F83E20FB68002283F83C200323B7
:103C70000FE0FB681B681A68BB681340BA689A4279
:103C80000CBF01230023DBB21A46FB799A429FD076
:103C9000002318464037BD4680BD80B489B000AFD0
:103CA00078607B681B680C33FB60FB6853E8003F5F
:103CB000BB60BB6823F0C003FB617B681B680C33EF
:103CC000FA69BA617B617969BA6941E800233B61AD
:103CD0003B69002BE5D17B68202283F83D2000BFA3
:103CE0002437BD465DF8047B704780B495B000AFC3
:103CF00078607B681B680C337B637B6B53E8003F09
:103D00003B633B6B23F49073FB647B681B680C3351
:103D1000FA6C3A64FB63F96B3A6C41E80023BB63CD
:103D2000BB6B002BE5D17B681B6814333B623B6A9D
:103D300053E8003FFB61FB6923F00103BB647B6830
:103D40001B681433BA6CFA62BB62B96AFA6A41E85A
:103D500000237B627B6A002BE5D17B681B6B012B08
:103D600019D17B681B680C33FB60FB6853E8003F8C
:103D7000BB60BB6823F010037B647B681B680C335B
:103D80007A6CBA617B617969BA6941E800233B6169
:103D90003B69002BE5D17B68202283F83E207B68BD
:103DA00000221A6300BF5437BD465DF8047B70479C
:103DB00080B584B000AF78607B689B6BFB60FB686C
:103DC0000022DA85FB680022DA84F868FFF73CFEFF
:103DD00000BF1037BD4680BD80B485B000AF7860AD
:103DE0007B6893F83D30DBB2212B3ED17B689B682A
:103DF000B3F5805F14D17B681B69002B10D17B6801
:103E00001B6AFB60FB681B881A467B681B68C2F351
:103E100008025A607B681B6A9A1C7B681A6208E079
:103E20007B681B6A591C7A6811621A787B681B6868
:103E30005A607B68DB8C9BB2013B9BB27A68194667
:103E4000D184002B0FD17B681B68DA687B681B6804
:103E500022F08002DA607B681B68DA687B681B6886
:103E600042F04002DA60002300E0022318461437D3
:103E7000BD465DF8047B704780B582B000AF7860C6
:103E80007B681B68DA687B681B6822F04002DA6096
:103E90007B68202283F83D20786800F025FB002312
:103EA00018460837BD4680BD80B58CB000AF78603D
:103EB0007B6893F83E30DBB2222B40F0AB807B680E
:103EC0009B68B3F5805F17D17B681B69002B13D10A
:103ED0000023FB627B689B6ABB627B681B685B6834
:103EE0009BB2C3F308039AB2BB6A1A807B689B6AD1
:103EF0009A1C7B689A6226E07B689B6AFB620023BF
:103F0000BB627B689B68B3F5805F07D07B689B686A
:103F1000002B0AD17B681B69002B06D17B681B68CC
:103F20005B68DAB2FB6A1A7008E07B681B685B6842
:103F3000DBB203F07F03DAB2FB6A1A707B689B6A1C
:103F40005A1C7B689A627B68DB8D9BB2013B9BB2FB
:103F50007A681946D185002B5AD17B681B68DA68CC
:103F60007B681B6822F02002DA607B681B68DA68D5
:103F70007B681B6822F48072DA607B681B685A6970
:103F80007B681B6822F001025A617B68202283F85B
:103F90003E207B681B6B012B35D17B6800221A63A6
:103FA0007B681B680C337B617B6953E8003F3B6196
:103FB0003B6923F010037B627B681B680C337A6AD1
:103FC0003A62FB61F9693A6A41E80023BB61BB6967
:103FD000002BE5D17B681B681B6803F01003102BD6
:103FE0000AD10023FB607B681B681B68FB607B6851
:103FF0001B685B68FB60FB687B689B8D1946786873
:10400000FFF72CFD02E0786800F084FA002302E05C
:10401000002300E0022318463037BD4680BD000073
:104020002DE9F04F9FB000AFF866FB6E1B681B696F
:1040300023F44050FB6ED968FB6E1A6840EA010316
:104040001361FB6E9A68FB6E1B691A43FB6E5B691A
:104050001A43FB6EDB6913433B67FB6E1B68DB682F
:1040600023F4164121F00C01FB6E1A683B6F0B43E1
:10407000D360FB6E1B685B6923F44070FB6E99692B
:10408000FB6E1A6840EA01035361FB6E1A68C54B68
:104090009A4204D0FB6E1A68C34B9A4203D1FFF7D1
:1040A000C9F8786702E0FFF7B1F87867FB6EDB6963
:1040B000B3F5004F40F0B6807B6F1C464FF0000513
:1040C00022462B46911839645B417B64D7E9102363
:1040D000121945EB03034FF000004FF00001D90027
:1040E00041EA5271D00002460B46111939666B4104
:1040F0007B66FB6E5B681A464FF000039118B9634C
:104100005B41FB63D7E90E23D7E91801FCF7BCFD3F
:1041100002460B46A54BA3FB02235B091E017B6FE6
:104120001C464FF0000522462B46911839635B412F
:104130007B63D7E90C23121945EB03034FF0000012
:104140004FF00001D90041EA5271D00002460B46FF
:104150001119B9656B41FB65FB6E5B681A464FF040
:1041600000039118B9625B41FB62D7E90A23D7E9E2
:104170001601FCF789FD02460B468C4BA3FB02138C
:104180005B09642101FB03F3D31ADB003233874A56
:10419000A2FB03235B095B0003F4F8731E447B6FEF
:1041A00018464FF0000102460B4694183C625B41F2
:1041B0007B62D7E90823121841EB03034FF0000498
:1041C0004FF00005DD0045EA5275D40022462B462B
:1041D00014183C654B417B65FB6E5B681A464FF0DB
:1041E00000039118B9615B41FB61D7E90623D7E968
:1041F0001401FCF749FD02460B466C4BA3FB02136E
:104200005B09642101FB03F3D31ADB003233674AF5
:10421000A2FB03235B0903F00702FB6E1B68324419
:104220009A60B9E07B6F1C464FF0000522462B4692
:10423000911839615B417B61D7E90423121945EB81
:1042400003034FF000004FF00001D90041EA527122
:10425000D00002460B4612EB040843EB0509FB6E47
:104260005B6818464FF000014FF000024FF000036A
:104270008B0043EA9073820040464946FCF704FDF8
:1042800002460B46494BA3FB02235B091E017B6FD1
:1042900018464FF0000102460B469418BC605B4183
:1042A000FB60D7E90223121841EB03034FF000042F
:1042B0004FF00005DD0045EA5275D40022462B463A
:1042C0001418BC644B41FB64FB6E5B6818464FF0EE
:1042D00000014FF000024FF000038B0043EA90739F
:1042E0008200D7E91201FCF7CFFC02460B462F4BA8
:1042F000A3FB02135B09642101FB03F3D31A1B0127
:1043000032332A4AA2FB03235B0903F0F0031E4465
:104310007B6F18464FF0000102460B4694183C6034
:104320005B417B60D7E90023121841EB03034FF098
:1043300000044FF00005DD0045EA5275D400224626
:104340002B4612EB000A43EB010BFB6E5B68184631
:104350004FF000014FF000024FF000038B0043EAE2
:104360009073820050465946FCF78EFC02460B467D
:104370000E4BA3FB02135B09642101FB03F3D31A69
:104380001B013233094AA2FB03235B0903F00F022E
:10439000FB6E1B6832449A6000BF7C37BD46BDE8A7
:1043A000F08F00BF00100140001401401F85EB5149
:1043B00080B483B000AF78600B46FB707B689B884D
:1043C000B3F5877F01D300231FE07B685B881A4623
:1043D0007B681344FA789A717B685B8801330E4AD4
:1043E00082FB03121A441112DA178A1A4FF48771EA
:1043F00001FB02F29A1A92B27B685A807B689B8812
:1044000001339AB27B689A80012318460C37BD4667
:104410005DF8047B704700BF49D6B9F280B582B021
:1044200000AF78607B68D3F80831124A93420BD111
:104430007B6803F20E317B6893F8DE3A9BB21A4632
:104440000D48FEF7EBFF10E07B68D3F808310B4A0C
:1044500093420AD17B6803F20E317B6893F8DE3A0F
:104460009BB21A460648FEF7D9FF00BF0837BD4683
:1044700080BD00BF0044004070040020004C00409C
:104480002C04002080B584B000AF78607B6893F87E
:10449000DE3A002B20D00023FB730023FB730DE0DA
:1044A000FA7BFB7B79680A4492F8F6167A68134423
:1044B0000A4683F80E23FB7B0133FB737B6893F87A
:1044C000DE3AFA7B9A42EBD37868FFF7A7FF7B6866
:1044D000002283F8DE2A03E07B68012283F80621AC
:1044E00000BF1037BD4680BD80B582B000AF786098
:1044F0007B681A68054B1B689A4202D10448FFF793
:10450000C1FF00BF0837BD4680BD00BF700400205A
:10451000F80F002080B582B000AF78607B681A6821
:10452000064B1B689A4205D1054B1B781946054876
:10453000FFF73EFF00BF0837BD4680BDE8030020FF
:10454000EC1B0020D81A0020014B1868704700BFF0
:104550000C00002070B50D4D0D4C641BA4100026FE
:10456000A64209D10B4D0C4C04F088FD641BA4102D
:104570000026A64205D170BD55F8043B9847013688
:10458000EEE755F8043B98470136F2E78C950008B2
:104590008C9500088C95000890950008024B014608
:1045A000186800F079B800BF0C0000200A4491425E
:1045B00000F1FF3300D1704710B511F8014B03F83B
:1045C000014F9142F9D110BD02440346934200D1FC
:1045D000704703F8011BF9E713B54A4311460192EE
:1045E00000F05AF8044618B1019A0021FFF7ECFFD9
:1045F000204602B010BD000037B5002948D051F860
:10460000043C0190002BA1F10404B8BFE41803F0AE
:1046100023FC204A01981368154633B9636014607F
:1046200003B0BDE8304003F01DBCA3420BD92168A4
:104630006218934204BF1A685B68636004BF521833
:1046400022602C60ECE71A465B680BB1A342FAD9F2
:1046500011685518A5420BD1246821445418A3426F
:104660001160DDD11C685B68536021441160D7E79D
:1046700002D90C230360D3E7256861198B4204BF7C
:1046800019685B68636004BF491921605460C7E71B
:1046900003B030BD00020020F8B5CD1C25F00305A5
:1046A00008350C2D38BF0C25002D064601DBA9422C
:1046B00003D90C2333600020F8BD03F0CDFB214962
:1046C0000A6814469CB9204F3B6823B921463046FE
:1046D00000F02CFF38602946304600F027FF431CCD
:1046E00023D10C233360304603F0BCFBE3E723689F
:1046F0005B1B17D40B2B03D923601C44256004E0FB
:104700006368A2420CBF0B605360304603F0AAFB03
:1047100004F10B00231D20F00700C21ACCD01B1A95
:10472000A350C9E722466468CCE7C41C24F0030404
:10473000A042E3D0211A304600F0F8FE0130DDD16E
:10474000CFE700BF00020020040200202DE9FF4750
:1047500055EC104B002D0E4619462B46BBBF05F1FC
:1047600000431D4600232D230B700D9BDDF830A068
:10477000914623F02008BCBF22461446B8F1460FEC
:1047800005D0B8F1450F00D10136022100E0032128
:1047900003AB019302AB009345EC104B53463246FA
:1047A00001F0CAFFB8F1470F074602D119F0010F17
:1047B00022D0B8F1460F07EB060910D13B78302B19
:1047C0000AD10022002320462946FCF77DF918B9BA
:1047D000C6F10106CAF80060DAF8003099440022F8
:1047E000002320462946FCF76FF908B1CDF80C905C
:1047F0003022039B4B4507D3039B0E9ADB1B3846A5
:10480000136004B0BDE8F087591C03911A70F0E7FB
:10481000F7B503460029B8BF494203F8022BB4BFDD
:104820002D222B22092942702ADD0DF10704A4460E
:104830000A27A6460A4691FBF7F607FB1615303500
:10484000632A04F1FF340EF8015C3146F1DC3031AB
:10485000AEF1020504F8011C441C294661450AD347
:104860000DF10902A2EB0E02654588BF0022134438
:10487000181A03B0F0BD11F8012B04F8012FEDE771
:10488000302330318370C170031DF1E72DE9F04F03
:104890002DED028B8DB00C46DDF8608016461F466C
:1048A000054603F05BFAD0F800A05046FBF790FCF9
:1048B00000230A9323680593D8F8003094F818B0C1
:1048C000073323F0070303F10802C8F80020D3E9F7
:1048D0000023C4E91223D4E9128929F00043079385
:1048E000CDF8188008EE100A9F4BDDE906014FF065
:1048F000FF32FCF71BF988BBDDE906019A4B4FF04C
:10490000FF32FCF7F5F848BB002200234046494639
:10491000FCF7E4F810B12D2384F84330934B94480E
:10492000BBF1470F94BF9846804603232361059B44
:1049300023F0040222604FF00009009733460BAACF
:104940002146284600F0D8F9013040F090804FF021
:10495000FF300DB0BDEC028BBDE8F08F42464B46F8
:1049600040464946FCF7E2F840B14B46002BBCBF3D
:104970002D2384F843307F487F4BD1E763680BF0E9
:10498000DF0206925A1C3FD106236360059B6168D3
:1049900043F48062002303930AABCDE901B309AB72
:1049A00049EC108B009322600DF123032846FFF79A
:1049B000CDFE069B0999472B804608D1C81C02DB17
:1049C0006368994241DDABF1020B5FFA8BFBBBF1EF
:1049D000650F20D801395A4604F150000991FFF7BC
:1049E00017FF0A9A1318012A8146236102DC226804
:1049F000D20701D5013323619DF82330002B9CD0D1
:104A00002D2384F8433098E7069A472ABED1002B1D
:104A1000BCD10123B9E7BBF1660F18D10029636847
:104A20000BDD216113B92268D00702D501330B4495
:104A30002361A1654FF00009DEE713B92268D207B0
:104A400001D50233F4E70123F2E74FF0670B0A9B2D
:104A5000994205DB23682161D807EAD54B1CE7E7BB
:104A60000029D4BFC1F1020201221344E0E7236808
:104A70005A0507D42369424631462846B8470130D3
:104A80002CD164E7BBF1650F40F2E080D4E912015C
:104A900000220023FCF718F8002834D0374A0123FD
:104AA00031462846B84701303FF451AFDDE90923CC
:104AB0009A4202DB2368D80710D518EE103A524606
:104AC00031462846B84701303FF441AF4FF0000867
:104AD00004F11A090A9B013B434509DC23689B0743
:104AE00000F10581E0680B9B9842B8BF184630E79B
:104AF00001234A4631462846B84701303FF427AFE4
:104B000008F10108E6E7099B002B39DC1B4A012369
:104B100031462846B84701303FF419AFDDE9092393
:104B2000134302D12368D907D8D518EE103A52465C
:104B300031462846B84701303FF409AF4FF000092D
:104B400004F11A0A099B5B424B4501DC0A9B92E780
:104B50000123524631462846B84701303FF4F7AEAC
:104B600009F10109EEE700BFFFFFEF7FD4900008D5
:104B7000D8900008E0900008DC900008E49000085D
:104B80000A9AA36D9A42A8BF1A46002A914637DCBA
:104B90004FF0000B29EAE97904F11A02A36D05939D
:104BA000A3EB09035B4533DCDDE909239A423BDBD8
:104BB0002368DA0738D40A9A059B0999D31AA2EB1D
:104BC00001099945A8BF9946B9F1000F35DC4FF0AE
:104BD000000829EAE97904F11A0ADDE909239B1A98
:104BE000A3EB090343457FF779AF012352463146D2
:104BF0002846B84701303FF4AAAE08F10108ECE7B7
:104C00001346314642462846B8470130C0D19EE699
:104C10000123314628460592B84701303FF497AE4C
:104C2000059A0BF1010BB9E718EE103A52463146DE
:104C30002846B8470130BED189E6059A4B46424422
:104C400031462846B8470130C1D180E60A9A012A88
:104C500001DCDB0738D50123424631462846B847F8
:104C600001303FF474AE18EE103A524631462846F1
:104C7000B84701303FF46BAED4E9120100220023A3
:104C8000FBF722FFD8B90A9B08F10102013B31462C
:104C90002846B84701300ED159E601235246314625
:104CA0002846B84701303FF452AE08F101080A9B8C
:104CB000013B4345F1DC4B4604F15002DCE64FF08A
:104CC000000804F11A0AF2E701234246DFE7012354
:104CD0004A4631462846B84701303FF438AE08F11D
:104CE0000108E3680B995B1A4345F0DCFAE64FF0E4
:104CF000000804F11909F4E72DE9F0471646994632
:104D00008A680B69DDF820809342B8BF1346336090
:104D100091F8432007460C460AB1013333602368FB
:104D2000990642BF336802333360256815F00605E3
:104D300006D104F1190AE36832689B1AAB4226DCFB
:104D400094F84320131E226818BF012392062BD427
:104D500004F1430249463846C04701301ED023685B
:104D6000E568326803F00603042B08BFAD1AA36898
:104D700022690CBF25EAE57500259342C4BF9B1A42
:104D8000ED1800261A34B5421AD1002008E001239C
:104D9000524649463846C047013003D14FF0FF30F4
:104DA000BDE8F0870135C6E7E1185A1C302081F8CC
:104DB0004300224494F8451082F843100233C7E7B9
:104DC0000123224649463846C0470130E6D0013625
:104DD000D9E700002DE9FF470C469146277E0C9944
:104DE000782F80469A4604F1430207D8622F0AD8EA
:104DF000002F00F0D880582F00F0A38004F1420665
:104E000084F842703AE0A7F16303152BF6D801A0AD
:104E100050F823F06D4E0008814E0008FD4D00084B
:104E2000FD4D0008FD4D0008FD4D0008814E0008B5
:104E3000FD4D0008FD4D0008FD4D0008FD4D00082A
:104E40008D4F0008B14E00086F4F0008FD4D00085F
:104E5000FD4D0008AF4F0008FD4D0008B14E0008A1
:104E6000FD4D0008FD4D0008774F00080B681A1D26
:104E70001B680A6004F1420684F842300123A3E073
:104E8000256808682E0600F104030AD505680B6042
:104E9000002D03DA2D236D4284F843305E480A2347
:104EA00019E015F0400F05680B6018BF2DB2EFE751
:104EB0000B682568181D0860280601D51D6802E0EA
:104EC0006906FBD51D8854486F2F0CBF08230A23A1
:104ED000002184F843106668A660002EA2BF2168F6
:104EE00021F0040121600DB9002E4DD01646B5FB0E
:104EF000F3F103FB1157C75D06F8017D2F46BB4256
:104F00000D46F4D9082B0BD12368DF0708D5236998
:104F100061689942DEBF302306F8013C06F1FF3696
:104F2000921B2261CDF800A04B4603AA21464046C1
:104F3000FFF7E2FE01304CD14FF0FF3004B0BDE886
:104F4000F087354884F8457023680E681F0656F8C8
:104F5000045B0E6014D5D90744BF43F020032360DF
:104F60001DB9236823F0200323601023B0E72368D2
:104F700043F0200323607823284884F84530E3E792
:104F80005E0648BFADB2E6E71646BBE70B6826688B
:104F900060691D1D0D6035061B6801D5186002E0B3
:104FA0007106FBD51880002323611646BAE70B680B
:104FB0001A1D0A601E68626800213046FBF710F96E
:104FC00008B1801B606063682361002384F843306C
:104FD000A8E72369324649464046D0470130ABD066
:104FE00023689B0713D4E068039B9842B8BF184618
:104FF000A4E70123324649464046D04701309BD0C2
:105000000135E36803995B1AAB42F2DCEBE700255C
:1050100004F11906F5E700BFE6900008F7900008D4
:105020002DE9F04F87B0174603938B685A1EB2F5EF
:10503000AE7F83BF6FF4AE755B190293002386BF0A
:1050400040F25D138B6002930B688B46002543F49E
:10505000F0634BF81C3BCDE9045580460C465E4698
:10506000AA46A9460195A26852B13B681B784E2B0F
:1050700064D8402B3CD8A3F12B01C8B20E283AD9F2
:10508000B9F1000F03D0236823F4807323600AF181
:10509000FF3ABAF1010F00F213815E4500F205817B
:1050A0000125284607B0BDE8F08FA3F161020D2A63
:1050B000E6D801A151F822F0F7510008815000080C
:1050C0008150000881500008575200082F520008F4
:1050D00081500008815000080552000881500008E6
:1050E000815000088150000881500008BD5100081F
:1050F000A3F14102DBE70E29C2D801A050F821F04C
:10510000AF51000881500008AF5100084352000819
:10511000815000085D51000899510008995100081C
:1051200099510008995100089951000899510008B7
:105130009951000899510008995100086E2B09D81F
:10514000602BB2D8542B77D0592B99D1072D97D1FA
:10515000082529E0742B6FD0792BF6E72168C80564
:105160001AD5029B21F08001216009F101091BB1D0
:10517000013B01320293A260A368013BA360236953
:10518000013323617B68013B002B7B6040F384800B
:105190003B6801333B6066E71AEB050F7FF470AFA5
:1051A000226822F4C072226006F8013BE4E722681C
:1051B00010067FF565AF22F08002F4E7BAF1000F28
:1051C0000ED1B9F1000F0ED1226802F4E061B1F501
:1051D000E06F08D122F4F06222604FF0010AE3E7A9
:1051E000BAF1020F55D0012D02D0042D7FF448AF43
:1051F0000135EDB2D8E7BAF1010F7FF441AF4FF0BE
:10520000020AD1E77DB9B9F1000F7FF43CAF226803
:1052100002F4E061B1F5E06F7FF439AF22F4F0629F
:1052200022600125C0E7032DE2D0052DDEE7022D27
:105230007FF426AF0325B7E7062D7FF421AF0725BE
:10524000B2E7226891057FF51BAF22F4207222603D
:10525000CDF80490A8E7226802F4A061B1F5806F50
:1052600006D050057FF50CAFB9F1000F3FF40FAF3A
:10527000910558BF019922F4F06258BFA9EB0101D2
:1052800042F4C07258BFCDE9041622604FF0000905
:105290008AE74FF0030A87E7D4F880313946404661
:1052A000984700283FF4DFAEEAE6D4F87C3116F8E0
:1052B000011D3A46404698472369013B2361ECE6CD
:1052C0006B1E062B25D8022D36D85E457FF6E8AE3C
:1052D000D4F87C3116F8011D3A46404698472369B8
:1052E000013B2361F1E70298D4F87C3110F8011DED
:1052F00002903A46404698472369013B23610AF1F0
:10530000FF3A5FFA8AFABAF1020FECD1033DEDB22F
:10531000761B2368DA052FD55B0510D55E457FF631
:10532000BFAED4F87C3116F8011D3A464046984786
:105330002369013B2361F1E7AA460296DFE716F8ED
:10534000011C2369652903F1FF3306F1FF35236151
:105350000CD045290AD0D4F87C313A4640469847CB
:10536000236916F8021C013BB51E2361D4F87C3179
:105370003A46404698472E46256815F0100558D104
:105380003570236803F4C063B3F5806F1CD1019BB3
:105390004B45A3EB090224D100225946404600F0B8
:1053A000F1FF039B21681B6811F0020F57EC106B93
:1053B00003F1040220D003990A601B68C3E9006767
:1053C000E3680133E3606CE6049B002BE4D00599AD
:1053D0000A232A460131404601F05EF8049B059EEF
:1053E000C21A04F26F139E4228BF04F5B776124921
:1053F000304600F07FF9CFE711F0040F03990A60FF
:10540000DBD1D3F8008010EE102A10EE100A3B46D4
:105410003946FBF78BFB28B1084800F065F988EDA9
:10542000000ACDE730463946FBF7DEFBC8F800003E
:10543000C6E7002535E600BF089100088095000802
:1054400070B50E46054618B183690BB902F07AF8BB
:10545000AB69AC6813B9284602F074F82C4B9C4237
:1054600020D16C68636EDB0705D4A389980502D44C
:10547000A06D02F078FCA38919071DD52369DBB163
:10548000013EA36816F8011F013BA36039BB002B46
:1054900038DA22460A21284601F000F8013011D0FE
:1054A0000A2511E01B4B9C4201D1AC68DAE71A4B8C
:1054B0009C4208BFEC68D5E72146284601F040F839
:1054C0000028DDD04FF0FF35636EDA0705D4A389DD
:1054D0009B0502D4A06D02F047FC284670BD002B4E
:1054E00004DAA2699A4206DC0A2904D023685A1C0D
:1054F00022601970C5E72246284600F0CFFF013030
:10550000BFD1DFE723680A255A1C22601D70DBE744
:105510001893000838930008F8920008024B0146DF
:105520001868FFF78DBF00BF0C00002038B5064D8E
:105530000023044608462B60FCF74AFA431C02D1BC
:105540002B6803B1236038BDF81B002000294FF4FD
:1055500080630CBF0222002200F000B82DE9F7435F
:105560001D465D4B1F6804460E46904627B1BB6939
:1055700013B9384601F0E6FF584B9C4267D17C686E
:10558000B8F1020F06D0B8F1010F00F29F80002D94
:10559000C0F29C80636EDB0705D4A389980502D412
:1055A000A06D02F0E0FB2146384601F037FF616B49
:1055B00041B104F14403994202D03846FFF71CF888
:1055C000002363630023A3616360A389190603D5E5
:1055D00021693846FFF710F8A38923F44A6323F0C2
:1055E0000303B8F1020FA3816CD001AB6A462146D8
:1055F000384602F0BAFBA3891843A081002D30D1B0
:10560000009D2846FEF7CAFF0646002855D1DDF862
:105610000090A9454AD14FF0FF350022A26004F165
:105620004702226022610122B4F90C306261626E8D
:1056300043F00203D207A38105D413F4007F02D103
:10564000A06D02F091FB284603B0BDE8F083244B27
:105650009C4201D1BC6893E7224B9C4208BFFC6886
:105660008EE7002ECDD0BB6913B9384601F06AFF32
:10567000B8F1010F08BFA389266004BF43F00103FE
:10568000A381A28912F00803C4E904651CD0D307E2
:1056900041BF00236D42A360A56158BFA560656E40
:1056A00015F0010515D112F4007FC8E74846FEF752
:1056B00075FF06460028AED04D46A38943F080030F
:1056C000A381D0E70025A8E7A360E8E74FF0FF3506
:1056D000B9E70025B7E700BF0C00002018930008C9
:1056E00038930008F89200089FED010A704700BF48
:1056F0000000C07F0EB400B59CB01DAB02900690B8
:105700006FF00041094807910491094953F8042BAF
:1057100005910068019302A903F0C0F8029B0022E2
:105720001A701CB05DF804EB03B070470C00002049
:105730000802FFFF70B504460D4645EC104B1646B7
:1057400002F002FF51EC100B7EB1C5F30A53C3F116
:105750006B03002B09DD1B0503F17F55002405F5C4
:10576000401522462B46FAF747FF70BD00000000A7
:105770002DE9F04FA3B01F4600231E93A44B1992AE
:105780001B680793044618468846FAF721FD4FF038
:10579000000A05464FF0000BCDF874801D9B1A7867
:1057A0002B2A4CD039D80D2A32D8082A32D8002AD0
:1057B0003CD000230E931D9E3378302B40F0B480F4
:1057C000737803F0DF03582B6CD10E9B01931EAB53
:1057D000029700938F4A1FAB1DA9204601F0B6FF28
:1057E00010F00707054605D0062F2AD10136002301
:1057F0001D960E93199B002B40F096850E9BDBB1F6
:1058000052460BF1004343EC102B23B0BDE8F08F60
:10581000202ACED101331D93C0E72D2AC9D1012200
:105820000E925A1C1D925B78002BC4D1199BCDF8A7
:105830007480002B40F0768552465B46E3E70022F9
:10584000EEE71E9A3AB1352120A802F088FF1E9992
:10585000204602F04DFB013F052F07D8DFE807F097
:105860000E0B181D0E034FF0000BDA462807C1D5AA
:105870004BF0004BBEE7DDE920ABF7E7DDE920A305
:105880001F9A23F4801302F2334243EA025BEDE7EE
:10589000DFF884B14FF0000AE8E76FF0004B4FF0FB
:1058A000FF3AE3E71D9B5A1C1D925B78302BF9D021
:1058B000002B9FD001234FF0000904931D9B0A93F6
:1058C000CDF824904F460A221D980678A6F13003A1
:1058D000D9B209292AD907992A4603F084FA98B33C
:1058E000002033463D4607900246652B01D0452BEC
:1058F00018D11DB9049B034398D00025DDF87480AE
:1059000008F101031D9398F801302B2B75D02D2B36
:105910007BD04FF0000CA3F13001092940F28280C6
:10592000CDF8748000269DE00023C4E7082FD8BF7F
:10593000099900F10100DABF02FB0133099302FB70
:10594000093901371D90BFE71D9B5A191D925B5DF8
:10595000002F37D007903D46A3F13002092A12D913
:105960000122C2E71D9B5A1C1D925B780130302B2F
:10597000F8D0A3F13102082A00F2DB841D9A0790C7
:1059800000200A920546303B00F1010214D007992D
:10599000114407912A4600EB050E0A21724513D1E6
:1059A0002A18082A05F1010505441CDC09990A2278
:1059B00002FB0133099300221D9B591C1D915B784A
:1059C0001046C9E73846D2E7082A04DC099E4E4350
:1059D00009960132E2E702F1010CBCF1100FD8BFC9
:1059E00001FB09F9F5E7102DDCBF0A2202FB09399A
:1059F000E1E70023079301227CE74FF0000C08F158
:105A000002031D9398F8023085E74FF0010CF6E78A
:105A1000C4930008109100080000F07F1D9B591CE2
:105A20001D915B78302BF9D0A3F1310108293FF6A5
:105A300079AFA3F1300E1D9B08931D9B591C1D913E
:105A40005B78A3F13006092E37D9089E891B0829F7
:105A500044F61F6602DC7645A8BF7646BCF1000F0F
:105A600000D07642002D4FD1049901437FF4C2AE9D
:105A7000002A7FF4DBAE692B27D024DC492B24D00D
:105A80004E2B7FF4D3AE9E491DA802F0B7F8002834
:105A90003FF4CCAE1D9B1B78282B2DD1994920AA11
:105AA0001DA802F0BFF8052826D1219BDDF880A0B3
:105AB00043F0FF4B4BF4E00B9CE60A2101FB0E3E4A
:105AC000AEF1300EB9E76E2BDBE78F491DA802F06F
:105AD00095F800283FF4AAAE1D9B8C49013B1DA8F8
