:020000040800F2
:1000000000000220591B0008D9180008DF1800085A
:10001000E5180008EB180008F118000800000000BF
:10002000000000000000000000000000F7180008B9
:100030000519000800000000131900082119000824
:10004000A91B0008A91B0008A91B0008A91B000880
:10005000A91B0008A91B0008A91B0008A91B000870
:10006000A91B0008A91B0008A91B0008A91B000860
:10007000A91B00082D190008A91B00084119000838
:100080005519000869190008A91B0008A91B0008D8
:10009000A91B0008A91B0008A91B0008A91B000830
:1000A000A91B0008A91B0008A91B0008A91B000820
:1000B000A91B0008A91B0008A91B0008A91B000810
:1000C000A91B0008A91B0008A91B0008A91B000800
:1000D000A91B00087D19000891190008A91B000838
:1000E000A91B0008A91B0008A91B0008A91B0008E0
:1000F000A91B0008A91B0008A91B0008A91B0008D0
:10010000A91B0008A91B0008A91B0008A91B0008BF
:10011000A5190008A91B0008A91B0008A91B0008B5
:10012000A91B0008A91B0008B9190008A91B000891
:10013000A91B00080000000000000000A91B000827
:10014000A91B0008A91B0008A91B0008A91B00087F
:10015000A91B0008A91B0008CD190008A91B00084D
:10016000A91B0008A91B0008A91B0008A91B00085F
:10017000A91B0008A91B00080000000000000000E7
:08018000A91B0008A91B0008DF
:1001900010B5054C237833B9044B13B10448AFF3C1
:1001A00000800123237010BDE0010020000000004A
:1001B0003CAC000808B5034B1BB103490348AFF33F
:1001C000008008BD00000000E40100203CAC0008F5
:1001D000034613F8012B002AFBD1181A0138704787
:1001E00001F0FF01102A2BDB10F0070F08D010F8E8
:1001F000013B013A8B422DD010F0070F42B3F6D1EC
:10020000F0B441EA012141EA014122F007047FF004
:1002100000070023F0E80256083C85EA010586EA5B
:10022000010685FA47F5A3FA87F586FA47F6A5FA97
:1002300087F68EB9EED1F0BC01F0FF0102F00702A3
:1002400032B110F8013B013A83EA010313B1F8D14E
:100250000020704701387047002D06BF354603382F
:10026000073815F0010F07D1013015F4807F02BF68
:10027000013015F4C03F0130F0BC0138704700BFB9
:1002800081F0004102E000BF83F0004330B54FEA47
:1002900041044FEA430594EA050F08BF90EA020FB4
:1002A0001FBF54EA000C55EA020C7FEA645C7FEA47
:1002B000655C00F0E2804FEA5454D4EB5555B8BF6A
:1002C0006D420CDD2C4480EA020281EA030382EADB
:1002D000000083EA010180EA020281EA0303362D6D
:1002E00088BF30BD11F0004F4FEA01314FF4801C40
:1002F0004CEA113102D0404261EB410113F0004F52
:100300004FEA03334CEA133302D0524263EB430308
:1003100094EA050F00F0A780A4F10104D5F1200EA6
:100320000DDB02FA0EFC22FA05F2801841F1000101
:1003300003FA0EF2801843FA05F359410EE0A5F1D5
:1003400020050EF1200E012A03FA0EFC28BF4CF006
:10035000020C43FA05F3C01851EBE37101F00045BC
:1003600007D54FF0000EDCF1000C7EEB00006EEBC9
:100370000101B1F5801F1BD3B1F5001F0CD3490853
:100380005FEA30004FEA3C0C04F101044FEA4452AA
:1003900012F5800F80F09A80BCF1004F08BF5FEA31
:1003A000500C50F1000041EB045141EA050130BD11
:1003B0005FEA4C0C404141EB0101013C28BFB1F523
:1003C000801FE9D291F0000F04BF01460020B1FA6E
:1003D00081F308BF2033A3F10B03B3F120020CDA41
:1003E0000C3208DD02F1140CC2F10C0201FA0CF01F
:1003F00021FA02F10CE002F11402D8BFC2F1200C84
:1004000001FA02F120FA0CFCDCBF41EA0C01904039
:10041000E41AA2BF01EB0451294330BD6FEA040482
:100420001F3C1CDA0C340EDC04F11404C4F120026D
:1004300020FA04F001FA02F340EA030021FA04F37F
:1004400045EA030130BDC4F10C04C4F1200220FAD6
:1004500002F001FA04F340EA0300294630BD21FA14
:1004600004F0294630BD94F0000F83F4801306BFDA
:1004700081F480110134013D4EE77FEA645C18BFCE
:100480007FEA655C29D094EA050F08BF90EA020F65
:1004900005D054EA000C04BF1946104630BD91EA5D
:1004A000030F1EBF0021002030BD5FEA545C05D160
:1004B0004000494128BF41F0004130BD14F580049F
:1004C0003CBF01F5801130BD01F0004545F0FE4113
:1004D00041F470014FF0000030BD7FEA645C1ABF48
:1004E000194610467FEA655C1CBF0B46024650EA7F
:1004F000013406BF52EA033591EA030F41F40021AB
:1005000030BD00BF90F0000F04BF0021704730B530
:100510004FF4806404F132044FF000054FF0000105
:1005200050E700BF90F0000F04BF0021704730B5C6
:100530004FF4806404F1320410F0004548BF40429B
:100540004FF000013EE700BF42004FEAE2014FEAF0
:1005500031014FEA02701FBF12F07F4393F07F4FCB
:1005600081F06051704732F07F4208BF704793F0CE
:100570007F4F04BF41F40021704730B54FF46074E1
:1005800001F0004521F000411CE700BF50EA0102E4
:1005900008BF704730B54FF000050AE050EA01028D
:1005A00008BF704730B511F0004502D5404261EBFD
:1005B00041014FF4806404F132045FEA915C3FF43E
:1005C000D8AE4FF003025FEADC0C18BF03325FEADB
:1005D000DC0C18BF033202EBDC02C2F1200300FA8C
:1005E00003FC20FA02F001FA03FE40EA0E0021FAB1
:1005F00002F11444BDE600BF70B54FF0FF0C4CF49F
:10060000E06C1CEA11541DBF1CEA135594EA0C0F50
:1006100095EA0C0F00F0DEF82C4481EA030621EA8B
:100620004C5123EA4C5350EA013518BF52EA0335C6
:1006300041F4801143F4801338D0A0FB02CE4FF078
:100640000005E1FB02E506F00042E0FB03E54FF0A8
:100650000006E1FB03569CF0000F18BF4EF0010EA0
:10066000A4F1FF04B6F5007F64F5407404D25FEA9C
:100670004E0E6D4146EB060642EAC62141EA55514F
:100680004FEAC52040EA5E504FEACE2EB4F1FD0C91
:1006900088BFBCF5E06F1ED8BEF1004F08BF5FEA0F
:1006A000500E50F1000041EB045170BD06F00046C1
:1006B00046EA010140EA020081EA0301B4EB5C046E
:1006C000C2BFD4EB0C0541EA045170BD41F4801166
:1006D0004FF0000E013C00F3AB8014F1360FDEBF8B
:1006E000002001F0004170BDC4F10004203C35DA67
:1006F0000C341BDC04F11404C4F1200500FA05F3EA
:1007000020FA04F001FA05F240EA020001F000428A
:1007100021F0004110EBD37021FA04F642EB060100
:100720005EEA430E08BF20EAD37070BDC4F10C042A
:10073000C4F1200500FA04F320FA05F001FA04F2EE
:1007400040EA020001F0004110EBD37041F10001DA
:100750005EEA430E08BF20EAD37070BDC4F12005E5
:1007600000FA05F24EEA020E20FA04F301FA05F24D
:1007700043EA020321FA04F001F0004121FA04F2F5
:1007800020EA020000EBD3705EEA430E08BF20EAC5
:10079000D37070BD94F0000F0FD101F000464000FF
:1007A00041EB010111F4801F08BF013CF7D041EA81
:1007B000060195F0000F18BF704703F00046520085
:1007C00043EB030313F4801F08BF013DF7D043EA56
:1007D0000603704794EA0C0F0CEA135518BF95EA0C
:1007E0000C0F0CD050EA410618BF52EA4306D1D193
:1007F00081EA030101F000414FF0000070BD50EAB2
:10080000410606BF1046194652EA430619D094EA3B
:100810000C0F02D150EA013613D195EA0C0F05D125
:1008200052EA03361CBF104619460AD181EA030179
:1008300001F0004141F0FE4141F470014FF0000031
:1008400070BD41F0FE4141F4780170BD70B54FF0CC
:10085000FF0C4CF4E06C1CEA11541DBF1CEA13554C
:1008600094EA0C0F95EA0C0F00F0A7F8A4EB05042E
:1008700081EA030E52EA03354FEA013100F0888025
:100880004FEA03334FF0805545EA131343EA1263EE
:100890004FEA022245EA111545EA10654FEA0026A3
:1008A0000EF000419D4208BF964244F1FD0404F55C
:1008B000407402D25B084FEA3202B61A65EB0305B8
:1008C0005B084FEA32024FF480104FF4002CB6EB75
:1008D000020E75EB030E22BFB61A754640EA0C00F5
:1008E0005B084FEA3202B6EB020E75EB030E22BF35
:1008F000B61A754640EA5C005B084FEA3202B6EB76
:10090000020E75EB030E22BFB61A754640EA9C0034
:100910005B084FEA3202B6EB020E75EB030E22BF04
:10092000B61A754640EADC0055EA060E18D04FEAC2
:10093000051545EA16754FEA06164FEAC30343EA62
:1009400052734FEAC2025FEA1C1CC0D111F4801F2F
:100950000BD141EA00014FF000004FF0004CB6E728
:1009600011F4801F04BF01430020B4F1FD0C88BFC7
:10097000BCF5E06F3FF6AFAEB5EB030C04BFB6EBD2
:10098000020C5FEA500C50F1000041EB045170BDC5
:100990000EF0004E4EEA113114EB5C04C2BFD4EBF2
:1009A0000C0541EA045170BD41F480114FF0000E76
:1009B000013C90E645EA060E8DE60CEA135594EAF2
:1009C0000C0F08BF95EA0C0F3FF43BAF94EA0C0FF5
:1009D0000AD150EA01347FF434AF95EA0C0F7FF46A
:1009E00025AF104619462CE795EA0C0F06D152EABE
:1009F00003353FF4FDAE1046194622E750EA4106A2
:100A000018BF52EA43067FF4C5AE50EA41047FF4B2
:100A10000DAF52EA43057FF4EBAE12E74FF0FF3C17
:100A200006E000BF4FF0010C02E000BF4FF0010CE8
:100A30004DF804CD4FEA410C7FEA6C5C4FEA430C61
:100A400018BF7FEA6C5C1BD001B050EA410C0CBFB0
:100A500052EA430C91EA030F02BF90EA020F002012
:100A6000704710F1000F91EA030F58BF994208BF79
:100A700090422CBFD8176FEAE37040F00100704736
:100A80004FEA410C7FEA6C5C02D150EA013C07D18D
:100A90004FEA430C7FEA6C5CD6D152EA033CD3D0D8
:100AA0005DF8040B704700BF8446104662468C46D2
:100AB0001946634600E000BF01B5FFF7B7FF002805
:100AC00048BF10F1000F01BD4DF808EDFFF7F4FF2E
:100AD0000CBF012000205DF808FB00BF4DF808EDB9
:100AE000FFF7EAFF34BF012000205DF808FB00BFDC
:100AF0004DF808EDFFF7E0FF94BF012000205DF8FE
:100B000008FB00BF4DF808EDFFF7CEFF94BF0120B2
:100B100000205DF808FB00BF4DF808EDFFF7C4FFAB
:100B200034BF012000205DF808FB00BF4FEA410CF4
:100B30007FEA6C5C02D150EA013C0AD14FEA430CD7
:100B40007FEA6C5C02D152EA033C02D14FF0000014
:100B500070474FF0010070474FEA410212F5001252
:100B600015D211D56FF47873B3EB625212D94FEAF4
:100B7000C12343F0004343EA505311F0004F23FADE
:100B800002F018BF404270474FF00000704750EA33
:100B9000013005D111F0004008BF6FF000407047F0
:100BA0004FF00000704700BF4A0011D212F500124A
:100BB00011D20DD56FF47873B3EB62520ED44FEAB5
:100BC000C12343F0004343EA505323FA02F0704735
:100BD0004FF00000704750EA013002D14FF0FF3073
:100BE00070474FF0000070474FEA4102B2F1E04316
:100BF00024BFB3F5001CDCF1FE5C0DD901F0004C04
:100C00004FEAC0024CEA5070B2F1004F40EB830053
:100C100008BF20F00100704711F0804F21D113F17F
:100C20003872BCBF01F00040704741F480114FEAB8
:100C30005252C2F11802C2F1200C10FA0CF320FA41
:100C400002F018BF40F001004FEAC1234FEAD3235E
:100C500003FA0CFC40EA0C0023FA02F34FEA4303C8
:100C6000CCE77FEA625307D150EA01331EBF4FF051
:100C7000FE4040F44000704701F0004040F0FE406C
:100C800040F40000704700BF53B94AB9002908BFBB
:100C900000281CBF4FF0FF314FF0FF3000F0AAB921
:100CA000ADF1080C6DE904CE00F03CF8DDF804E08D
:100CB000DDE9022304B0704738B500220023044662
:100CC0000D46FFF70BFF28B920462946BDE83840FE
:100CD00000F00AB8204605F1004100F005F8404256
:100CE00061EB410138BD00BFD0B50C4B0022064678
:100CF0000F46FFF781FCFFF757FF0446FFF702FCA2
:100D0000074B0022FFF778FC02460B463046394677
:100D1000FFF7BAFAFFF748FF2146D0BD0000F03DCB
:100D20000000F0412DE9F047089D04468E46002B57
:100D30004DD18A42944669D9B2FA82F252B101FA8F
:100D400002F3C2F1200120FA01F10CFA02FC41EA9F
:100D5000030E94404FEA1C48210CBEFBF8F61FFA24
:100D60008CF708FB16E341EA034306FB07F19942BF
:100D70000AD91CEB030306F1FF3080F01F81994272
:100D800040F21C81023E63445B1AA4B2B3FBF8F04C
:100D900008FB103344EA034400FB07F7A7420AD9D3
:100DA0001CEB040400F1FF3380F00A81A74240F2FB
:100DB00007816444023840EA0640E41B00261DB166
:100DC000D4400023C5E900433146BDE8F0878B429B
:100DD00009D9002D00F0EF800026C5E9000130465A
:100DE0003146BDE8F087B3FA83F6002E4AD18B4234
:100DF00002D3824200F2F980841A61EB03030120DE
:100E00009E46002DE0D0C5E9004EDDE702B9FFDEC9
:100E1000B2FA82F2002A40F09280A1EB0C014FEA74
:100E20001C471FFA8CFE0126200CB1FBF7F307FBD1
:100E3000131140EA01410EFB03F0884208D91CEB74
:100E4000010103F1FF3802D2884200F2CB80434611
:100E5000091AA4B2B1FBF7F007FB101144EA0144F0
:100E60000EFB00FEA64508D91CEB040400F1FF317F
:100E700002D2A64500F2BB800846A4EB0E0440EA6D
:100E800003409CE7C6F12007B34022FA07FC4CEA76
:100E9000030C20FA07F401FA06F31C43F9404FEA69
:100EA0001C4900FA06F3B1FBF9F8200C1FFA8CFE7E
:100EB00009FB181140EA014108FB0EF0884202FAD2
:100EC00006F20BD91CEB010108F1FF3A80F0888093
:100ED000884240F28580A8F102086144091AA4B250
:100EE000B1FBF9F009FB101144EA014100FB0EFED1
:100EF0008E4508D91CEB010100F1FF346CD28E4500
:100F00006AD90238614440EA0840A0FB0294A1EB90
:100F10000E01A142C846A64656D353D05DB1B3EBED
:100F2000080261EB0E0101FA07F722FA06F3F1401D
:100F30001F43C5E9007100263146BDE8F087C2F1C4
:100F40002003D8400CFA02FC21FA03F3914001433C
:100F50004FEA1C471FFA8CFEB3FBF7F007FB103675
:100F60000B0C43EA064300FB0EF69E4204FA02F421
:100F700008D91CEB030300F1FF382FD29E422DD974
:100F8000023863449B1B89B2B3FBF7F607FB1633A9
:100F900041EA034106FB0EF38B4208D91CEB010129
:100FA00006F1FF3816D28B4214D9023E6144C91AA9
:100FB00046EA004638E72E46284605E70646E3E6B9
:100FC0001846F8E64B45A9D2B9EB020864EB0C0EC3
:100FD0000138A3E74646EAE7204694E74046D1E7D2
:100FE000D0467BE7023B614432E7304609E7644480
:100FF000023842E7704700BF80B584B000AFF860A8
:10100000B9607A607B689AB20A23B968034802F033
:10101000CDFB7B6818461037BD4680BD40020020DE
:1010200080B500AF0D4B1B689B680021184606F089
:1010300061F800F0BBFD00F017F800F053F900F084
:10104000FBF800F07BF800F0CDF800F0A1F80449BF
:10105000044803F035FE04F089FDFCE70C00002095
:10106000840200200805002080B594B000AF07F18D
:10107000200330220021184605F026F807F10C0362
:1010800000221A605A609A60DA601A610023BB601D
:10109000284B1B6C274A43F080531364254B1B6C71
:1010A00003F08053BB60BB6800237B60224B1B684E
:1010B000214A43F4804313601F4B1B6803F48043B1
:1010C0007B607B6801233B624FF480337B620223A9
:1010D000BB634FF48003FB6304233B64A8237B645E
:1010E0000223BB640423FB6407F12003184601F0CC
:1010F00049FE0346002B01D000F046F90F23FB60A8
:1011000002233B6100237B614FF4A053BB614FF48A
:101110008053FB6107F10C030521184602F0AAF881
:101120000346002B01D000F02FF900BF5037BD4619
:1011300080BD00BF003802400070004080B500AFA5
:10114000114B124A1A60104B4FF4E1325A600E4BA9
:1011500000229A600C4B0022DA600B4B00221A61CD
:10116000094B0C225A61084B00229A61064B00225F
:10117000DA61054802F09EFA0346002B01D000F028
:1011800003F900BF80BD00BFFC010020004C0040FF
:1011900080B500AF114B124A1A60104B4FF4E13288
:1011A0005A600E4B00229A600C4B0022DA600B4B07
:1011B00000221A61094B0C225A61084B00229A61E5
:1011C000064B0022DA61054802F074FA0346002B50
:1011D00001D000F0D9F800BF80BD00BF4002002060
:1011E0000010014080B500AF114B124A1A60104B3D
:1011F0004FF4E1325A600E4B00229A600C4B0022F1
:10120000DA600B4B00221A61094B0C225A61084B21
:1012100000229A61064B0022DA61054802F04AFA80
:101220000346002B01D000F0AFF800BF80BD00BF27
:10123000840200200044004080B582B000AF00234B
:101240007B60274B1B6B264A43F400131363244B2C
:101250001B6B03F400137B607B6800233B60204B17
:101260001B6B1F4A43F4800313631D4B1B6B03F47A
:1012700080033B603B68002200210D2000F02BFE24
:101280000D2000F044FE002200210F2000F023FE7C
:101290000F2000F03CFE00220021102000F01BFE79
:1012A000102000F034FE00220021112000F013FE77
:1012B000112000F02CFE002200213A2000F00BFE4D
:1012C0003A2000F024FE00220021462000F003FE18
:1012D000462000F01CFE00BF0837BD4680BD00BFA1
:1012E0000038024080B588B000AF07F10C0300223F
:1012F0001A605A609A60DA601A610023BB60204B62
:101300001B6B1F4A43F0040313631D4B1B6B03F05D
:101310000403BB60BB6800237B60194B1B6B184A3E
:1013200043F080031363164B1B6B03F080037B6059
:101330007B6800233B60124B1B6B114A43F0010397
:1013400013630F4B1B6B03F001033B603B680122EF
:101350004FF460410B4801F0FBFC4FF46043FB602D
:1013600001233B6100237B610023BB6107F10C0378
:101370001946044801F054FA00BF2037BD4680BD2D
:10138000003802400008024080B500AF72B600BFCE
:10139000034805F097FE4FF47A7000F079FCF7E708
:1013A00058AC000880B483B000AF00237B60104BC2
:1013B0005B6C0F4A43F4804353640D4B5B6C03F446
:1013C00080437B607B6800233B60094B1B6C084AB1
:1013D00043F080531364064B1B6C03F080533B6057
:1013E0003B6800BF0C37BD465DF8047B704700BF0B
:1013F0000038024080B58EB000AF786007F124035A
:1014000000221A605A609A60DA601A617B681B6871
:10141000984A934240F0958000233B62964B1B6CA8
:10142000954A43F400231364934B1B6C03F400238D
:101430003B623B6A0023FB618F4B1B6B8E4A43F080
:10144000040313638C4B1B6B03F00403FB61FB6908
:101450004FF440637B620223BB620023FB620323E1
:101460003B6308237B6307F124031946834801F09B
:10147000D7F9834B834A1A60814B4FF000625A6060
:101480007F4B40229A607E4B0022DA607C4B4FF407
:1014900080621A617A4B00225A61794B00229A616C
:1014A000774B0022DA61764B4FF400321A62744BAC
:1014B00000225A62724800F053FD0346002B01D00F
:1014C000FFF762FF7B686E4A5A636D4A7B689363DD
:1014D0006D4B6E4A1A606C4B4FF000625A606A4B5B
:1014E00000229A60684B0022DA60674B4FF48062FA
:1014F0001A61654B00225A61634B00229A61624B6C
:101500004FF48072DA61604B4FF400321A625E4B26
:1015100000225A625C4800F023FD0346002B01D0F4
:10152000FFF732FF7B68584A9A63574A7B68936398
:1015300000220021342000F0CEFC342000F0E7FC33
:101540004BE17B681B68524A934240F0AD80002318
:10155000BB61494B5B6C484A43F010035364464BF4
:101560005B6C03F01003BB61BB6900237B61424BE2
:101570001B6B414A43F0010313633F4B1B6B03F0AA
:1015800001037B617B694FF4C0637B620223BB6212
:101590000023FB6203233B6307237B6307F12403E0
:1015A00019463C4801F03CF93B4B3C4A1A603A4B27
:1015B0004FF000625A60384B40229A60364B00224E
:1015C000DA60354B4FF480621A61334B00225A6166
:1015D000314B00229A61304B0022DA612E4B0022FF
:1015E0001A622D4B00225A622B4800F0B9FC0346C8
:1015F000002B01D0FFF7C8FE7B68274A5A63264AB2
:101600007B689363264B274A1A60254B4FF0006294
:101610005A60234B00229A60214B0022DA60204B53
:101620004FF480621A611E4B00225A611C4B00224B
:101630009A611B4B4FF48072DA61194B00221A62D7
:10164000174B00225A62164800F08AFC0346002B12
:1016500001D0FFF799FE7B68114A9A63104A7B68B4
:10166000936300220021252000F035FC252000F0A6
:101670004EFCB2E0004C004000380240000802403E
:10168000C802002070600240280300204060024031
:10169000001001400000024088030020B8640240AE
:1016A000E8030020406402407B681B684D4A934277
:1016B00040F0938000233B614B4B1B6C4A4A43F440
:1016C00000331364484B1B6C03F400333B613B69EC
:1016D0000023FB60444B1B6B434A43F0010313633D
:1016E000414B1B6B03F00103FB60FB680C237B6227
:1016F0000223BB620023FB6203233B6307237B635C
:1017000007F124031946394801F08AF8384B394A61
:101710001A60374B4FF000625A60354B40229A6096
:10172000334B0022DA60324B4FF480621A61304B47
:1017300000225A612E4B00229A612D4B0022DA6161
:101740002B4B4FF400321A62294B00225A62284870
:1017500000F006FC0346002B01D0FFF715FE7B6866
:10176000234A5A63224A7B689363234B234A1A60B5
:10177000214B4FF000625A601F4B00229A601E4BB3
:101780000022DA601C4B4FF480621A611A4B00226F
:101790005A61194B00229A61174B4FF48072DA613B
:1017A000154B4FF400321A62134B00225A62124852
:1017B00000F0D6FB0346002B01D0FFF7E5FD7B6868
:1017C0000D4A9A630C4A7B6893630022002126200D
:1017D00000F081FB262000F09AFB00BF3837BD46A1
:1017E00080BD00BF004400400038024000000240BD
:1017F00048040020A0600240A80400208860024045
:1018000080B582B000AF78607B681B682C4A934239
:1018100018D12C4B1B6C2B4A23F4002313644FF478
:101820004061294801F098F97B685B6B184600F02D
:1018300045FC7B689B6B184600F040FC342000F0B0
:1018400074FB39E07B681B68204A934218D11D4B1A
:101850005B6C1C4A23F0100353644FF4C0611C48B6
:1018600001F07AF97B685B6B184600F027FC7B6817
:101870009B6B184600F022FC252000F056FB1BE075
:101880007B681B68134A934216D10E4B1B6C0D4AA2
:1018900023F4003313640C210D4801F05DF97B68DB
:1018A0005B6B184600F00AFC7B689B6B184600F0E7
:1018B00005FC262000F039FB00BF0837BD4680BD7F
:1018C000004C004000380240000802400010014077
:1018D000000002400044004080B400AFFEE780B446
:1018E00000AFFEE780B400AFFEE780B400AFFEE7D4
:1018F00080B400AFFEE780B400AF00BFBD465DF826
:10190000047B704780B400AF00BFBD465DF8047B28
:10191000704780B400AF00BFBD465DF8047B7047E0
:1019200080B500AF00F094F900BF80BD80B500AF76
:10193000024800F00BFD00BF80BD00BF280300205F
:1019400080B500AF024800F001FD00BF80BD00BFC0
:10195000C802002080B500AF024800F0F7FC00BFCD
:1019600080BD00BFA804002080B500AF024800F091
:10197000EDFC00BF80BD00BF4804002080B500AF73
:10198000024802F053F800BF80BD00BF40020020B3
:1019900080B500AF024802F049F800BF80BD00BF2B
:1019A0008402002080B500AF024802F03FF800BF7B
:1019B00080BD00BFFC01002080B500AF024800F0F0
:1019C000C5FC00BF80BD00BFE803002080B500AFAC
:1019D000024800F0BBFC00BF80BD00BF88030020B0
:1019E00080B400AF01231846BD465DF8047B704704
:1019F00080B582B000AF7860396004F025FB034603
:101A000016221A604FF0FF3318460837BD4680BDD6
:101A100080B582B000AF78604FF0FF317868FFF793
:101A2000E7FFFEE780B586B000AFF860B9607A6086
:101A300000237B610AE0AFF300800146BB685A1CBB
:101A4000BA60CAB21A707B6901337B617A697B68BC
:101A50009A42F0DB7B6818461837BD4680BD80B4DB
:101A600083B000AF78604FF0FF3318460C37BD46A7
:101A70005DF8047B704780B483B000AF7860396054
:101A80003B684FF400525A60002318460C37BD469D
:101A90005DF8047B704780B483B000AF78600123A9
:101AA00018460C37BD465DF8047B704780B485B09E
:101AB00000AFF860B9607A60002318461437BD465D
:101AC0005DF8047B7047000080B586B000AF786099
:101AD000144A154BD31A7B617B693B61134B1B681E
:101AE000002B02D1114B124A1A60104B1A687B6806
:101AF00013443A699A4207D204F0A6FA03460C222C
:101B00001A604FF0FF3309E0084B1B68FB60074B7E
:101B10001A687B681344054A1360FB681846183737
:101B2000BD4680BD0000022000040000100500201A
:101B30007013002080B400AF064BD3F88830054AFC
:101B400043F47003C2F8883000BFBD465DF8047BE3
:101B5000704700BF00ED00E0DFF834D00D480E49BB
:101B60000E4A002302E0D458C4500433C4188C42F7
:101B7000F9D30B4A0B4C002301E013600432A2425C
:101B8000FBD3FFF7D7FF04F065FAFFF749FA704778
:101B90000000022000000020E0010020C4B900087D
:101BA000E001002070130020FEE7000080B500AFC8
:101BB0000E4B1B680D4A43F4007313600B4B1B68FC
:101BC0000A4A43F480631360084B1B68074A43F4D6
:101BD00080731360032000F073F90F2000F008F801
:101BE000FFF7E0FB0023184680BD00BF003C024029
:101BF00080B582B000AF7860124B1A68124B1B7828
:101C000019464FF47A73B3FBF1F3B2FBF3F31846C2
:101C100000F099F90346002B01D001230EE07B6808
:101C20000F2B0AD8002279684FF0FF3000F053F9EB
:101C3000064A7B681360002300E00123184608373A
:101C4000BD4680BD000000200800002004000020E8
:101C500080B400AF064B1B781A46064B1B68134432
:101C6000044A136000BFBD465DF8047B704700BFA7
:101C7000080000201405002080B400AF034B1B684F
:101C80001846BD465DF8047B704700BF1405002070
:101C900080B584B000AF7860FFF7EEFFB8607B6876
:101CA000FB60FB68B3F1FF3F05D00A4B1B781A4677
:101CB000FB681344FB6000BFFFF7DEFF0246BB6812
:101CC000D31AFA689A42F7D800BF00BF1037BD4652
:101CD00080BD00BF0800002080B485B000AF7860F0
:101CE0007B6803F00703FB600C4BDB68BB60BA68E2
:101CF0004FF6FF031340BB60FB681A02BB68134337
:101D000043F0BF6343F40033BB60044ABB68D36055
:101D100000BF1437BD465DF8047B704700ED00E05E
:101D200080B400AF044BDB681B0A03F007031846BE
:101D3000BD465DF8047B704700ED00E080B483B0E1
:101D400000AF0346FB7197F90730002B0BDBFB79E3
:101D500003F01F02074997F907305B09012000FAD9
:101D600002F241F8232000BF0C37BD465DF8047B2A
:101D7000704700BF00E100E080B483B000AF0346CD
:101D8000FB7197F90730002B12DBFB7903F01F0280
:101D90000A4997F907305B09012000FA02F2203363
:101DA00041F82320BFF34F8F00BFBFF36F8F00BFF9
:101DB00000BF0C37BD465DF8047B704700E100E0D2
:101DC00080B483B000AF03463960FB7197F90730E8
:101DD000002B0ADB3B68DAB20C4997F90730120195
:101DE000D2B20B4483F800230AE03B68DAB2084918
:101DF000FB7903F00F03043B1201D2B20B441A76B5
:101E000000BF0C37BD465DF8047B704700E100E081
:101E100000ED00E080B489B000AFF860B9607A608E
:101E2000FB6803F00703FB61FB69C3F10703042BA5
:101E300028BF0423BB61FB690433062B02D9FB696D
:101E4000033B00E000237B614FF0FF32BB6902FAE5
:101E500003F3DA43BB681A407B699A404FF0FF31C5
:101E60007B6901FA03F3D9437B680B40134318469F
:101E70002437BD465DF8047B7047000080B582B012
:101E800000AF78607B68013BB3F1807F01D3012311
:101E90000FE00A4A7B68013B53600F214FF0FF308F
:101EA000FFF78EFF054B00229A60044B07221A6051
:101EB000002318460837BD4680BD00BF10E000E093
:101EC00080B582B000AF78607868FFF705FF00BF8B
:101ED0000837BD4680BD80B586B000AF0346B96007
:101EE0007A60FB7300237B61FFF71AFF78617A68E1
:101EF000B9687869FFF78EFF024697F90F301146EF
:101F00001846FFF75DFF00BF1837BD4680BD80B59E
:101F100082B000AF0346FB7197F907301846FFF710
:101F20000DFF00BF0837BD4680BD80B582B000AF51
:101F30000346FB7197F907301846FFF71DFF00BFF6
:101F40000837BD4680BD80B582B000AF7860786844
:101F5000FFF794FF034618460837BD4680BD0000D2
:101F600080B586B000AF786000237B61FFF784FE08
:101F700038617B68002B01D1012399E07B68022244
:101F800083F835207B68002283F834207B681B6847
:101F90001A687B681B6822F001021A600FE0FFF7E5
:101FA0006BFE02463B69D31A052B08D97B682022B9
:101FB0005A657B68032283F83520032378E07B6829
:101FC0001B681B6803F00103002BE8D17B681B68CA
:101FD0001B687B617A69384B13407B617B685A6868
:101FE0007B689B681A437B68DB681A437B681B69C4
:101FF0001A437B685B691A437B689B691A437B6859
:10200000DB691A437B681B6A13437A6913437B615C
:102010007B685B6A042B07D17B68DA6A7B681B6B81
:1020200013437A6913437B617B681B687A691A6082
:102030007B681B685B697B617B6923F007037B61BD
:102040007B685B6A7A6913437B617B685B6A042BFC
:1020500017D17B689B6A7A6913437B617B68DB6A73
:10206000002B0ED0786800F05FFB0346002B08D0F1
:102070007B6840225A657B68012283F83520012362
:1020800016E07B681B687A695A61786800F016FB75
:102090000346FB607B68DB6D3F229A40FB689A60D9
:1020A0007B6800225A657B68012283F83520002373
:1020B00018461837BD4680BD3F8010F080B584B00B
:1020C00000AF78607B68002B01D1012350E07B6872
:1020D00093F83530DBB2022B01D1022348E07B6854
:1020E0001B681A687B681B6822F001021A607B6813
:1020F0001B6800221A607B681B6800225A607B689C
:102100001B6800229A607B681B680022DA607B688B
:102110001B6800221A617B681B6821225A6178685B
:1021200000F0CCFA0346FB607B680022DA637B6830
:1021300000221A647B6800225A647B6800229A6439
:102140007B680022DA647B6800221A657B68DB6D9D
:102150003F229A40FB689A607B6800225A657B6840
:10216000002283F835207B68002283F83420002386
:1021700018461037BD4680BD80B586B000AFF86008
:10218000B9607A603B600023FB75FB689B6D3B6127
:10219000FB6893F83430012B01D1022340E0FB6847
:1021A000012283F83420FB6893F83530DBB2012B31
:1021B0002FD1FB68022283F83520FB6800225A6584
:1021C0003B687A68B968F86800F04AFAFB68DB6D2A
:1021D0003F229A403B699A60FB681B681A68FB685B
:1021E0001B6842F016021A60FB681B6C002B07D0BC
:1021F000FB681B681A68FB681B6842F008021A60DB
:10220000FB681B681A68FB681B6842F001021A60D1
:1022100005E0FB68002283F834200223FB75FB7D78
:1022200018461837BD4680BD80B584B000AF7860D1
:102230007B689B6DFB60FFF71FFDB8607B6893F8C0
:102240003530DBB2022B08D07B6880225A657B6870
:10225000002283F83420012352E07B681B681A684F
:102260007B681B6822F016021A607B681B685A693B
:102270007B681B6822F080025A617B681B6C002B14
:1022800003D17B689B6C002B07D07B681B681A68A6
:102290007B681B6822F008021A607B681B681A685A
:1022A0007B681B6822F001021A6013E0FFF7E4FC70
:1022B0000246BB68D31A052B0CD97B6820225A65CD
:1022C0007B68032283F835207B68002283F8342062
:1022D000032315E07B681B681B6803F00103002BD8
:1022E000E4D17B68DB6D3F229A40FB689A607B6893
:1022F000012283F835207B68002283F834200023F4
:1023000018461037BD4680BD80B483B000AF7860FA
:102310007B6893F83530DBB2022B04D07B688022D7
:102320005A6501230CE07B68052283F835207B6821
:102330001B681A687B681B6822F001021A60002380
:1023400018460C37BD465DF8047B704780B586B0F3
:1023500000AF78600023BB608E4B1B688E4AA2FBE7
:1023600003239B0A7B617B689B6D3B613B691B6818
:10237000FB607B68DB6D08229A40FB681340002BF2
:102380001AD07B681B681B6803F00403002B13D072
:102390007B681B681A687B681B6822F004021A605D
:1023A0007B68DB6D08229A403B699A607B685B6DB5
:1023B00043F001027B685A657B68DB6D01229A401D
:1023C000FB681340002B12D07B681B685B6903F02D
:1023D0008003002B0BD07B68DB6D01229A403B69A8
:1023E0009A607B685B6D43F002027B685A657B688C
:1023F000DB6D04229A40FB681340002B12D07B68EF
:102400001B681B6803F00203002B0BD07B68DB6D9D
:1024100004229A403B699A607B685B6D43F004023A
:102420007B685A657B68DB6D10229A40FB6813401D
:10243000002B43D07B681B681B6803F00803002B4C
:102440003CD07B68DB6D10229A403B699A607B68C8
:102450001B681B6803F48023002B18D07B681B6863
:102460001B6803F40023002B08D17B681B6C002B36
:1024700024D07B681B6C786898471FE07B689B6C56
:10248000002B1BD07B689B6C7868984716E07B68B4
:102490001B681B6803F48073002B07D17B681B68E3
:1024A0001A687B681B6822F008021A607B681B6C44
:1024B000002B03D07B681B6C786898477B68DB6DCA
:1024C00020229A40FB681340002B00F08F807B682D
:1024D0001B681B6803F01003002B00F087807B68EB
:1024E000DB6D20229A403B699A607B6893F8353017
:1024F000DBB2052B36D17B681B681A687B681B68CA
:1025000022F016021A607B681B685A697B681B6898
:1025100022F080025A617B681B6C002B03D17B6820
:102520009B6C002B07D07B681B681A687B681B6854
:1025300022F008021A607B68DB6D3F229A403B69FB
:102540009A607B68012283F835207B68002283F83B
:1025500034207B681B6D002B7ED07B681B6D7868F8
:10256000984779E07B681B681B6803F48023002B85
:102570001DD07B681B681B6803F40023002B0DD162
:102580007B685B6C002B31D07B685B6C786898470C
:102590002CE000BF00000020B5814E1B7B68DB6B88
:1025A000002B23D07B68DB6B786898471EE07B6844
:1025B0001B681B6803F48073002B0FD17B681B68BA
:1025C0001A687B681B6822F010021A607B6801227F
:1025D00083F835207B68002283F834207B68DB6B2E
:1025E000002B03D07B68DB6B786898477B685B6D5A
:1025F000002B32D07B685B6D03F00103002B22D0EF
:102600007B68052283F835207B681B681A687B6825
:102610001B6822F001021A60BB680133BB607A6953
:102620009A4207D37B681B681B6803F00103002BE9
:10263000F2D100E000BF7B68012283F835207B687F
:10264000002283F834207B68DB6C002B05D07B688C
:10265000DB6C7868984700E000BF1837BD4680BD46
:1026600080B485B000AFF860B9607A603B60FB6809
:102670001B681A68FB681B6822F480221A60FB68DA
:102680001B683A685A60FB689B68402B08D1FB685E
:102690001B687A689A60FB681B68BA68DA6007E0B2
:1026A000FB681B68BA689A60FB681B687A68DA6026
:1026B00000BF1437BD465DF8047B704780B485B019
:1026C00000AF78607B681B68DBB2103B144AA2FB4A
:1026D00003231B09FB60134AFB6813441B781A464B
:1026E0007B68DA65FB68032B09D97B681B6823F4D8
:1026F0007F7323F003031A1D7B689A6507E07B68EC
:102700001B6823F47F7323F003037A6893657B6867
:102710009B6D18461437BD465DF8047B704700BFBB
:10272000ABAAAAAAFCB4000880B485B000AF786058
:102730000023FB737B689B6ABB607B689B69002BF3
:102740001FD1BB68032B56D801A252F823F000BF5B
:10275000612700087327000861270008F727000891
:102760007B68DB6A03F08073002B46D00123FB7388
:1027700043E07B68DB6AB3F1C07F40D10123FB7388
:102780003DE07B689B69B3F5005F21D1BB68032BFB
:1027900037D801A252F823F0A9270008AF27000874
:1027A000A9270008C12700080123FB7330E07B68DC
:1027B000DB6A03F08073002B25D00123FB7322E03A
:1027C0007B68DB6AB3F1C07F1FD10123FB731CE080
:1027D000BB68022B03D9BB68032B03D018E001238D
:1027E000FB7315E07B68DB6A03F08073002B0ED06F
:1027F0000123FB730BE000BF0AE000BF08E000BF4D
:1028000006E000BF04E000BF02E000BF00E000BF40
:10281000FB7B18461437BD465DF8047B704700BF4C
:1028200080B489B000AF7860396000237B610023F9
:102830003B610023BB610023FB616BE10122FB696B
:1028400002FA03F37B613B681B687A6913403B61C2
:102850003A697B699A4240F05A813B685B6803F0B1
:102860000303012B05D03B685B6803F00303022BD5
:1028700030D17B689B68BB61FB695B00032202FA75
:1028800003F3DB43BA691340BB613B68DA68FB6959
:102890005B0002FA03F3BA691343BB617B68BA6950
:1028A0009A607B685B68BB610122FB6902FA03F3F3
:1028B000DB43BA691340BB613B685B681B0903F0EB
:1028C0000102FB6902FA03F3BA691343BB617B6837
:1028D000BA695A603B685B6803F00303032B17D0A7
:1028E0007B68DB68BB61FB695B00032202FA03F3D0
:1028F000DB43BA691340BB613B689A68FB695B00C4
:1029000002FA03F3BA691343BB617B68BA69DA6000
:102910003B685B6803F00303022B23D1FB69DA08F1
:102920007B68083253F82230BB61FB6903F0070370
:102930009B000F2202FA03F3DB43BA691340BB6129
:102940003B681A69FB6903F007039B0002FA03F373
:10295000BA691343BB61FB69DA087B680832B9695D
:1029600043F822107B681B68BB61FB695B00032294
:1029700002FA03F3DB43BA691340BB613B685B684F
:1029800003F00302FB695B0002FA03F3BA69134325
:10299000BB617B68BA691A603B685B6803F44033CB
:1029A000002B00F0B4800023FB60604B5B6C5F4A3F
:1029B00043F4804353645D4B5B6C03F48043FB60E2
:1029C000FB685B4AFB699B08023352F82330BB610A
:1029D000FB6903F003039B000F2202FA03F3DB43BE
:1029E000BA691340BB617B68524A93422BD07B6823
:1029F000514A934225D07B68504A93421FD07B684E
:102A00004F4A934219D07B684E4A934213D07B6859
:102A10004D4A93420DD07B684C4A934207D07B6865
:102A20004B4A934201D107230EE008230CE0062312
:102A30000AE0052308E0042306E0032304E0022360
:102A400002E0012300E00023FA6902F00302920091
:102A50009340BA691343BB613549FB699B08023354
:102A6000BA6941F823203B4B1B68BB613B69DB43E0
:102A7000BA691340BB613B685B6803F48033002B89
:102A800003D0BA693B691343BB61324ABB69136027
:102A9000304B5B68BB613B69DB43BA691340BB6188
:102AA0003B685B6803F40033002B03D0BA693B69D1
:102AB0001343BB61274ABB695360264B9B68BB61CC
:102AC0003B69DB43BA691340BB613B685B6803F455
:102AD0008013002B03D0BA693B691343BB611D4AC5
:102AE000BB6993601B4BDB68BB613B69DB43BA6925
:102AF0001340BB613B685B6803F40013002B03D0F9
:102B0000BA693B691343BB61124ABB69D360FB6975
:102B10000133FB61FB690F2B7FF690AE00BF00BF56
:102B20002437BD465DF8047B704700BF0038024083
:102B3000003801400000024000040240000802404A
:102B4000000C024000100240001402400018024035
:102B5000001C0240003C014080B487B000AF7860A8
:102B6000396000233B610023FB600023BB6000232E
:102B70007B61CDE001227B6902FA03F33B613A6895
:102B80003B691340FB60FA683B699A4240F0BD80A4
:102B9000654A7B699B08023352F82330BB607B692E
:102BA00003F003039B000F2202FA03F3BA681340F9
:102BB000BB607B685D4A93422BD07B685C4A934242
:102BC00025D07B685B4A93421FD07B685A4A934268
:102BD00019D07B68594A934213D07B68584A934274
:102BE0000DD07B68574A934207D07B68564A934280
:102BF00001D107230EE008230CE006230AE0052399
:102C000008E0042306E0032304E0022302E001239A
:102C100000E000237A6902F0030292009340BA6850
:102C20009A4232D1494B1A68FB68DB43474913404B
:102C30000B60464B5A68FB68DB43444913404B60CA
:102C4000424B9A68FB68DB43404913408B603F4B23
:102C5000DA68FB68DB433D491340CB607B6903F0D6
:102C600003039B000F2202FA03F3BB602E4A7B6929
:102C70009B08023352F82310BB68DA432A487B6969
:102C80009B080A40023340F823207B681A687B695E
:102C90005B00032101FA03F3DB431A407B681A60EF
:102CA0007B69DA087B68083253F822107B6903F0ED
:102CB00007039B000F2202FA03F3DB437A69D20871
:102CC00019407B68083243F822107B68DA687B6918
:102CD0005B00032101FA03F3DB431A407B68DA60EF
:102CE0007B685A6801217B6901FA03F3DB431A40D0
:102CF0007B685A607B689A687B695B00032101FAF4
:102D000003F3DB431A407B689A607B6901337B6184
:102D10007B690F2B7FF62EAF00BF00BF1C37BD466F
:102D20005DF8047B704700BF00380140000002409E
:102D30000004024000080240000C02400010024063
:102D40000014024000180240001C0240003C0140F8
:102D500080B483B000AF78600B467B8013467B70F5
:102D60007B78002B03D07A887B689A6103E07B88AC
:102D70001A047B689A6100BF0C37BD465DF8047B7E
:102D80007047000080B586B000AF78607B68002B8C
:102D900001D1012367E27B681B6803F00103002B6C
:102DA00075D0884B9B6803F00C03042B0CD0854B2B
:102DB0009B6803F00C03082B12D1824B5B6803F471
:102DC0008003B3F5800F0BD17E4B1B6803F40033F7
:102DD000002B5BD07B685B68002B57D1012342E25C
:102DE0007B685B68B3F5803F06D1764B1B68754AFC
:102DF00043F4803313601DE07B685B68B3F5A02F5C
:102E00000CD1704B1B686F4A43F4802313606D4BE9
:102E10001B686C4A43F4803313600BE0694B1B68FA
:102E2000684A23F480331360664B1B68654A23F4B9
:102E3000802313607B685B68002B13D0FEF71CFFB8
:102E4000386108E0FEF718FF02463B69D31A642B8D
:102E500001D9032307E25B4B1B6803F40033002B0B
:102E6000F0D014E0FEF708FF386108E0FEF704FF39
:102E700002463B69D31A642B01D90323F3E1514B7A
:102E80001B6803F40033002BF0D100E000BF7B6827
:102E90001B6803F00203002B63D04A4B9B6803F0CE
:102EA0000C03002B0BD0474B9B6803F00C03082B43
:102EB0001CD1444B5B6803F48003002B16D1414BBB
:102EC0001B6803F00203002B05D07B68DB68012B35
:102ED00001D00123C7E13B4B1B6823F0F8027B685C
:102EE0001B69DB00374913430B603AE07B68DB6802
:102EF000002B20D0344B01221A60FEF7BDFE386152
:102F000008E0FEF7B9FE02463B69D31A022B01D94D
:102F10000323A8E12B4B1B6803F00203002BF0D026
:102F2000284B1B6823F0F8027B681B69DB002549EE
:102F300013430B6015E0244B00221A60FEF79CFE41
:102F4000386108E0FEF798FE02463B69D31A022B6F
:102F500001D9032387E11B4B1B6803F00203002BFD
:102F6000F0D17B681B6803F00803002B36D07B6828
:102F70005B69002B16D0154B01221A60FEF77CFE10
:102F8000386108E0FEF778FE02463B69D31A022B4F
:102F900001D9032367E10B4B5B6F03F00203002BA6
:102FA000F0D01BE0094B00221A60FEF765FE386185
:102FB0000EE0FEF761FE02463B69D31A022B07D9E9
:102FC000032350E10038024000004742800E474290
:102FD000884B5B6F03F00203002BEAD17B681B6810
:102FE00003F00403002B00F097800023FB75814B56
:102FF0001B6C03F08053002B0FD10023BB607D4B73
:103000001B6C7C4A43F0805313647A4B1B6C03F0B7
:103010008053BB60BB680123FB75774B1B6803F4CF
:103020008073002B18D1744B1B68734A43F4807370
:103030001360FEF721FE386108E0FEF71DFE024630
:103040003B69D31A022B01D903230CE16A4B1B689D
:1030500003F48073002BF0D07B689B68012B06D1B2
:10306000644B1B6F634A43F0010313671CE07B68EA
:103070009B68052B0CD15F4B1B6F5E4A43F004032A
:1030800013675C4B1B6F5B4A43F0010313670BE054
:10309000584B1B6F574A23F001031367554B1B6FA7
:1030A000544A23F0040313677B689B68002B15D0F8
:1030B000FEF7E2FD38610AE0FEF7DEFD02463B69FD
:1030C000D31A41F28832934201D90323CBE0494B12
:1030D0001B6F03F00203002BEED014E0FEF7CCFDD3
:1030E00038610AE0FEF7C8FD02463B69D31A41F297
:1030F0008832934201D90323B5E03E4B1B6F03F0A6
:103100000203002BEED1FB7D012B05D1394B1B6C4B
:10311000384A23F0805313647B689B69002B00F0CE
:10312000A180344B9B6803F00C03082B5CD07B68B8
:103130009B69022B41D1314B00221A60FEF79CFDA6
:10314000386108E0FEF798FD02463B69D31A022B6E
:1031500001D9032387E0274B1B6803F00073002B82
:10316000F0D17B68DA697B681B6A1A437B685B6A0B
:103170009B011A437B689B6A5B08013B1B041A4353
:103180007B68DB6A1B061B4913434B601B4B012208
:103190001A60FEF771FD386108E0FEF76DFD02462A
:1031A0003B69D31A022B01D903235CE0114B1B6846
:1031B00003F00073002BF0D054E0104B00221A6093
:1031C000FEF75AFD386108E0FEF756FD02463B69FE
:1031D000D31A022B01D9032345E0064B1B6803F0E9
:1031E0000073002BF0D13DE07B689B69012B07D178
:1031F000012338E000380240007000406000474280
:103200001B4B5B68FB607B689B69012B28D0FB68CC
:1032100003F480027B68DB699A4221D1FB6803F0EA
:103220003F027B681B6A9A421AD1FA6847F6C0735C
:1032300013407A68526A9201934211D1FB6803F4F9
:1032400040327B689B6A5B08013B1B049A4207D1B2
:10325000FB6803F070627B68DB6A1B069A4201D050
:10326000012300E0002318461837BD4680BD00BF8B
:103270000038024080B584B000AF786039607B6868
:10328000002B01D10123CCE0684B1B6803F007033E
:103290003A689A420CD9654B3A68D2B21A70634BBD
:1032A0001B6803F007033A689A4201D00123B8E093
:1032B0007B681B6803F00203002B20D07B681B682F
:1032C00003F00403002B05D0594B9B68584A43F484
:1032D000E05393607B681B6803F00803002B05D064
:1032E000534B9B68524A43F460439360504B9B6836
:1032F00023F0F0027B689B684D4913438B607B6829
:103300001B6803F00103002B44D07B685B68012B32
:1033100007D1474B1B6803F40033002B19D101235D
:103320007FE07B685B68022B03D07B685B68032BC4
:1033300007D13F4B1B6803F00073002B09D1012319
:103340006FE03B4B1B6803F00203002B01D101230C
:1033500067E0374B9B6823F003027B685B68344966
:1033600013438B60FEF788FCF8600AE0FEF784FCEC
:103370000246FB68D31A41F28832934201D90323F3
:103380004FE02B4B9B6803F00C027B685B689B0053
:103390009A42EBD1254B1B6803F007033A689A4227
:1033A0000CD2224B3A68D2B21A70204B1B6803F041
:1033B00007033A689A4201D0012332E07B681B6818
:1033C00003F00403002B08D0194B9B6823F4E05250
:1033D0007B68DB68164913438B607B681B6803F0CE
:1033E0000803002B09D0124B9B6823F460427B68D2
:1033F0001B69DB000E4913438B6000F021F8024685
:103400000B4B9B681B0903F00F030A49CB5C22FAA4
:1034100003F3094A1360094B1B681846FEF7E8FBE3
:10342000002318461037BD4680BD00BF003C024057
:1034300000380240E4B4000800000020040000202E
:103440002DE9B04F94B000AF00237B640023FB64F0
:1034500000233B640023BB64794B9B6803F00C039F
:10346000082B0DD0082B00F2E180002B02D0042B9A
:1034700003D0DBE0734BBB64DBE0734BBB64D8E091
:103480006F4B5B6803F03F037B646D4B5B6803F439
:103490008003002B63D06A4B5B689B090022BB63EF
:1034A000FA63BB6BC3F308033B6300237B63D7E979
:1034B0000C4522462B464FF000004FF00001590109
:1034C00041EAD261500102460B462146511A396148
:1034D000294663EB01037B614FF000024FF00003CC
:1034E000D7E904AB59468B01514643EA91635146F3
:1034F0008A015146B2EB0108594663EB01094FF0CE
:1035000000024FF000034FEAC90343EA58734FEA41
:10351000C80290469946234618EB0303BB602B462E
:1035200049EB0303FB604FF000024FF00003D7E9C3
:10353000024529464B02214643EAD15321464A021D
:10354000104619467B6C0022BB62FA62D7E90A2357
:10355000FDF79AFB02460B461346FB6458E0384BD6
:103560005B689B09002218461146C0F308033B62C2
:1035700000237B62D7E9088942464B464FF00000A2
:103580004FF00001590141EAD261500102460B4659
:103590004146B2EB010A494663EB010B4FF00002D2
:1035A0004FF000034FEA8B1343EA9A634FEA8A1203
:1035B000B2EB0A0463EB0B054FF000024FF000037F
:1035C000EB0043EA5473E20014461D464346E318F9
:1035D0003B604B4645EB03037B604FF000024FF02E
:1035E0000003D7E9004529468B02214643EA91535F
:1035F00021468A02104619467B6C0022BB61FA61A3
:10360000D7E90623FDF740FB02460B461346FB6451
:103610000B4B5B681B0C03F0030301335B003B6443
:10362000FA6C3B6CB2FBF3F3BB6402E0054BBB648A
:1036300000BFBB6C18465037BD46BDE8B08F00BF19
:10364000003802400024F40000127A0080B400AF79
:10365000034B1B681846BD465DF8047B704700BFEE
:103660000000002080B500AFFFF7F0FF0246054BD9
:103670009B689B0A03F007030349CB5C22FA03F320
:10368000184680BD00380240F4B4000880B500AF91
:10369000FFF7DCFF0246054B9B685B0B03F007035B
:1036A0000349CB5C22FA03F3184680BD0038024080
:1036B000F4B4000880B582B000AF78607B68002B5E
:1036C00001D101233FE07B6893F83D30DBB2002B52
:1036D00006D17B68002283F83C207868FDF78AFEDB
:1036E0007B68242283F83D207B681B68DA687B684E
:1036F0001B6822F40052DA60786801F06DF87B688C
:103700001B681A697B681B6822F490421A617B6807
:103710001B685A697B681B6822F02A025A617B6821
:103720001B68DA687B681B6842F40052DA607B68C9
:1037300000221A647B68202283F83D207B682022C7
:1037400083F83E20002318460837BD4680BD80B56B
:1037500082B000AF78607B68002B01D1012321E0AB
:103760007B68242283F83D207B681B68DA687B68CD
:103770001B6822F40052DA607868FEF741F87B6833
:1037800000221A647B68002283F83D207B680022B7
:1037900083F83E207B6800221A637B68002283F84E
:1037A0003C20002318460837BD4680BD80B58AB04E
:1037B00002AFF860B9603B601346FB8000237B6179
:1037C000FB6893F83D30DBB2202B7CD1BB68002B2B
:1037D00002D0FB88002B01D1012375E0FB6893F830
:1037E0003C30012B01D102236EE0FB68012283F8FB
:1037F0003C20FB6800221A64FB68212283F83D20EC
:10380000FEF73AFA7861FB68FA889A84FB68FA88CE
:10381000DA84FB689B68B3F5805F08D1FB681B699D
:10382000002B04D10023FB61BB68BB6103E0BB68D4
:10383000FB610023BB61FB68002283F83C202AE087
:103840003B6800937B6900228021F86800F0F9FC56
:103850000346002B01D0032336E0FB69002B0BD17C
:10386000BB691B881A46FB681B68C2F308025A60D2
:10387000BB690233BB6107E0FB691A78FB681B6810
:103880005A60FB690133FB61FB68DB8C9BB2013B37
:103890009AB2FB68DA84FB68DB8C9BB2002BCFD139
:1038A0003B6800937B6900224021F86800F0C9FC66
:1038B0000346002B01D0032306E0FB68202283F897
:1038C0003D20002300E0022318462037BD4680BD7E
:1038D00080B58CB000AFF860B9601346FB80FB6820
:1038E00093F83D30DBB2202B65D1BB68002B02D0B2
:1038F000FB88002B01D101235EE0FB6893F83C308C
:10390000012B01D1022357E0FB68012283F83C2000
:10391000BA68FB681A62FB68FA889A84FB68FA88BE
:10392000DA84FB6800221A64FB68212283F83D20B8
:10393000FB685B6B224ADA63FB685B6B214A1A64A3
:10394000FB685B6B204ADA64FB685B6B00221A65DC
:1039500007F10803FB62FB68586BFB6A1968FB6898
:103960001B6804331A46FB88FEF706FCFB681B68DD
:103970006FF040021A60FB68002283F83C20FB686D
:103980001B681433BB61BB6953E8003F7B617B69F3
:1039900043F08003BB62FB681B681433BA6A7A6227
:1039A0003B62396A7A6A41E80023FB61FB69002BBC
:1039B000E5D1002300E0022318463037BD4680BD24
:1039C0009D3F000837400008AF41000880B584B033
:1039D00000AFF860B9601346FB80FB6893F83E3097
:1039E000DBB2202B1DD1BB68002B02D0FB88002B43
:1039F00001D1012316E0FB6893F83C30012B01D183
:103A000002230FE0FB68012283F83C20FB680022C0
:103A10001A63FB881A46B968F86800F081FC03460F
:103A200000E0022318461037BD4680BD80B5BAB00D
:103A300000AF78607B681B681B68C7F8E4307B6860
:103A40001B68DB68C7F8E0307B681B685B69C7F8F8
:103A5000DC300023C7F8D8300023C7F8D430D7F8BB
:103A6000E43003F00F03C7F8D830D7F8D830002B74
:103A70000FD1D7F8E43003F02003002B09D0D7F89A
:103A8000E03003F02003002B03D0786800F0E9FD5C
:103A900056E2D7F8D830002B00F0DE80D7F8DC30C3
:103AA00003F00103002B06D1D7F8E03003F4907344
:103AB000002B00F0D180D7F8E43003F00103002B95
:103AC0000BD0D7F8E03003F48073002B05D07B686F
:103AD0001B6C43F001027B681A64D7F8E43003F0F2
:103AE0000403002B0BD0D7F8DC3003F00103002BCC
:103AF00005D07B681B6C43F002027B681A64D7F820
:103B0000E43003F00203002B0BD0D7F8DC3003F0D5
:103B10000103002B05D07B681B6C43F004027B681B
:103B20001A64D7F8E43003F00803002B11D0D7F85B
:103B3000E03003F02003002B05D1D7F8DC3003F090
:103B40000103002B05D07B681B6C43F008027B68E7
:103B50001A647B681B6C002B00F0ED81D7F8E43011
:103B600003F02003002B08D0D7F8E03003F0200347
:103B7000002B02D0786800F074FD7B681B685B69DD
:103B800003F04003402B0CBF01230023DBB2C7F836
:103B9000D4307B681B6C03F00803002B03D1D7F8EB
:103BA000D430002B4FD0786800F07CFC7B681B6819
:103BB0005B6903F04003402B41D17B681B681433E1
:103BC000C7F89C30D7F89C3053E8003FC7F89830CE
:103BD000D7F8983023F04003C7F8D0307B681B68D3
:103BE0001433D7F8D020C7F8A820C7F8A430D7F8E6
:103BF000A410D7F8A82041E80023C7F8A030D7F8D0
:103C0000A030002BD9D17B689B6B002B13D07B6835
:103C10009B6B7D4A1A657B689B6B1846FEF774FBAD
:103C20000346002B16D07B689B6B1B6D7A68926BEA
:103C3000104698470EE0786800F09AF90AE0786834
:103C400000F096F906E0786800F092F97B680022AF
:103C50001A6470E100BF6EE17B681B6B012B40F0C2
:103C60004A81D7F8E43003F01003002B00F04381C1
:103C7000D7F8E03003F01003002B00F03C81002364
:103C8000BB607B681B681B68BB607B681B685B68EC
:103C9000BB60BB687B681B685B6903F04003402B1B
:103CA00040F0B4807B689B6B1B685B68A7F8BE30F4
:103CB000B7F8BE30002B00F040817B689B8DB7F8D1
:103CC000BE209A4280F039817B68B7F8BE20DA8541
:103CD0007B689B6BDB69B3F5807F00F088807B6835
:103CE0001B680C33C7F88830D7F8883053E8003F9A
:103CF000C7F88430D7F8843023F48073C7F8B8301D
:103D00007B681B680C33D7F8B820C7F89420C7F835
:103D10009030D7F89010D7F8942041E80023C7F8E6
:103D20008C30D7F88C30002BD9D17B681B681433CA
:103D30007B677B6F53E8003F3B673B6F23F00103DA
:103D4000C7F8B4307B681B681433D7F8B420C7F8C1
:103D50008020FB67F96FD7F8802041E80023BB671C
:103D6000BB6F002BE1D17B681B6814333B663B6E55
:103D700053E8003FFB65FB6D23F04003C7F8B0300C
:103D80007B681B681433D7F8B020FA66BB66B96E3F
:103D9000FA6E41E800237B667B6E002BE3D17B68E3
:103DA000202283F83E207B6800221A637B681B6810
:103DB0000C33FB64FB6C53E8003FBB64BB6C23F02B
:103DC0001003C7F8AC307B681B680C33D7F8AC2005
:103DD000BA657B65796DBA6D41E800233B653B6D43
:103DE000002BE3D17B689B6B1846FEF71DFA7B68BE
:103DF0009A8D7B68DB8D9BB2D31A9BB2194678688B
:103E000000F0C0F899E000BF6B4500087B689A8D10
:103E10007B68DB8D9BB2D31AA7F8CE307B68DB8D35
:103E20009BB2002B00F08B80B7F8CE30002B00F057
:103E300086807B681B680C33BB63BB6B53E8003F19
:103E40007B637B6B23F49073C7F8C8307B681B6877
:103E50000C33D7F8C8207A643B64396C7A6C41E83B
:103E60000023FB63FB6B002BE3D17B681B681433DF
:103E70007B627B6A53E8003F3B623B6A23F00103AD
:103E8000C7F8C4307B681B681433D7F8C4203A6382
:103E9000FB62F96A3A6B41E80023BB62BB6A002B04
:103EA000E3D17B68202283F83E207B6800221A63DE
:103EB0007B681B680C333B613B6953E8003FFB6048
:103EC000FB6823F01003C7F8C0307B681B680C3315
:103ED000D7F8C020FA61BB61B969FA6941E80023EB
:103EE0007B617B69002BE3D1B7F8CE301946786847
:103EF00000F048F823E0D7F8E43003F08003002B0B
:103F000009D0D7F8E03003F08003002B03D07868A5
:103F100000F03FFB14E0D7F8E43003F04003002B3F
:103F20000ED0D7F8E03003F04003002B08D07868BB
:103F300000F07FFB04E000BF02E000BF00E000BF34
:103F4000E837BD4680BD00BF80B483B000AF786065
:103F500000BF0C37BD465DF8047B704780B483B06A
:103F600000AF786000BF0C37BD465DF8047B70473A
:103F700080B483B000AF786000BF0C37BD465DF8F9
:103F8000047B704780B483B000AF78600B467B80C1
:103F900000BF0C37BD465DF8047B704780B590B01C
:103FA00000AF78607B689B6BFB637B681B681B685A
:103FB00003F48073002B37D1FB6B0022DA84FB6B98
:103FC0001B6814337B627B6A53E8003F3B623B6AA9
:103FD00023F08003BB63FB6B1B681433BA6B3A633B
:103FE000FB62F96A3A6B41E80023BB62BB6A002BB3
:103FF000E5D1FB6B1B680C333B613B6953E8003F29
:10400000FB60FB6843F040037B63FB6B1B680C3376
:104010007A6BFA61BB61B969FA6941E800237B6197
:104020007B69002BE5D102E0F86B01F0ADFF00BF2A
:104030004037BD4680BD80B584B000AF78607B68F6
:104040009B6BFB60F868FFF77FFF00BF1037BD4632
:1040500080BD80B59CB000AF78607B689B6BFB66D1
:104060007B681B681B6803F48073002B72D1FB6EA6
:104070000022DA85FB6E1B680C33FB64FB6C53E893
:10408000003FBB64BB6C23F48073BB66FB6E1B6894
:104090000C33BA6EBA657B65796DBA6D41E8002361
:1040A0003B653B6D002BE5D1FB6E1B681433BB6396
:1040B000BB6B53E8003F7B637B6B23F001037B66A4
:1040C000FB6E1B6814337A6E7A643B64396C7A6CCD
:1040D00041E80023FB63FB6B002BE5D1FB6E1B6803
:1040E00014337B627B6A53E8003F3B623B6A23F0F8
:1040F00040033B66FB6E1B6814333A6E3A63FB6207
:10410000F96A3A6B41E80023BB62BB6A002BE5D138
:10411000FB6E202283F83E20FB6E1B6B012B19D116
:10412000FB6E1B680C333B613B6953E8003FFB604F
:10413000FB6823F01003FB65FB6E1B680C33FA6D04
:10414000FA61BB61B969FA6941E800237B617B6967
:10415000002BE5D1FB6E1B6B012B06D1FB6E9B8DFB
:104160001946F86EFFF70EFF02E0F86E01F02EFF21
:1041700000BF7037BD4680BD80B584B000AF7860A9
:104180007B689B6BFB60FB681B6B012B08D1FB689A
:104190009B8D5B089BB21946F868FFF7F3FE02E0BF
:1041A000F868FFF7DBFE00BF1037BD4680BD80B565
:1041B00084B000AF78600023FB607B689B6BBB60C2
:1041C000BB681B685B6903F08003802B0CBF012375
:1041D0000023DBB2FB60BB6893F83D30DBB2212BE0
:1041E00008D1FB68002B05D0BB680022DA84B868D0
:1041F00000F030F9BB681B685B6903F04003402B9B
:104200000CBF01230023DBB2FB60BB6893F83E3098
:10421000DBB2222B08D1FB68002B05D0BB68002243
:10422000DA85B86800F03EF9BB681B6C43F01002F9
:10423000BB681A64B868FFF79BFE00BF1037BD4625
:1042400080BD80B590B000AFF860B9603B601346A8
:10425000FB7150E0BB6CB3F1FF3F4CD0BB6C002B4B
:1042600007D0FDF709FD02463B68D31ABA6C9A42A3
:1042700041D2FB681B680C33BB62BB6A53E8003F4A
:104280007B627B6A23F4D073FB63FB681B680C338F
:10429000FA6B7A633B63396B7A6B41E80023FB620C
:1042A000FB6A002BE5D1FB681B6814337B617B69DB
:1042B00053E8003F3B613B6923F00103BB63FB68AC
:1042C0001B681433BA6B3A62FB61F9693A6A41E8D8
:1042D0000023BB61BB69002BE5D1FB68202283F87A
:1042E0003D20FB68202283F83E20FB68002283F8F3
:1042F0003C2003230FE0FB681B681A68BB6813406F
:10430000BA689A420CBF01230023DBB21A46FB793C
:104310009A429FD0002318464037BD4680BD00001A
:1043200080B598B000AFF860B9601346FB80BA68FA
:10433000FB689A62FB68FA889A85FB6800221A6417
:10434000FB68222283F83E20FB689B6B3E4ADA63BF
:10435000FB689B6B3D4A1A64FB689B6B3C4ADA64C2
:10436000FB689B6B00221A6507F10803FB65FB687D
:10437000986BFB681B6804331946FB6D1A68FB8851
:10438000FDF7FAFE00233B61FB681B681B683B617D
:10439000FB681B685B683B613B69FB68002283F834
:1043A0003C20FB681B680C333B643B6C53E8003FCC
:1043B000FB63FB6B43F48073BB65FB681B680C33CA
:1043C000BA6DFA64BB64B96CFA6C41E800237B6493
:1043D0007B6C002BE5D1FB681B681433FB62FB6A26
:1043E00053E8003FBB62BB6A43F001037B65FB6897
:1043F0001B6814337A6DBA637B63796BBA6B41E8DF
:1044000000233B633B6B002BE5D1FB681B68143337
:10441000BB61BB6953E8003F7B617B6943F04003AC
:104420003B65FB681B6814333A6D7A623B62396AFC
:104430007A6A41E80023FB61FB69002BE5D1002388
:1044400018466037BD4680BD5340000879410008DA
:10445000AF41000880B489B000AF78607B681B680A
:104460000C33FB60FB6853E8003FBB60BB6823F084
:10447000C003FB617B681B680C33FA69BA617B611E
:104480007969BA6941E800233B613B69002BE5D1BA
:104490007B68202283F83D2000BF2437BD465DF8AD
:1044A000047B704780B495B000AF78607B681B6870
:1044B0000C337B637B6B53E8003F3B633B6B23F424
:1044C0009073FB647B681B680C33FA6C3A64FB6383
:1044D000F96B3A6C41E80023BB63BB6B002BE5D161
:1044E0007B681B6814333B623B6A53E8003FFB6107
:1044F000FB6923F00103BB647B681B681433BA6C4F
:10450000FA62BB62B96AFA6A41E800237B627B6A9D
:10451000002BE5D17B681B6B012B19D17B681B68D5
:104520000C33FB60FB6853E8003FBB60BB6823F0C3
:1045300010037B647B681B680C337A6CBA617B6107
:104540007969BA6941E800233B613B69002BE5D1F9
:104550007B68202283F83E207B6800221A6300BF1C
:104560005437BD465DF8047B704780B584B000AF1A
:1045700078607B689B6BFB60FB680022DA85FB68D8
:104580000022DA84F868FFF7F3FC00BF1037BD465D
:1045900080BD80B485B000AF78607B6893F83D3013
:1045A000DBB2212B3ED17B689B68B3F5805F14D1D1
:1045B0007B681B69002B10D17B681B6AFB60FB6862
:1045C0001B881A467B681B68C2F308025A607B6826
:1045D0001B6A9A1C7B681A6208E07B681B6A591C7C
:1045E0007A6811621A787B681B685A607B68DB8C7A
:1045F0009BB2013B9BB27A681946D184002B0FD144
:104600007B681B68DA687B681B6822F08002DA60CE
:104610007B681B68DA687B681B6842F04002DA60DE
:10462000002300E0022318461437BD465DF8047BE2
:10463000704780B582B000AF78607B681B68DA682D
:104640007B681B6822F04002DA607B68202283F8D6
:104650003D20786801F098FC002318460837BD46D5
:1046600080BD80B58CB000AF78607B6893F83E3039
:10467000DBB2222B40F0AB807B689B68B3F5805F98
:1046800017D17B681B69002B13D10023FB627B6869
:104690009B6ABB627B681B685B689BB2C3F30803C1
:1046A0009AB2BB6A1A807B689B6A9A1C7B689A6282
:1046B00026E07B689B6AFB620023BB627B689B6889
:1046C000B3F5805F07D07B689B68002B0AD17B68BD
:1046D0001B69002B06D17B681B685B68DAB2FB6A3A
:1046E0001A7008E07B681B685B68DBB203F07F032D
:1046F000DAB2FB6A1A707B689B6A5A1C7B689A6202
:104700007B68DB8D9BB2013B9BB27A681946D185F1
:10471000002B5AD17B681B68DA687B681B6822F023
:104720002002DA607B681B68DA687B681B6822F409
:104730008072DA607B681B685A697B681B6822F0AC
:1047400001025A617B68202283F83E207B681B6B44
:10475000012B35D17B6800221A637B681B680C3300
:104760007B617B6953E8003F3B613B6923F01003A9
:104770007B627B681B680C337A6A3A62FB61F96979
:104780003A6A41E80023BB61BB69002BE5D17B6835
:104790001B681B6803F01003102B0AD10023FB6079
:1047A0007B681B681B68FB607B681B685B68FB6041
:1047B000FB687B689B8D19467868FFF7E3FB02E096
:1047C000786801F003FC002302E0002300E00223EC
:1047D00018463037BD4680BD2DE9B04FC0B000AFA0
:1047E000C7F8F400D7F8F4301B681B6923F4405075
:1047F000D7F8F430D968D7F8F4301A6840EA0103E2
:104800001361D7F8F4309A68D7F8F4301B691A436B
:10481000D7F8F4305B691A43D7F8F430DB691343F7
:10482000C7F8F830D7F8F4301B68DB6823F416417A
:1048300021F00C01D7F8F4301A68D7F8F8300B43A0
:10484000D360D7F8F4301B685B6923F44070D7F865
:10485000F4309969D7F8F4301A6840EA01035361DB
:10486000D7F8F4301A688F4B9A4205D0D7F8F43055
:104870001A688D4B9A4204D1FEF708FFC7F8FC0076
:1048800003E0FEF7EFFEC7F8FC00D7F8F430DB6971
:10489000B3F5004F40F00C81D7F8FC300022C7F888
:1048A000E830C7F8EC20D7E93A4522462B46911864
:1048B000B9655B41FB65D7E91623214612EB010878
:1048C000294643EB01094FF000024FF000034FEA85
:1048D000C90343EA58734FEAC802904699462346F3
:1048E00018EB0303C7F8E0302B4649EB0303C7F886
:1048F000E430D7F8F4305B680022C7F8D830C7F846
:10490000DC20D7E936120B46DB183B65134642EB39
:1049100003037B65D7E91423D7E93801FCF7B4F921
:1049200002460B46614BA3FB02235B091C01D7F82F
:10493000FC300022C7F8D030C7F8D420D7E934893A
:1049400042464B469118B9645B41FB64D7E9122398
:10495000414612EB010A494643EB010B4FF00002BE
:104960004FF000034FEACB0343EA5A734FEACA02FF
:1049700092469B4643461AEB0303C7F8C8304B46A2
:104980004BEB0303C7F8CC30D7F8F4305B68002258
:10499000C7F8C030C7F8C420D7E930120B46DB187F
:1049A0003B64134642EB03037B64D7E91023D7E94A
:1049B0003201FCF769F902460B4611463B4BA3FB5B
:1049C00001235B09642202FB03F3CB1ADB0003F132
:1049D0003202364BA3FB02235B095B0003F4F8733E
:1049E0001C44D7F8FC300022C7F8B830C7F8BC2008
:1049F000D7E92E8942464B469118B9635B41FB6368
:104A0000D7E90E2341465118396349464B417B6330
:104A10004FF000024FF00003D7E90CAB5946CB0032
:104A2000514643EA51735146CA001046194603469F
:104A300042469B18C7F8B0304B460A4642EB030388
:104A4000C7F8B430D7F8F4305B680022C7F8A83054
:104A5000C7F8AC20D7E92A120B46DB18BB62134615
:104A600042EB0303FB62D7E90A23D7E92C01FCF7E9
:104A70000BF902460B460D4BA3FB02135B096421A5
:104A800001FB03F3D31ADB003233084AA2FB0323F2
:104A90005B0903F00702D7F8F4301B6822449A60E0
:104AA00005E100BF00100140001401401F85EB51DB
:104AB000D7F8FC300022C7F8A030C7F8A420D7E907
:104AC000288942464B46911839625B417B62D7E99F
:104AD000082341465418494643EB01054FF00002B4
:104AE0004FF00003EB0043EA5473E20014461D4606
:104AF0004346E318C7F898304B4645EB0303C7F825
:104B00009C30D7F8F4305B680022C7F89030C7F8C3
:104B100094204FF000024FF00003D7E924452946C6
:104B20008B00214643EA917321468A00D7E926018A
:104B3000FCF7AAF802460B46604BA3FB02235B0975
:104B40001C01D7F8FC300022C7F88830C7F88C2049
:104B5000D7E9228942464B469118B9615B41FB6116
:104B6000D7E9062341465118396149464B417B61DB
:104B70004FF000024FF00003D7E904AB5946CB00D9
:104B8000514643EA51735146CA001046194603463E
:104B900042469B18C7F880304B460A4642EB030357
:104BA000C7F88430D7F8F4305B680022BB67FA6737
:104BB0004FF000024FF00003D7E91E8949468B00F1
:104BC000414643EA917341468A00D7E92001FCF748
:104BD0005BF802460B46394BA3FB02135B096421C9
:104BE00001FB03F3D31A1B013233344AA2FB032324
:104BF0005B0903F0F0031C44D7F8FC3000223B674C
:104C00007A67D7E91C8942464B469118B9605B41E7
:104C1000FB60D7E9022341465118396049464B41B0
:104C20007B604FF000024FF00003D7E900AB59461C
:104C3000CB00514643EA51735146CA00104619460B
:104C4000034642469B18BB664B460A4642EB0303AB
:104C5000FB66D7F8F4305B6800223B667A664FF05B
:104C600000024FF00003D7E9188949468B004146FE
:104C700043EA917341468A00D7E91A01FCF704F828
:104C800002460B460D4BA3FB02135B09642101FB9B
:104C900003F3D31A1B013233084AA2FB03235B0937
:104CA00003F00F02D7F8F4301B6822449A6000BF6B
:104CB00007F58077BD46BDE8B08F00BF1F85EB517B
:104CC00080B582B000AF78603960084802F0FAF928
:104CD000074A7B681360074A3B681360044B1B68F4
:104CE00001221A7000BF0837BD4680BD70AC0008B5
:104CF000300600203406002080B400AF034B1B6850
:104D00001846BD465DF8047B704700BF30060020A2
:104D100080B582B000AF78603960FCF7ADFF024625
:104D20007B681B68D31A3A689A4203D37B681B6876
:104D3000002B06D1FCF7A0FF02467B681A60012316
:104D400000E0002318460837BD4680BD80B500AF9F
:104D5000294B1B681846FEF7FAFC4FF4FA70FCF773
:104D600097FF254B1B68254A1A60234B1B684FF49D
:104D7000E1325A60204B1B684FF480529A601E4B00
:104D80001B680022DA601C4B1B684FF480621A61BA
:104D9000194B1B680C225A61174B1B6800229A6141
:104DA000154B1B680022DA61134B1B681846FEF78F
:104DB00081FC0346002B01D0FCF7E6FA104800F016
:104DC000F3FF0D4B1B6801220E491846FEF7FEFD4E
:104DD0000346002B01D0FCF7D7FA074B1B681B6872
:104DE0005B684FF4FA70FCF753FF074B1B687F2298
:104DF000DA7000BF80BD00BF3406002000440040D0
:104E0000180500202C0600203006002080B582B056
:104E100000AF78600B467B800A4B1B687A88796804
:104E20001846FEF755FD00BF074B1B7883F00103C2
:104E3000DBB2002BF8D1044B00221A7000BF0837F8
:104E4000BD4680BD340600205C13002080B483B0D2
:104E500000AF0346FB71FB7918460C37BD465DF881
:104E6000047B704780B483B000AF0346FB71FB79CD
:104E7000DB43DBB218460C37BD465DF8047B704758
:104E800090B583B000AF03460A46FB711346BB7171
:104E9000154B1B6801229A70134B1C68FB7918464E
:104EA000FFF7D4FF0346E3700F4B1C68FB791846ED
:104EB000FFF7D8FF034623710B4B1B680333BA7906
:104EC00092B211461846FFF7A1FF074B1B68DB782B
:104ED0001946054B1B681B791A46044802F06CF80A
:104EE00000BF0C37BD4690BD30060020C4AC0008A2
:104EF00080B582B000AF0023FB710C4B9B88012B67
:104F00000FD1FB1D1946094800F098FF0346012BFD
:104F100007D1FB79792B04D1054802F0D3F801239E
:104F200000E0002318460837BD4680BD1805002064
:104F3000F0AC000880B586B000AF0023BB75284BED
:104F40009B880E2B46D90023FB7511E007F1160351
:104F50001946234800F072FF0346012B05D1FB7D63
:104F6000BA7D18333B4403F8142CFB7D0133FB75E9
:104F7000FB7D0E2BEAD93B79792B2BD1BB7C792B8E
:104F800028D17A79174B1A71BA79164B5A71FA7976
:104F9000144B9A713A7A134BDA717A7A114B1A726E
:104FA000BA7A104B5A72FA7A0E4B9A723A7B0D4BC0
:104FB000DA727A7B0B4B1A73BA7B0A4B5A73FA7B01
:104FC000084B9A733A7C074BDA737A7C054B1A7458
:104FD000012300E0002318461837BD4680BD00BFFE
:104FE000180500203806002080B582B000AF0023ED
:104FF000BB71214B9B88042B39D90023FB7110E036
:10500000BB1D19461C4800F019FF0346002B05D0B4
:10501000FB79BA7908333B4403F8082CFB79013358
:10502000FB71FB79042BEBD93B78792B1FD13B79B2
:10503000792B1CD17A78114B9A74BA780F4BDA74A9
:10504000FA780E4B1A750D4BDB7C1B021AB20B4B18
:105050001B7D1BB213431BB29AB2084BDA82074B7B
:10506000DB8A1946064801F0A7FF012300E0002370
:1050700018460837BD4680BD1805002038060020B8
:1050800034AD000880B582B000AF0023FB71354B12
:105090001B7E042B60D801A252F823F0B150000807
:1050A000F150000809510008375100084551000827
:1050B0002D4B9B88002B4CD02C4802F003F8FB1D95
:1050C0001946294800F0BAFE0346012B41D1FB796D
:1050D000792B09D1234B01225A76254801F0F2FFA2
:1050E000204B01221A7634E01E4B04221A7630E05F
:1050F0004FF6FF73BB803B1D02211846FFF786FE6B
:10510000184B02221A7627E0174B9B88002B22D0DF
:10511000FB1D1946144800F091FE0346012B1AD1DD
:10512000FB79792B03D10F4B03221A7613E00D4B39
:1051300004221A760FE00B4B00225A760D4801F03C
:10514000C1FF09E0074B00225A760B4801F0BAFF75
:1051500002E000BF00E000BF024B1B7E184608378C
:10516000BD4680BD380600201805002070AD00083F
:10517000ACAD0008F0AD000838AE000880B584B0D2
:1051800000AF786039600023BB607B681D334FF44B
:1051900080720021184600F097FF0023FB810FE08A
:1051A0003B681B68BB60FB8918337A68134405337E
:1051B000BA681A603B6804333B60FB890433FB81A7
:1051C000FB89FF2BECD900BF00BF1037BD4680BD67
:1051D00080B58AB000AFF860B9601346FB80604BC1
:1051E0005B7A87F824305E4B5B7ADB43DBB287F86F
:1051F00025300023FB61002387F8203000233B8308
:105200000023FB75FB88002B04D1564801F05AFFA0
:105210000023A0E0FB88B3F5807F04D9524801F059
:1052200051FF002397E0514801F04CFF07F12403A0
:1052300002211846FFF7EAFD00BF4D4B9B88002B6B
:10524000FBD007F117031946494800F0F7FD034664
:10525000012B07D1FB7D792B04D0464801F032FFAA
:10526000002378E0FB681B0EDBB23B77FB681B0C6E
:10527000DBB27B77FB681B0ADBB2BB77FB68DBB278
:10528000FB773A7F7B7F5340DAB2BB7F5340DAB281
:10529000FB7F5340DBB287F8203007F11C03052168
:1052A0001846FFF7B3FD00BF314B9B88002BFBD0A6
:1052B00007F1170319462E4800F0C0FD0346012BE5
:1052C00007D1FB7D792B04D02B4801F0FBFE002396
:1052D00041E0FB88DBB2013BDBB23B763B7EDB434C
:1052E000DBB27B7607F1180302211846FFF78EFD2B
:1052F00000BF1F4B9B88002BFBD007F117031946FB
:105300001B4800F09BFD0346012B07D1FB7D792B49
:1053100004D0194801F0D6FE00231CE000BF144B56
:105320009B88FF2BFBD90023FB8410E007F11703B8
:1053300019460F4800F082FD0346012B04D1FB8C77
:10534000BA681344FA7D1A70FB8C0133FB84FB8C22
:10535000FF2BEBD9012318462837BD4680BD00BF7F
:105360003806002078AE0008A0AE0008F0AE0008B5
:10537000180500201CAF000848AF000880B5C6B073
:1053800000AF07F58C73A3F58673186007F58C736F
:10539000A3F58873196007F58C73A3F589731A80D8
:1053A0000023A7F816310023A7F8123107F58C73F4
:1053B000A3F586731B6819464E4801F0FDFD43E0D6
:1053C00007F58C73A3F589731A88B7F81631D31AC9
:1053D000A7F81231B7F81231B3F5807F28BF4FF428
:1053E0008073A7F81231002387F81131B7F816211E
:1053F00007F58C73A3F586731B68D018B7F81631C0
:1054000007F110021344B7F812211946FFF7E0FE26
:10541000034687F8113197F81131012B0DD0B7F8F9
:10542000162107F58C73A3F586731B681344194680
:10543000314801F0C1FD002357E0B7F81621B7F855
:1054400012311344A7F8163107F58C73A3F589734D
:10545000B7F816211B889A42B2D30023A7F814315B
:1054600036E0B7F8143107F58C72A2F5887212682D
:1054700013441A78B7F8143107F58C71A1F58471CB
:10548000CB5C9A421FD0B7F8142107F58C73A3F5B3
:1054900086731B6813441946B7F8143107F58C72EC
:1054A000A2F58872126813441B781846B7F81431B5
:1054B00007F58C72A2F58472D35C02460F4801F0A6
:1054C0007BFD002311E0B7F814310133A7F8143144
:1054D00007F58C73A3F58973B7F814211B889A42DA
:1054E000BFD3074801F0EEFD0123184607F58C777E
:1054F000BD4680BD74AF0008B0AF0008F0AF000833
:1055000038B0000880B5CCB000AF07F59873A3F5AC
:105510009273186007F59873A3F59473196007F5F3
:105520009873A3F595731A80B34BDB7A87F824310F
:10553000B14BDB7ADB43DBB287F825310023C7F8B8
:105540001C31002387F82031002387F82F3107F51D
:105550009873A3F58C7300221A600433FE22002195
:10556000184600F0B1FD07F59873A3F21913002255
:105570001A7007F59873A3F595731B88002B04D157
:105580009E4801F09FFD002330E107F59873A3F5D5
:1055900095731B88B3F5807F04D9994801F092FD7B
:1055A000002323E107F59873A3F592731B6803F0BA
:1055B0003003C7F82831D7F82831002B04D09148A0
:1055C00001F080FD002311E107F5927302211846D6
:1055D000FFF71CFC00BF8C4B9B88002BFBD007F116
:1055E00017031946884800F029FC0346012B0BD10C
:1055F00007F59873A3F219131B781F2B04D1834866
:1056000001F060FD0023F1E007F59873A3F59273B4
:105610001B681B0EDBB287F81C3107F59873A3F5E6
:1056200092731B681B0CDBB287F81D3107F598736A
:10563000A3F592731B681B0ADBB287F81E3107F5CE
:105640009873A3F592731B68DBB287F81F3197F844
:105650001C2197F81D315340DAB297F81E315340A0
:10566000DAB297F81F315340DBB287F8203107F5E3
:105670008E7305211846FFF7C9FB00BF624B9B885C
:10568000002BFBD007F1170319465F4800F0D6FB4B
:105690000346012B0BD107F59873A3F219131B785E
:1056A0001F2B04D15A4801F00DFD00239EE007F5A1
:1056B0009873A3F595731B8803339BB223F0030300
:1056C000A7F82631B7F82631DBB2013B87F82F3136
:1056D000B7F82631DBB2013BDAB207F59873A3F5D0
:1056E0008C731A700023A7F82C3123E0B7F82C3103
:1056F00007F59872A2F59472126813441A7897F815
:105700002F31534087F82F31B7F82C3107F59872B5
:10571000A2F5947212681A44B7F82C31013311784B
:1057200007F59872A2F58C72D154B7F82C31013379
:10573000A7F82C3107F59873A3F59573B7F82C21CA
:105740001B889A42D2D307F59873A3F595731B88EB
:10575000A7F82C3112E097F82F31DB4387F82F316F
:10576000B7F82C31013307F59872A2F58C72FF213E
:10577000D154B7F82C310133A7F82C31B7F82C21CC
:10578000B7F826319A42E6D3B7F82631013307F548
:105790009872A2F58C7297F82F11D154B7F8263170
:1057A00002339AB207F1180311461846FFF72EFB91
:1057B00000BF154B9B88002BFBD007F11703194640
:1057C000114800F03BFB0346012B0ED107F59873FF
:1057D000A3F219131B781F2B04D10E4801F072FCA1
:1057E000002303E00C4801F06DFC0123184607F587
:1057F0009877BD4680BD00BF3806002070B0000815
:105800009CB00008C8B00008180500201CAF0008B4
:1058100048AF0008F8B0000824B1000890B58BB07C
:1058200000AF514B7B62514B7B614F4B3B613A69FF
:105830007B691344FB6000237B843B69FB6100238D
:10584000BB61FB689AB23B699BB2D31A7B8100BFF4
:105850007BE0474B9B7E052B77D801A252F823F0C3
:105860007958000889580008C9580008F3580008FA
:105870004B59000849590008796A3D48FFF77EFCFA
:105880003B4B01229A7660E0FA68FB69D31A7B6091
:105890007B68B3F5807F28BF4FF480737B847A8C5C
:1058A0007989BB69CB1A934228BF13467B844FF496
:1058B00080723049F869FFF725FE0346002B44D07B
:1058C0002B4B02229A7640E04FF480722949F86906
:1058D000FFF754FD03461A46274B1A70264B1B78D8
:1058E000002B32D0244B00221A70214B03229A76CF
:1058F0002BE07B8CFA691344FB617B8CBA691344FF
:10590000BB617B8C7A6A13447B62FC697B8907EEFE
:10591000903AF8EEE77ADFED196A86EEA77ABB696E
:1059200007EE903AF8EE677A67EE277A17EE900A5C
:10593000FAF70AFE02460B462146114801F03CFBED
:105940000B4B00229A7600E000BFFA69FB689A428E
:1059500004D27B89BA699A42FFF47BAF01231846CF
:105960002C37BD4690BD00BF00000208B8B602004B
:105970003806002055060020580700200000C842C5
:105980005CB1000880B582B000AF0023FB710C4B06
:105990009B88012B0FD1FB1D1946094800F04EFAD8
:1059A0000346012B07D1FB79792B04D1054801F07F
:1059B00089FB012300E0002318460837BD4680BD5F
:1059C00018050020A8B1000880B500AF634B1B6824
:1059D000DB787F2B5BD07F2B00F3BC80442B00F067
:1059E0008F80442B00F3B680212B4DDC002BC0F2BE
:1059F000B180212B00F2AE8001A252F823F000BF4B
:105A0000A75A0008555B0008BF5A0008555B0008FC
:105A1000555B0008555B0008555B0008555B0008A6
:105A2000555B0008555B0008555B0008555B000896
:105A3000555B0008555B0008555B0008555B000886
:105A4000555B0008555B0008555B0008555B000876
:105A5000555B0008555B0008555B0008555B000866
:105A6000555B0008555B0008555B0008555B000856
:105A7000555B0008555B0008555B0008555B000846
:105A8000555B0008D75A0008312B2DD062E0FFF794
:105A90002FFA0346002B52D0314B00221A60314BB3
:105AA00001221A704BE0FFF745FA0346002B48D05D
:105AB0002B4B00221A602B4B02221A7041E0FFF799
:105AC00093FA0346002B3ED0254B00221A60254B4B
:105AD00003221A7037E0FFF755FF0346002B34D03E
