:020000040800F2
:1000000000000220691A0008E9170008EF1700082D
:10001000F5170008FB170008011800080000000091
:1000200000000000000000000000000007180008A9
:1000300015180008000000002318000831180008F7
:10004000B91A0008B91A0008B91A0008B91A000844
:10005000B91A0008B91A0008B91A0008B91A000834
:10006000B91A0008B91A0008B91A0008B91A000824
:10007000B91A00083D180008B91A000851180008FC
:100080006518000879180008B91A0008B91A00089C
:10009000B91A0008B91A0008B91A0008B91A0008F4
:1000A000B91A0008B91A0008B91A0008B91A0008E4
:1000B000B91A0008B91A0008B91A0008B91A0008D4
:1000C000B91A0008B91A0008B91A0008B91A0008C4
:1000D000B91A00088D180008A1180008B91A0008FC
:1000E000B91A0008B91A0008B91A0008B91A0008A4
:1000F000B91A0008B91A0008B91A0008B91A000894
:10010000B91A0008B91A0008B91A0008B91A000883
:10011000B5180008B91A0008B91A0008B91A000879
:10012000B91A0008B91A0008C9180008B91A000855
:10013000B91A00080000000000000000B91A000809
:10014000B91A0008B91A0008B91A0008B91A000843
:10015000B91A0008B91A0008DD180008B91A000811
:10016000B91A0008B91A0008B91A0008B91A000823
:10017000B91A0008B91A00080000000000000000C9
:08018000B91A0008B91A0008C1
:1001900010B5054C237833B9044B13B10448AFF3C1
:1001A00000800123237010BD3002002000000000F9
:1001B000BCA6000808B5034B1BB103490348AFF3C5
:1001C000008008BD0000000034020020BCA600082A
:1001D000034613F8012B002AFBD1181A0138704787
:1001E00001F0FF01102A2BDB10F0070F08D010F8E8
:1001F000013B013A8B422DD010F0070F42B3F6D1EC
:10020000F0B441EA012141EA014122F007047FF004
:1002100000070023F0E80256083C85EA010586EA5B
:10022000010685FA47F5A3FA87F586FA47F6A5FA97
:1002300087F68EB9EED1F0BC01F0FF0102F00702A3
:1002400032B110F8013B013A83EA010313B1F8D14E
:100250000020704701387047002D06BF354603382F
:10026000073815F0010F07D1013015F4807F02BF68
:10027000013015F4C03F0130F0BC0138704700BFB9
:1002800081F0004102E000BF83F0004330B54FEA47
:1002900041044FEA430594EA050F08BF90EA020FB4
:1002A0001FBF54EA000C55EA020C7FEA645C7FEA47
:1002B000655C00F0E2804FEA5454D4EB5555B8BF6A
:1002C0006D420CDD2C4480EA020281EA030382EADB
:1002D000000083EA010180EA020281EA0303362D6D
:1002E00088BF30BD11F0004F4FEA01314FF4801C40
:1002F0004CEA113102D0404261EB410113F0004F52
:100300004FEA03334CEA133302D0524263EB430308
:1003100094EA050F00F0A780A4F10104D5F1200EA6
:100320000DDB02FA0EFC22FA05F2801841F1000101
:1003300003FA0EF2801843FA05F359410EE0A5F1D5
:1003400020050EF1200E012A03FA0EFC28BF4CF006
:10035000020C43FA05F3C01851EBE37101F00045BC
:1003600007D54FF0000EDCF1000C7EEB00006EEBC9
:100370000101B1F5801F1BD3B1F5001F0CD3490853
:100380005FEA30004FEA3C0C04F101044FEA4452AA
:1003900012F5800F80F09A80BCF1004F08BF5FEA31
:1003A000500C50F1000041EB045141EA050130BD11
:1003B0005FEA4C0C404141EB0101013C28BFB1F523
:1003C000801FE9D291F0000F04BF01460020B1FA6E
:1003D00081F308BF2033A3F10B03B3F120020CDA41
:1003E0000C3208DD02F1140CC2F10C0201FA0CF01F
:1003F00021FA02F10CE002F11402D8BFC2F1200C84
:1004000001FA02F120FA0CFCDCBF41EA0C01904039
:10041000E41AA2BF01EB0451294330BD6FEA040482
:100420001F3C1CDA0C340EDC04F11404C4F120026D
:1004300020FA04F001FA02F340EA030021FA04F37F
:1004400045EA030130BDC4F10C04C4F1200220FAD6
:1004500002F001FA04F340EA0300294630BD21FA14
:1004600004F0294630BD94F0000F83F4801306BFDA
:1004700081F480110134013D4EE77FEA645C18BFCE
:100480007FEA655C29D094EA050F08BF90EA020F65
:1004900005D054EA000C04BF1946104630BD91EA5D
:1004A000030F1EBF0021002030BD5FEA545C05D160
:1004B0004000494128BF41F0004130BD14F580049F
:1004C0003CBF01F5801130BD01F0004545F0FE4113
:1004D00041F470014FF0000030BD7FEA645C1ABF48
:1004E000194610467FEA655C1CBF0B46024650EA7F
:1004F000013406BF52EA033591EA030F41F40021AB
:1005000030BD00BF90F0000F04BF0021704730B530
:100510004FF4806404F132044FF000054FF0000105
:1005200050E700BF90F0000F04BF0021704730B5C6
:100530004FF4806404F1320410F0004548BF40429B
:100540004FF000013EE700BF42004FEAE2014FEAF0
:1005500031014FEA02701FBF12F07F4393F07F4FCB
:1005600081F06051704732F07F4208BF704793F0CE
:100570007F4F04BF41F40021704730B54FF46074E1
:1005800001F0004521F000411CE700BF50EA0102E4
:1005900008BF704730B54FF000050AE050EA01028D
:1005A00008BF704730B511F0004502D5404261EBFD
:1005B00041014FF4806404F132045FEA915C3FF43E
:1005C000D8AE4FF003025FEADC0C18BF03325FEADB
:1005D000DC0C18BF033202EBDC02C2F1200300FA8C
:1005E00003FC20FA02F001FA03FE40EA0E0021FAB1
:1005F00002F11444BDE600BF70B54FF0FF0C4CF49F
:10060000E06C1CEA11541DBF1CEA135594EA0C0F50
:1006100095EA0C0F00F0DEF82C4481EA030621EA8B
:100620004C5123EA4C5350EA013518BF52EA0335C6
:1006300041F4801143F4801338D0A0FB02CE4FF078
:100640000005E1FB02E506F00042E0FB03E54FF0A8
:100650000006E1FB03569CF0000F18BF4EF0010EA0
:10066000A4F1FF04B6F5007F64F5407404D25FEA9C
:100670004E0E6D4146EB060642EAC62141EA55514F
:100680004FEAC52040EA5E504FEACE2EB4F1FD0C91
:1006900088BFBCF5E06F1ED8BEF1004F08BF5FEA0F
:1006A000500E50F1000041EB045170BD06F00046C1
:1006B00046EA010140EA020081EA0301B4EB5C046E
:1006C000C2BFD4EB0C0541EA045170BD41F4801166
:1006D0004FF0000E013C00F3AB8014F1360FDEBF8B
:1006E000002001F0004170BDC4F10004203C35DA67
:1006F0000C341BDC04F11404C4F1200500FA05F3EA
:1007000020FA04F001FA05F240EA020001F000428A
:1007100021F0004110EBD37021FA04F642EB060100
:100720005EEA430E08BF20EAD37070BDC4F10C042A
:10073000C4F1200500FA04F320FA05F001FA04F2EE
:1007400040EA020001F0004110EBD37041F10001DA
:100750005EEA430E08BF20EAD37070BDC4F12005E5
:1007600000FA05F24EEA020E20FA04F301FA05F24D
:1007700043EA020321FA04F001F0004121FA04F2F5
:1007800020EA020000EBD3705EEA430E08BF20EAC5
:10079000D37070BD94F0000F0FD101F000464000FF
:1007A00041EB010111F4801F08BF013CF7D041EA81
:1007B000060195F0000F18BF704703F00046520085
:1007C00043EB030313F4801F08BF013DF7D043EA56
:1007D0000603704794EA0C0F0CEA135518BF95EA0C
:1007E0000C0F0CD050EA410618BF52EA4306D1D193
:1007F00081EA030101F000414FF0000070BD50EAB2
:10080000410606BF1046194652EA430619D094EA3B
:100810000C0F02D150EA013613D195EA0C0F05D125
:1008200052EA03361CBF104619460AD181EA030179
:1008300001F0004141F0FE4141F470014FF0000031
:1008400070BD41F0FE4141F4780170BD70B54FF0CC
:10085000FF0C4CF4E06C1CEA11541DBF1CEA13554C
:1008600094EA0C0F95EA0C0F00F0A7F8A4EB05042E
:1008700081EA030E52EA03354FEA013100F0888025
:100880004FEA03334FF0805545EA131343EA1263EE
:100890004FEA022245EA111545EA10654FEA0026A3
:1008A0000EF000419D4208BF964244F1FD0404F55C
:1008B000407402D25B084FEA3202B61A65EB0305B8
:1008C0005B084FEA32024FF480104FF4002CB6EB75
:1008D000020E75EB030E22BFB61A754640EA0C00F5
:1008E0005B084FEA3202B6EB020E75EB030E22BF35
:1008F000B61A754640EA5C005B084FEA3202B6EB76
:10090000020E75EB030E22BFB61A754640EA9C0034
:100910005B084FEA3202B6EB020E75EB030E22BF04
:10092000B61A754640EADC0055EA060E18D04FEAC2
:10093000051545EA16754FEA06164FEAC30343EA62
:1009400052734FEAC2025FEA1C1CC0D111F4801F2F
:100950000BD141EA00014FF000004FF0004CB6E728
:1009600011F4801F04BF01430020B4F1FD0C88BFC7
:10097000BCF5E06F3FF6AFAEB5EB030C04BFB6EBD2
:10098000020C5FEA500C50F1000041EB045170BDC5
:100990000EF0004E4EEA113114EB5C04C2BFD4EBF2
:1009A0000C0541EA045170BD41F480114FF0000E76
:1009B000013C90E645EA060E8DE60CEA135594EAF2
:1009C0000C0F08BF95EA0C0F3FF43BAF94EA0C0FF5
:1009D0000AD150EA01347FF434AF95EA0C0F7FF46A
:1009E00025AF104619462CE795EA0C0F06D152EABE
:1009F00003353FF4FDAE1046194622E750EA4106A2
:100A000018BF52EA43067FF4C5AE50EA41047FF4B2
:100A10000DAF52EA43057FF4EBAE12E74FF0FF3C17
:100A200006E000BF4FF0010C02E000BF4FF0010CE8
:100A30004DF804CD4FEA410C7FEA6C5C4FEA430C61
:100A400018BF7FEA6C5C1BD001B050EA410C0CBFB0
:100A500052EA430C91EA030F02BF90EA020F002012
:100A6000704710F1000F91EA030F58BF994208BF79
:100A700090422CBFD8176FEAE37040F00100704736
:100A80004FEA410C7FEA6C5C02D150EA013C07D18D
:100A90004FEA430C7FEA6C5CD6D152EA033CD3D0D8
:100AA0005DF8040B704700BF8446104662468C46D2
:100AB0001946634600E000BF01B5FFF7B7FF002805
:100AC00048BF10F1000F01BD4DF808EDFFF7F4FF2E
:100AD0000CBF012000205DF808FB00BF4DF808EDB9
:100AE000FFF7EAFF34BF012000205DF808FB00BFDC
:100AF0004DF808EDFFF7E0FF94BF012000205DF8FE
:100B000008FB00BF4DF808EDFFF7CEFF94BF0120B2
:100B100000205DF808FB00BF4DF808EDFFF7C4FFAB
:100B200034BF012000205DF808FB00BF4FEA410CF4
:100B30007FEA6C5C02D150EA013C0AD14FEA430CD7
:100B40007FEA6C5C02D152EA033C02D14FF0000014
:100B500070474FF0010070474FEA410212F5001252
:100B600015D211D56FF47873B3EB625212D94FEAF4
:100B7000C12343F0004343EA505311F0004F23FADE
:100B800002F018BF404270474FF00000704750EA33
:100B9000013005D111F0004008BF6FF000407047F0
:100BA0004FF00000704700BF4A0011D212F500124A
:100BB00011D20DD56FF47873B3EB62520ED44FEAB5
:100BC000C12343F0004343EA505323FA02F0704735
:100BD0004FF00000704750EA013002D14FF0FF3073
:100BE00070474FF0000070474FEA4102B2F1E04316
:100BF00024BFB3F5001CDCF1FE5C0DD901F0004C04
:100C00004FEAC0024CEA5070B2F1004F40EB830053
:100C100008BF20F00100704711F0804F21D113F17F
:100C20003872BCBF01F00040704741F480114FEAB8
:100C30005252C2F11802C2F1200C10FA0CF320FA41
:100C400002F018BF40F001004FEAC1234FEAD3235E
:100C500003FA0CFC40EA0C0023FA02F34FEA4303C8
:100C6000CCE77FEA625307D150EA01331EBF4FF051
:100C7000FE4040F44000704701F0004040F0FE406C
:100C800040F40000704700BF53B94AB9002908BFBB
:100C900000281CBF4FF0FF314FF0FF3000F0A4B927
:100CA000ADF1080C6DE904CE00F03CF8DDF804E08D
:100CB000DDE9022304B0704738B500220023044662
:100CC0000D46FFF70BFF28B920462946BDE83840FE
:100CD00000F00AB8204605F1004100F005F8404256
:100CE00061EB410138BD00BFD0B50C4B0022064678
:100CF0000F46FFF781FCFFF757FF0446FFF702FCA2
:100D0000074B0022FFF778FC02460B463046394677
:100D1000FFF7BAFAFFF748FF2146D0BD0000F03DCB
:100D20000000F0412DE9F047089D04468C46002B59
:100D300040F083808A42174647D9B2FA82F242B124
:100D4000C2F1200024FA00F09140974040EA010CE3
:100D500094404FEA1748230CBCFBF8F61FFA87FEB5
:100D600008FB16C143EA014306FB0EF1994209D97B
:100D7000FB1806F1FF3080F01981994240F216818C
:100D8000023E3B445B1AA4B2B3FBF8F008FB1033FD
:100D900044EA034400FB0EFEA64509D93C1900F1C4
:100DA000FF3380F00581A64540F2028102383C44C1
:100DB00040EA0640A4EB0E0400261DB1D4400023F7
:100DC000C5E900433146BDE8F08702B9FFDEB2FA5B
:100DD00082F2002A50D1CB1B4FEA174E1FFA87F838
:100DE0000126B3FBFEFC210C0EFB1C3341EA034140
:100DF00008FB0CF38B4207D979180CF1FF3002D2B3
:100E00008B4200F2E9808446C91AA3B2B1FBFEF01E
:100E10000EFB101143EA014408FB00F8A04507D976
:100E20003C1900F1FF3302D2A04500F2D9801846E8
:100E3000A4EB080440EA0C40BFE78B4209D9002D1F
:100E400000F0B1800026C5E9000130463146BDE81A
:100E5000F087B3FA83F6002E4AD18B4202D3824246
:100E600000F2B880841A61EB030101208C46002D4A
:100E7000A8D0C5E9004CA5E7C2F1200320FA03F68B
:100E8000974001FA02F04FEA174ED9403043030C65
:100E9000B1FBFEF61FFA87F80EFB161143EA014379
:100EA00006FB08F1994204FA02F409D9FB1806F18D
:100EB000FF3C80F08D80994240F28A80023E3B44A4
:100EC0005B1A81B2B3FBFEF00EFB103341EA034123
:100ED00000FB08F38B4207D9791800F1FF3C73D26D
:100EE0008B4271D902383944CB1A40EA064678E77A
:100EF000C6F1200C03FA06F422FA0CF31C4320FA84
:100F00000CF701FA06F34FEA144E21FA0CF11F43D5
:100F10003B0CB1FBFEF91FFA84F80EFB191143EAF2
:100F2000014109FB08FA8A4502FA06F200FA06F3C3
:100F300008D9611809F1FF3048D28A4546D9A9F18C
:100F400002092144A1EB0A01BFB2B1FBFEF00EFB86
:100F5000101147EA014700FB08F8B84507D9E7191F
:100F600000F1FF312ED2B8452CD90238274440EA8F
:100F70000940A7EB0807A0FB02894F45C646494632
:100F80001AD317D05DB1B3EB0E0267EB010707FA76
:100F90000CFCF2404CEA0202F740C5E900270026AB
:100FA0003146BDE8F0872E4628460BE70646E9E6BF
:100FB0001846FDE64345E5D2B8EB020E69EB0401A5
:100FC0000138DFE70846D2E760468DE78146B9E79A
:100FD000664675E730464AE7ACF1020C394413E740
:100FE00002383C4424E700BF704700BF80B584B09E
:100FF00000AFF860B9607A607B689AB20A23B9687A
:10100000034802F072FB7B6818461037BD4680BD6E
:101010005C05002080B500AF0C4B1B689B6800216D
:10102000184605F0B3FD00F049FD00F011F800F09E
:101030004DF900F0F5F800F075F800F0C7F800F091
:101040009BF803F073FF04F0EFFCFCE75C0000206A
:1010500080B594B000AF07F120033022002118467C
:1010600004F0BAFD07F10C0300221A605A609A607E
:10107000DA601A610023BB60284B1B6C274A43F0DF
:1010800080531364254B1B6C03F08053BB60BB681B
:1010900000237B60224B1B68214A43F4804313608A
:1010A0001F4B1B6803F480437B607B6801233B621A
:1010B0004FF480337B620223BB634FF48003FB63F6
:1010C00004233B64A8237B640223BB640423FB64E6
:1010D00007F12003184601F047FE0346002B01D01C
:1010E00000F046F90F23FB6002233B6100237B6184
:1010F0004FF4A053BB614FF48053FB6107F10C0325
:101100000521184602F0A8F80346002B01D000F094
:101110002FF900BF5037BD4680BD00BF00380240E8
:101120000070004080B500AF114B124A1A60104B9E
:101130004FF4E1325A600E4B00229A600C4B0022B1
:10114000DA600B4B00221A61094B0C225A61084BE2
:1011500000229A61064B0022DA61054802F078FA13
:101160000346002B01D000F003F900BF80BD00BF93
:10117000A0050020004C004080B500AF114B124A82
:101180001A60104B4FF4E1325A600E4B00229A6005
:101190000C4B0022DA600B4B00221A61094B0C2227
:1011A0005A61084B00229A61064B0022DA61054819
:1011B00002F04EFA0346002B01D000F0D9F800BF30
:1011C00080BD00BF5C0500200010014080B500AF6D
:1011D000114B124A1A60104B4FF4E1325A600E4B19
:1011E00000229A600C4B0022DA600B4B00221A613D
:1011F000094B0C225A61084B00229A61064B0022CF
:10120000DA61054802F024FA0346002B01D000F011
:10121000AFF800BF80BD00BFE405002000440040DF
:1012200080B582B000AF00237B60274B1B6B264A42
:1012300043F400131363244B1B6B03F400137B6014
:101240007B6800233B60204B1B6B1F4A43F48003E9
:1012500013631D4B1B6B03F480033B603B68002250
:1012600000210D2000F09BFD0D2000F0B4FD0022B8
:1012700000210F2000F093FD0F2000F0ACFD0022B4
:101280000021102000F08BFD102000F0A4FD0022B2
:101290000021112000F083FD112000F09CFD0022B0
:1012A00000213A2000F07BFD3A2000F094FD00225E
:1012B0000021462000F073FD462000F08CFD00BFA9
:1012C0000837BD4680BD00BF0038024080B588B0F9
:1012D00000AF07F10C0300221A605A609A60DA60CE
:1012E0001A610023BB60204B1B6B1F4A43F00403B1
:1012F00013631D4B1B6B03F00403BB60BB6800232F
:101300007B60194B1B6B184A43F080031363164B29
:101310001B6B03F080037B607B6800233B60124BF8
:101320001B6B114A43F0010313630F4B1B6B03F05C
:1013300001033B603B6801224FF460410B4801F020
:10134000F9FC4FF46043FB6001233B6100237B61A8
:101350000023BB6107F10C031946044801F04EFB62
:1013600000BF2037BD4680BD003802400008024063
:1013700080B500AF72B600BF034805F0EFFB4FF435
:101380007A7000F00DFCF7E7D8A6000880B483B0AF
:1013900000AF00237B60104B5B6C0F4A43F480432B
:1013A00053640D4B5B6C03F480437B607B680023CC
:1013B0003B60094B1B6C084A43F080531364064B97
:1013C0001B6C03F080533B603B6800BF0C37BD468D
:1013D0005DF8047B704700BF0038024080B58EB0D6
:1013E00000AF786007F1240300221A605A609A6007
:1013F000DA601A617B681B68984A934240F09580D6
:1014000000233B62964B1B6C954A43F40023136404
:10141000934B1B6C03F400233B623B6A0023FB618C
:101420008F4B1B6B8E4A43F0040313638C4B1B6B77
:1014300003F00403FB61FB694FF440637B6202230A
:10144000BB620023FB6203233B6308237B6307F13A
:1014500024031946834801F0D1FA834B834A1A606A
:10146000814B4FF000625A607F4B40229A607E4B66
:101470000022DA607C4B4FF480621A617A4B0022C2
:101480005A61794B00229A61774B0022DA61764BE0
:101490004FF400321A62744B00225A62724800F014
:1014A000B5FC0346002B01D0FFF762FF7B686E4A54
:1014B0005A636D4A7B6893636D4B6E4A1A606C4B3E
:1014C0004FF000625A606A4B00229A60684B00221B
:1014D000DA60674B4FF480621A61654B00225A61F3
:1014E000634B00229A61624B4FF48072DA61604B69
:1014F0004FF400321A625E4B00225A625C4800F0E0
:1015000085FC0346002B01D0FFF732FF7B68584A69
:101510009A63574A7B68936300220021342000F0CD
:101520003EFC342000F057FC4BE17B681B68524ABC
:10153000934240F0AD800023BB61494B5B6C484A4D
:1015400043F010035364464B5B6C03F01003BB6124
:10155000BB6900237B61424B1B6B414A43F0010393
:1015600013633F4B1B6B03F001037B617B694FF4FB
:10157000C0637B620223BB620023FB6203233B63E5
:1015800007237B6307F1240319463C4801F036FA30
:101590003B4B3C4A1A603A4B4FF000625A60384B62
:1015A00040229A60364B0022DA60354B4FF480625D
:1015B0001A61334B00225A61314B00229A61304B41
:1015C0000022DA612E4B00221A622D4B00225A6251
:1015D0002B4800F01BFC0346002B01D0FFF7C8FE90
:1015E0007B68274A5A63264A7B689363264B274ABF
:1015F0001A60254B4FF000625A60234B00229A601C
:10160000214B0022DA60204B4FF480621A611E4B9E
:1016100000225A611C4B00229A611B4B4FF48072CE
:10162000DA61194B00221A62174B00225A621648DF
:1016300000F0ECFB0346002B01D0FFF799FE7B681E
:10164000114A9A63104A7B68936300220021252087
:1016500000F0A5FB252000F0BEFBB2E0004C0040EE
:101660000038024000080240280600207060024056
:101670007C03002040600240001001400000024056
:101680003C040020B86402409C04002040640240F6
:101690007B681B684D4A934240F0938000233B6176
:1016A0004B4B1B6C4A4A43F400331364484B1B6C8E
:1016B00003F400333B613B690023FB60444B1B6B2D
:1016C000434A43F001031363414B1B6B03F00103D7
:1016D000FB60FB680C237B620223BB620023FB627E
:1016E00003233B6307237B6307F12403194639482F
:1016F00001F084F9384B394A1A60374B4FF00062D9
:101700005A60354B40229A60334B0022DA60324BEC
:101710004FF480621A61304B00225A612E4B002236
:101720009A612D4B0022DA612B4B4FF400321A6282
:10173000294B00225A62284800F068FB0346002B20
:1017400001D0FFF715FE7B68234A5A63224A7B6863
:101750009363234B234A1A60214B4FF000625A6077
:101760001F4B00229A601E4B0022DA601C4B4FF484
:1017700080621A611A4B00225A61194B00229A6149
:10178000174B4FF48072DA61154B4FF400321A6236
:10179000134B00225A62124800F038FB0346002B1C
:1017A00001D0FFF7E5FD7B680D4A9A630C4A7B6820
:1017B000936300220021262000F0F1FA262000F099
:1017C0000AFB00BF3837BD4680BD00BF0044004063
:1017D0000038024000000240FC040020A0600240EB
:1017E000DC0300208860024080B400AFFEE780B4D4
:1017F00000AFFEE780B400AFFEE780B400AFFEE7C5
:1018000080B400AFFEE780B400AF00BFBD465DF816
:10181000047B704780B400AF00BFBD465DF8047B19
:10182000704780B400AF00BFBD465DF8047B7047D1
:1018300080B500AF00F094F900BF80BD80B500AF67
:10184000024800F07BFC00BF80BD00BF7C0300208D
:1018500080B500AF024800F071FC00BF80BD00BF42
:101860002806002080B500AF024800F067FC00BFEA
:1018700080BD00BFDC03002080B500AF024800F04F
:101880005DFC00BF80BD00BFFC04002080B500AF40
:10189000024802F06BF800BF80BD00BF5C0500206D
:1018A00080B500AF024802F061F800BF80BD00BF04
:1018B000E405002080B500AF024802F057F800BFF1
:1018C00080BD00BFA005002080B500AF024800F039
:1018D00035FC00BF80BD00BF9C04002080B500AF78
:1018E000024800F02BFC00BF80BD00BF3C0400207C
:1018F00080B400AF01231846BD465DF8047B7047F5
:1019000080B582B000AF7860396004F01DF90346FD
:1019100016221A604FF0FF3318460837BD4680BDC7
:1019200080B582B000AF78604FF0FF317868FFF784
:10193000E7FFFEE780B586B000AFF860B9607A6077
:1019400000237B610AE0AFF300800146BB685A1CAC
:10195000BA60CAB21A707B6901337B617A697B68AD
:101960009A42F0DB7B6818461837BD4680BD80B4CC
:1019700083B000AF78604FF0FF3318460C37BD4698
:101980005DF8047B704780B483B000AF7860396045
:101990003B684FF400525A60002318460C37BD468E
:1019A0005DF8047B704780B483B000AF786001239A
:1019B00018460C37BD465DF8047B704780B485B08F
:1019C00000AFF860B9607A60002318461437BD464E
:1019D0005DF8047B7047000080B586B000AF78608A
:1019E000144A154BD31A7B617B693B61134B1B680F
:1019F000002B02D1114B124A1A60104B1A687B68F7
:101A000013443A699A4207D204F09EF803460C2226
:101A10001A604FF0FF3309E0084B1B68FB60074B6F
:101A20001A687B681344054A1360FB681846183728
:101A3000BD4680BD00000220000400004C020020D2
:101A4000B01D002080B400AF064BD3F88830054AA3
:101A500043F47003C2F8883000BFBD465DF8047BD4
:101A6000704700BF00ED00E0DFF834D00D480E49AC
:101A70000E4A002302E0D458C4500433C4188C42E8
:101A8000F9D30B4A0B4C002301E013600432A2424D
:101A9000FBD3FFF7D7FF04F05DF8FFF7BBFA704701
:101AA00000000220000000203002002074B800086E
:101AB00030020020B01D0020FEE7000080B500AF1E
:101AC0000E4B1B680D4A43F4007313600B4B1B68ED
:101AD0000A4A43F480631360084B1B68074A43F4C7
:101AE00080731360032000F04FF90F2000F008F816
:101AF000FFF74CFC0023184680BD00BF003C0240AD
:101B000080B582B000AF7860124B1A68124B1B7818
:101B100019464FF47A73B3FBF1F3B2FBF3F31846B3
:101B200000F067F90346002B01D001230EE07B682B
:101B30000F2B0AD8002279684FF0FF3000F02FF900
:101B4000064A7B681360002300E00123184608372B
:101B5000BD4680BD000000200800002004000020D9
:101B600080B400AF064B1B781A46064B1B68134423
:101B7000044A136000BFBD465DF8047B704700BF98
:101B8000080000208806002080B400AF034B1B68CB
:101B90001846BD465DF8047B704700BF88060020EC
:101BA00080B584B000AF7860FFF7EEFFB8607B6867
:101BB000FB60FB68B3F1FF3F05D00A4B1B781A4668
:101BC000FB681344FB6000BFFFF7DEFF0246BB6803
:101BD000D31AFA689A42F7D800BF00BF1037BD4643
:101BE00080BD00BF0800002080B485B000AF7860E1
:101BF0007B6803F00703FB600C4BDB68BB60BA68D3
:101C00004FF6FF031340BB60FB681A02BB68134327
:101C100043F0BF6343F40033BB60044ABB68D36046
:101C200000BF1437BD465DF8047B704700ED00E04F
:101C300080B400AF044BDB681B0A03F007031846AF
:101C4000BD465DF8047B704700ED00E080B483B0D2
:101C500000AF0346FB7197F90730002B0BDBFB79D4
:101C600003F01F02074997F907305B09012000FACA
:101C700002F241F8232000BF0C37BD465DF8047B1B
:101C8000704700BF00E100E080B483B000AF0346BE
:101C90003960FB7197F90730002B0ADB3B68DAB239
:101CA0000C4997F907301201D2B20B4483F8002394
:101CB0000AE03B68DAB20849FB7903F00F03043B02
:101CC0001201D2B20B441A7600BF0C37BD465DF844
:101CD000047B704700E100E000ED00E080B489B0D3
:101CE00000AFF860B9607A60FB6803F00703FB613E
:101CF000FB69C3F10703042B28BF0423BB61FB6905
:101D00000433062B02D9FB69033B00E000237B610F
:101D10004FF0FF32BB6902FA03F3DA43BB681A40A3
:101D20007B699A404FF0FF317B6901FA03F3D94395
:101D30007B680B40134318462437BD465DF8047B8F
:101D40007047000080B582B000AF78607B68013BCF
:101D5000B3F1807F01D301230FE00A4A7B68013B86
:101D600053600F214FF0FF30FFF78EFF054B00222D
:101D70009A60044B07221A60002318460837BD46B4
:101D800080BD00BF10E000E080B582B000AF786099
:101D90007868FFF729FF00BF0837BD4680BD80B5D2
:101DA00086B000AF0346B9607A60FB7300237B61A5
:101DB000FFF73EFF78617A68B9687869FFF78EFFB0
:101DC000024697F90F3011461846FFF75DFF00BF36
:101DD0001837BD4680BD80B582B000AF0346FB71A9
:101DE00097F907301846FFF731FF00BF0837BD46A7
:101DF00080BD80B582B000AF78607868FFF7A2FF41
:101E0000034618460837BD4680BD000080B586B041
:101E100000AF786000237B61FFF7B6FE38617B6816
:101E2000002B01D1012399E07B68022283F8352041
:101E30007B68002283F834207B681B681A687B6803
:101E40001B6822F001021A600FE0FFF79DFE0246B8
:101E50003B69D31A052B08D97B6820225A657B6819
:101E6000032283F83520032378E07B681B681B6816
:101E700003F00103002BE8D17B681B681B687B61C2
:101E80007A69384B13407B617B685A687B689B6832
:101E90001A437B68DB681A437B681B691A437B68BB
:101EA0005B691A437B689B691A437B68DB691A4349
:101EB0007B681B6A13437A6913437B617B685B6AA7
:101EC000042B07D17B68DA6A7B681B6B13437A6942
:101ED00013437B617B681B687A691A607B681B68A7
:101EE0005B697B617B6923F007037B617B685B6ACD
:101EF0007A6913437B617B685B6A042B17D17B682B
:101F00009B6A7A6913437B617B68DB6A002B0ED086
:101F1000786800F001FB0346002B08D07B68402264
:101F20005A657B68012283F83520012316E07B681F
:101F30001B687A695A61786800F0B8FA0346FB605A
:101F40007B68DB6D3F229A40FB689A607B680022C9
:101F50005A657B68012283F835200023184618371C
:101F6000BD4680BD3F8010F080B586B000AFF86000
:101F7000B9607A603B600023FB75FB689B6D3B6139
:101F8000FB6893F83430012B01D1022340E0FB6859
:101F9000012283F83420FB6893F83530DBB2012B43
:101FA0002FD1FB68022283F83520FB6800225A6596
:101FB0003B687A68B968F86800F04AFAFB68DB6D3C
:101FC0003F229A403B699A60FB681B681A68FB686D
:101FD0001B6842F016021A60FB681B6C002B07D0CE
:101FE000FB681B681A68FB681B6842F008021A60ED
:101FF000FB681B681A68FB681B6842F001021A60E4
:1020000005E0FB68002283F834200223FB75FB7D8A
:1020100018461837BD4680BD80B584B000AF7860E3
:102020007B689B6DFB60FFF7AFFDB8607B6893F842
:102030003530DBB2022B08D07B6880225A657B6882
:10204000002283F83420012352E07B681B681A6861
:102050007B681B6822F016021A607B681B685A694D
:102060007B681B6822F080025A617B681B6C002B26
:1020700003D17B689B6C002B07D07B681B681A68B8
:102080007B681B6822F008021A607B681B681A686C
:102090007B681B6822F001021A6013E0FFF774FDF1
:1020A0000246BB68D31A052B0CD97B6820225A65DF
:1020B0007B68032283F835207B68002283F8342074
:1020C000032315E07B681B681B6803F00103002BEA
:1020D000E4D17B68DB6D3F229A40FB689A607B68A5
:1020E000012283F835207B68002283F83420002306
:1020F00018461037BD4680BD80B483B000AF78600D
:102100007B6893F83530DBB2022B04D07B688022E9
:102110005A6501230CE07B68052283F835207B6833
:102120001B681A687B681B6822F001021A60002392
:1021300018460C37BD465DF8047B704780B586B005
:1021400000AF78600023BB60924B1B68924AA2FBF1
:1021500003239B0A7B617B689B6D3B613B691B682A
:10216000FB607B68DB6D08229A40FB681340002B04
:102170001AD07B681B681B6803F00403002B13D084
:102180007B681B681A687B681B6822F004021A606F
:102190007B68DB6D08229A403B699A607B685B6DC7
:1021A00043F001027B685A657B68DB6D01229A402F
:1021B000FB681340002B12D07B681B685B6903F03F
:1021C0008003002B0BD07B68DB6D01229A403B69BA
:1021D0009A607B685B6D43F002027B685A657B689E
:1021E000DB6D04229A40FB681340002B12D07B6801
:1021F0001B681B6803F00203002B0BD07B68DB6DB0
:1022000004229A403B699A607B685B6D43F004024C
:102210007B685A657B68DB6D10229A40FB6813402F
:10222000002B43D07B681B681B6803F00803002B5E
:102230003CD07B68DB6D10229A403B699A607B68DA
:102240001B681B6803F48023002B18D07B681B6875
:102250001B6803F40023002B08D17B681B6C002B48
:1022600024D07B681B6C786898471FE07B689B6C68
:10227000002B1BD07B689B6C7868984716E07B68C6
:102280001B681B6803F48073002B07D17B681B68F5
:102290001A687B681B6822F008021A607B681B6C56
:1022A000002B03D07B681B6C786898477B68DB6DDC
:1022B00020229A40FB681340002B00F08E807B6840
:1022C0001B681B6803F01003002B00F086807B68FE
:1022D000DB6D20229A403B699A607B6893F8353029
:1022E000DBB2052B36D17B681B681A687B681B68DC
:1022F00022F016021A607B681B685A697B681B68AB
:1023000022F080025A617B681B6C002B03D17B6832
:102310009B6C002B07D07B681B681A687B681B6866
:1023200022F008021A607B68DB6D3F229A403B690D
:102330009A607B68012283F835207B68002283F84D
:1023400034207B681B6D002B7DD07B681B6D78680B
:10235000984778E07B681B681B6803F48023002B98
:102360001CD07B681B681B6803F40023002B08D17A
:102370007B685B6C002B30D07B685B6C786898471F
:102380002BE07B68DB6B002B27D07B68DB6B7868EE
:10239000984722E000000020B5814E1B7B681B6837
:1023A0001B6803F48073002B0FD17B681B681A68CD
:1023B0007B681B6822F010021A607B68012283F898
:1023C00035207B68002283F834207B68DB6B002B90
:1023D00003D07B68DB6B786898477B685B6D002B6C
:1023E00032D07B685B6D03F00103002B22D07B6849
:1023F000052283F835207B681B681A687B681B6898
:1024000022F001021A60BB680133BB607A699A420C
:1024100007D37B681B681B6803F00103002BF2D114
:1024200000E000BF7B68012283F835207B68002232
:1024300083F834207B68DB6C002B05D07B68DB6C79
:102440007868984700E000BF1837BD4680BD00BFE0
:1024500080B485B000AFF860B9607A603B60FB681B
:102460001B681A68FB681B6822F480221A60FB68EC
:102470001B683A685A60FB689B68402B08D1FB6870
:102480001B687A689A60FB681B68BA68DA6007E0C4
:10249000FB681B68BA689A60FB681B687A68DA6038
:1024A00000BF1437BD465DF8047B704780B485B02B
:1024B00000AF78607B681B68DBB2103B144AA2FB5C
:1024C00003231B09FB60134AFB6813441B781A465D
:1024D0007B68DA65FB68032B09D97B681B6823F4EA
:1024E0007F7323F003031A1D7B689A6507E07B68FE
:1024F0001B6823F47F7323F003037A6893657B687A
:102500009B6D18461437BD465DF8047B704700BFCD
:10251000ABAAAAAAA4B3000880B485B000AF7860C3
:102520000023FB737B689B6ABB607B689B69002B05
:102530001FD1BB68032B56D801A252F823F000BF6D
:10254000512500086325000851250008E7250008EB
:102550007B68DB6A03F08073002B46D00123FB739A
:1025600043E07B68DB6AB3F1C07F40D10123FB739A
:102570003DE07B689B69B3F5005F21D1BB68032B0D
:1025800037D801A252F823F0992500089F250008AA
:1025900099250008B12500080123FB7330E07B6812
:1025A000DB6A03F08073002B25D00123FB7322E04C
:1025B0007B68DB6AB3F1C07F1FD10123FB731CE092
:1025C000BB68022B03D9BB68032B03D018E001239F
:1025D000FB7315E07B68DB6A03F08073002B0ED081
:1025E0000123FB730BE000BF0AE000BF08E000BF5F
:1025F00006E000BF04E000BF02E000BF00E000BF53
:10260000FB7B18461437BD465DF8047B704700BF5E
:1026100080B483B000AF0023FB710B4B1B69002B10
:102620000BDA094B094A5A60074B094A5A60064BB4
:102630001B69002B01DA0123FB71FB7918460C376B
:10264000BD465DF8047B7047003C024023016745AE
:10265000AB89EFCD80B400AF054B1B69044A43F052
:102660000043136100231846BD465DF8047B7047A4
:10267000003C024080B400AF034BDB691846BD4606
:102680005DF8047B704700BF8C06002080B584B0E5
:1026900000AF78600023FB601A4B0022DA61FFF77D
:1026A00073FAF86010E07B68B3F1FF3F0CD07B68F1
:1026B000002B07D0FFF768FA0246FB68D31A7A6846
:1026C0009A4201D2032319E00F4BDB6803F48033F5
:1026D000002BE8D10C4BDB6803F00103002B02D088
:1026E000094B0122DA60084BDB6803F0F203002B90
:1026F00003D000F00BF8012300E000231846103748
:10270000BD4680BD8C060020003C024080B400AF76
:10271000274BDB6803F01003002B08D0254BDB6947
:1027200043F01003234AD361214B1022DA60204B7F
:10273000DB6803F02003002B08D01E4BDB6943F05D
:1027400008031C4AD3611A4B2022DA60184BDB685D
:1027500003F04003002B08D0164BDB6943F0040361
:10276000144AD361124B4022DA60114BDB6803F04C
:102770008003002B08D00F4BDB6943F002030D4AA6
:10278000D3610B4B8022DA60094BDB6803F0020354
:10279000002B08D0074BDB6943F02003054AD361C7
:1027A000034B0222DA6000BFBD465DF8047B704730
:1027B000003C02408C06002080B584B000AF7860F9
:1027C00039600123FB730023BB60314B1B7E012B5F
:1027D00001D1022358E02E4B01221A764CF25030E0
:1027E000FFF754FF0346FB73FB7B002B48D13B688C
:1027F0004FF0FF321A607B681B68012B15D17B6894
:102800001B69DAB27B685B681946104600F044F831
:102810004CF25030FFF73AFF0346FB731D4B1B6928
:102820001C4A23F00403136128E07B689B68BB60AB
:102830001CE07B681B69DBB21946B86800F050F8F1
:102840004CF25030FFF722FF0346FB73114B1B691C
:10285000104A23F0FA031361FB7B002B03D03B6883
:10286000BA681A600AE0BB680133BB607B68DA684B
:102870007B689B681344BA689A42DAD300F078F810
:10288000034B00221A76FB7B18461037BD4680BDED
:102890008C060020003C024080B483B000AF0346A9
:1028A0003960FB710D4B1B690C4A23F440731361B3
:1028B0000A4B1B69094A43F004031361074B1A6969
:1028C000FB791B021343054A43F48033136100BFB5
:1028D0000C37BD465DF8047B704700BF003C0240EA
:1028E00080B485B000AF78600B46FB700023FB60BE
:1028F000FB78002B02D10023FB6010E0FB78012B5A
:1029000003D14FF48073FB6009E0FB78022B03D105
:102910004FF40073FB6002E04FF44073FB60134B15
:102920001B69124A23F440731361104B1A690F4953
:10293000FB6813430B610D4B1B690C4A23F0F80332
:1029400013610A4B1A697B68DB001343074A43F0A3
:1029500002031361054B1B69044A43F4803313617E
:1029600000BF1437BD465DF8047B7047003C024051
:1029700080B400AF204B1B6803F40073002B17D00A
:102980001D4B1B681C4A23F4007313601A4B1B6811
:10299000194A43F400631360174B1B68164A23F46B
:1029A00000631360144B1B68134A43F400731360F5
:1029B000114B1B6803F48063002B17D00E4B1B6870
:1029C0000D4A23F4806313600B4B1B680A4A43F4DF
:1029D00080531360084B1B68074A23F4805313602D
:1029E000054B1B68044A43F48063136000BFBD4677
:1029F0005DF8047B704700BF003C024080B489B0A2
:102A000000AF7860396000237B6100233B610023C5
:102A1000BB610023FB616BE10122FB6902FA03F356
:102A20007B613B681B687A6913403B613A697B694B
:102A30009A4240F05A813B685B6803F00303012B24
:102A400005D03B685B6803F00303022B30D17B6841
:102A50009B68BB61FB695B00032202FA03F3DB4363
:102A6000BA691340BB613B68DA68FB695B0002FA34
:102A700003F3BA691343BB617B68BA699A607B68E8
:102A80005B68BB610122FB6902FA03F3DB43BA69AD
:102A90001340BB613B685B681B0903F00102FB69E3
:102AA00002FA03F3BA691343BB617B68BA695A60DF
:102AB0003B685B6803F00303032B17D07B68DB687C
:102AC000BB61FB695B00032202FA03F3DB43BA69D3
:102AD0001340BB613B689A68FB695B0002FA03F331
:102AE000BA691343BB617B68BA69DA603B685B68AB
:102AF00003F00303022B23D1FB69DA087B68083259
:102B000053F82230BB61FB6903F007039B000F22DF
:102B100002FA03F3DB43BA691340BB613B681A69ED
:102B2000FB6903F007039B0002FA03F3BA6913433E
:102B3000BB61FB69DA087B680832B96943F8221087
:102B40007B681B68BB61FB695B00032202FA03F32D
:102B5000DB43BA691340BB613B685B6803F0030267
:102B6000FB695B0002FA03F3BA691343BB617B683C
:102B7000BA691A603B685B6803F44033002B00F0CD
:102B8000B4800023FB60604B5B6C5F4A43F480437E
:102B900053645D4B5B6C03F48043FB60FB685B4AF2
:102BA000FB699B08023352F82330BB61FB6903F0D9
:102BB00003039B000F2202FA03F3DB43BA691340BD
:102BC000BB617B68524A93422BD07B68514A934247
:102BD00025D07B68504A93421FD07B684F4A93426E
:102BE00019D07B684E4A934213D07B684D4A93427A
:102BF0000DD07B684C4A934207D07B684B4A934286
:102C000001D107230EE008230CE006230AE0052388
:102C100008E0042306E0032304E0022302E001238A
:102C200000E00023FA6902F0030292009340BA69BF
:102C30001343BB613549FB699B080233BA6941F80C
:102C400023203B4B1B68BB613B69DB43BA691340E4
:102C5000BB613B685B6803F48033002B03D0BA6927
:102C60003B691343BB61324ABB691360304B5B68FD
:102C7000BB613B69DB43BA691340BB613B685B687E
:102C800003F40033002B03D0BA693B691343BB61E3
:102C9000274ABB695360264B9B68BB613B69DB439A
:102CA000BA691340BB613B685B6803F48013002B77
:102CB00003D0BA693B691343BB611D4ABB6993608A
:102CC0001B4BDB68BB613B69DB43BA691340BB61EB
:102CD0003B685B6803F40013002B03D0BA693B69BF
:102CE0001343BB61124ABB69D360FB690133FB61CB
:102CF000FB690F2B7FF690AE00BF00BF2437BD46A7
:102D00005DF8047B704700BF003802400038014086
:102D1000000002400004024000080240000C024093
:102D2000001002400014024000180240001C024043
:102D3000003C014080B483B000AF78600B467B80DC
:102D400013467B707B78002B03D07A887B689A616E
:102D500003E07B881A047B689A6100BF0C37BD468C
:102D60005DF8047B7047000080B586B000AF7860E6
:102D70007B68002B01D1012364E27B681B6803F0B0
:102D80000103002B75D0A34B9B6803F00C03042BAD
:102D90000CD0A04B9B6803F00C03082B12D19D4B69
:102DA0005B6803F48003B3F5800F0BD1994B1B686C
:102DB00003F40033002B5BD07B685B68002B57D19A
:102DC00001233FE27B685B68B3F5803F06D1914BFE
:102DD0001B68904A43F4803313601DE07B685B6896
:102DE000B3F5A02F0CD18B4B1B688A4A43F4802388
:102DF0001360884B1B68874A43F4803313600BE0F1
:102E0000844B1B68834A23F480331360814B1B6817
:102E1000804A23F4802313607B685B68002B13D007
:102E2000FEF7B2FE386108E0FEF7AEFE02463B69EF
:102E3000D31A642B01D9032304E2764B1B6803F4F5
:102E40000033002BF0D014E0FEF79EFE386108E05E
:102E5000FEF79AFE02463B69D31A642B01D903237D
:102E6000F0E16C4B1B6803F40033002BF0D100E061
:102E700000BF7B681B6803F00203002B63D0654B27
:102E80009B6803F00C03002B0BD0624B9B6803F094
:102E90000C03082B1CD15F4B5B6803F48003002BF1
:102EA00016D15C4B1B6803F00203002B05D07B6836
:102EB000DB68012B01D00123C4E1564B1B6823F0D2
:102EC000F8027B681B69DB00524913430B603AE050
:102ED0007B68DB68002B20D04F4B01221A60FEF785
:102EE00053FE386108E0FEF74FFE02463B69D31AF5
:102EF000022B01D90323A5E1464B1B6803F0020313
:102F0000002BF0D0434B1B6823F0F8027B681B6951
:102F1000DB00404913430B6015E03F4B00221A6071
:102F2000FEF732FE386108E0FEF72EFE02463B69EE
:102F3000D31A022B01D9032384E1364B1B6803F01B
:102F40000203002BF0D17B681B6803F00803002B01
:102F500030D07B685B69002B16D0304B01221A60A1
:102F6000FEF712FE386108E0FEF70EFE02463B69EE
:102F7000D31A022B01D9032364E1264B5B6F03F0C4
:102F80000203002BF0D015E0244B00221A60FEF75C
:102F9000FBFD386108E0FEF7F7FD02463B69D31AF6
:102FA000022B01D903234DE11A4B5B6F03F002039F
:102FB000002BF0D17B681B6803F00403002B00F0AA
:102FC000A0800023FB75134B1B6C03F08053002B78
:102FD0000FD10023BB600F4B1B6C0E4A43F0805394
:102FE00013640C4B1B6C03F08053BB60BB68012364
:102FF000FB750B4B1B6803F48073002B21D1084B2E
:103000001B68074A43F480731360FEF7BDFD386107
:1030100011E000BF0038024000004742800E4742E6
:1030200000700040FEF7B0FD02463B69D31A022B48
:1030300001D9032306E1854B1B6803F48073002B41
:10304000F0D07B689B68012B06D1814B1B6F804AB7
:1030500043F0010313671CE07B689B68052B0CD1D0
:103060007B4B1B6F7A4A43F004031367784B1B6F4B
:10307000774A43F0010313670BE0754B1B6F744AEB
:1030800023F001031367724B1B6F714A23F0040393
:1030900013677B689B68002B15D0FEF775FD3861C0
:1030A0000AE0FEF771FD02463B69D31A41F288320D
:1030B000934201D90323C5E0654B1B6F03F0020364
:1030C000002BEED014E0FEF75FFD38610AE0FEF75A
:1030D0005BFD02463B69D31A41F28832934201D923
:1030E0000323AFE05A4B1B6F03F00203002BEED11A
:1030F000FB7D012B05D1564B1B6C554A23F08053A9
:1031000013647B689B69002B00F09B80504B9B688D
:1031100003F00C03082B5CD07B689B69022B41D128
:103120004C4B00221A60FEF72FFD386108E0FEF7D5
:103130002BFD02463B69D31A022B01D9032381E000
:10314000434B1B6803F00073002BF0D17B68DA69F6
:103150007B681B6A1A437B685B6A9B011A437B6826
:103160009B6A5B08013B1B041A437B68DB6A1B06F6
:10317000374913434B60374B01221A60FEF704FDB9
:10318000386108E0FEF700FD02463B69D31A022BC6
:1031900001D9032356E02E4B1B6803F00073002B6C
:1031A000F0D04EE02B4B00221A60FEF7EDFC3861A8
:1031B00008E0FEF7E9FC02463B69D31A022B01D96D
:1031C00003233FE0224B1B6803F00073002BF0D178
:1031D00037E07B689B69012B01D1012332E01C4B56
:1031E0005B68FB607B689B69012B28D0FB6803F45C
:1031F00080027B68DB699A4221D1FB6803F03F02C1
:103200007B681B6A9A421AD1FA6847F6C07313406A
:103210007A68526A9201934211D1FB6803F44032FA
:103220007B689B6A5B08013B1B049A4207D1FB68E1
:1032300003F070627B68DB6A1B069A4201D00123AF
:1032400000E0002318461837BD4680BD00700040DE
:10325000003802406000474280B584B000AF78601B
:1032600039607B68002B01D10123CCE0684B1B68DF
:1032700003F007033A689A420CD9654B3A68D2B218
:103280001A70634B1B6803F007033A689A4201D037
:103290000123B8E07B681B6803F00203002B20D0F9
:1032A0007B681B6803F00403002B05D0594B9B6817
:1032B000584A43F4E05393607B681B6803F00803AB
:1032C000002B05D0534B9B68524A43F460439360F4
:1032D000504B9B6823F0F0027B689B684D49134379
:1032E0008B607B681B6803F00103002B44D07B6874
:1032F0005B68012B07D1474B1B6803F40033002B9D
:1033000019D101237FE07B685B68022B03D07B68C7
:103310005B68032B07D13F4B1B6803F00073002B46
:1033200009D101236FE03B4B1B6803F00203002B24
:1033300001D1012367E0374B9B6823F003027B68D0
:103340005B68344913438B60FEF71EFCF8600AE0AB
:10335000FEF71AFC0246FB68D31A41F28832934208
:1033600001D903234FE02B4B9B6803F00C027B68D1
:103370005B689B009A42EBD1254B1B6803F0070367
:103380003A689A420CD2224B3A68D2B21A70204B59
:103390001B6803F007033A689A4201D0012332E028
:1033A0007B681B6803F00403002B08D0194B9B6853
:1033B00023F4E0527B68DB68164913438B607B681B
:1033C0001B6803F00803002B09D0124B9B6823F401
:1033D00060427B681B69DB000E4913438B6000F081
:1033E00021F802460B4B9B681B0903F00F030A49A7
:1033F000CB5C22FA03F3094A1360094B1B68184699
:10340000FEF77EFB002318461037BD4680BD00BF87
:10341000003C0240003802408CB30008000000204D
:10342000040000202DE9B04384B000AF00237B608E
:103430000023FB6000233B600023BB60674B9B685D
:1034400003F00C03082B0DD0082B00F2BD80002BDD
:1034500002D0042B03D0B7E0614BBB60B7E0614BF7
:10346000BB60B4E05D4B5B6803F03F037B605B4B8C
:103470005B6803F48003002B4DD0584B5B689B09BD
:103480001A464FF0000340F2FF104FF0000102EA2D
:10349000000803EA0109404649464FF000024FF098
:1034A00000034B0143EAD063420110461946B0EBDA
:1034B000080061EB09014FF000024FF000038B019F
:1034C00043EA90638201121A63EB01034FF000009C
:1034D0004FF00001D90041EA5271D00002460B467C
:1034E00012EB080243EB09034FF000004FF000011C
:1034F000590241EAD251500202460B461046194683
:103500007B681A464FF00003FDF7BEFB02460B46F0
:103510001346FB604AE0314B5B689B091A464FF04B
:10352000000340F2FF104FF0000102EA000403EA3A
:103530000105204629464FF000024FF000034B01E1
:1035400043EAD063420110461946001B61EB0501B6
:103550004FF000024FF000038B0143EA90638201B9
:10356000121A63EB01034FF000004FF00001D90085
:1035700041EA5271D00002460B46121945EB030393
:103580004FF000004FF00001990241EA9251900281
:1035900002460B46104619467B681A464FF0000358
:1035A000FDF772FB02460B461346FB600B4B5B6854
:1035B0001B0C03F0030301335B003B60FA683B68BC
:1035C000B2FBF3F3BB6002E0054BBB6000BFBB681E
:1035D00018461037BD46BDE8B08300BF0038024032
:1035E0000024F40000127A0080B400AF034B1B6883
:1035F0001846BD465DF8047B704700BF0000002000
:1036000080B500AFFFF7F0FF0246054B9B689B0AB1
:1036100003F007030349CB5C22FA03F3184680BD8D
:10362000003802409CB3000880B500AFFFF7DCFF14
:103630000246054B9B685B0B03F007030349CB5C19
:1036400022FA03F3184680BD003802409CB30008FC
:1036500080B582B000AF78607B68002B01D1012378
:103660003FE07B6893F83D30DBB2002B06D17B68EE
:10367000002283F83C207868FDF7B0FE7B682422A6
:1036800083F83D207B681B68DA687B681B6822F43E
:103690000052DA60786801F03FF87B681B681A69AD
:1036A0007B681B6822F490421A617B681B685A6928
:1036B0007B681B6822F02A025A617B681B68DA6803
:1036C0007B681B6842F40052DA607B6800221A644F
:1036D0007B68202283F83D207B68202283F83E20EF
:1036E000002318460837BD4680BD80B58AB002AFBA
:1036F000F860B9603B601346FB8000237B61FB6888
:1037000093F83D30DBB2202B7CD1BB68002B02D07C
:10371000FB88002B01D1012375E0FB6893F83C3056
:10372000012B01D102236EE0FB68012283F83C20CB
:10373000FB6800221A64FB68212283F83D20FEF713
:1037400023FA7861FB68FA889A84FB68FA88DA843D
:10375000FB689B68B3F5805F08D1FB681B69002B91
:1037600004D10023FB61BB68BB6103E0BB68FB6164
:103770000023BB61FB68002283F83C202AE03B6801
:1037800000937B6900228021F86800F0FAFC034670
:10379000002B01D0032336E0FB69002B0BD1BB6962
:1037A0001B881A46FB681B68C2F308025A60BB6993
:1037B0000233BB6107E0FB691A78FB681B685A603B
:1037C000FB690133FB61FB68DB8C9BB2013B9AB266
:1037D000FB68DA84FB68DB8C9BB2002BCFD13B68A3
:1037E00000937B6900224021F86800F0CAFC034680
:1037F000002B01D0032306E0FB68202283F83D2044
:10380000002300E0022318462037BD4680BD00009B
:1038100080B58CB000AFF860B9601346FB80FB68E0
:1038200093F83D30DBB2202B65D1BB68002B02D072
:10383000FB88002B01D101235EE0FB6893F83C304C
:10384000012B01D1022357E0FB68012283F83C20C1
:10385000BA68FB681A62FB68FA889A84FB68FA887F
:10386000DA84FB6800221A64FB68212283F83D2079
:10387000FB685B6B224ADA63FB685B6B214A1A6464
:10388000FB685B6B204ADA64FB685B6B00221A659D
:1038900007F10803FB62FB68586BFB6A1968FB6859
:1038A0001B6804331A46FB88FEF75EFBFB681B6847
:1038B0006FF040021A60FB68002283F83C20FB682E
:1038C0001B681433BB61BB6953E8003F7B617B69B4
:1038D00043F08003BB62FB681B681433BA6A7A62E8
:1038E0003B62396A7A6A41E80023FB61FB69002B7D
:1038F000E5D1002300E0022318463037BD4680BDE5
:10390000DD3E0008773F0008EF40000880B584B036
:1039100000AFF860B9601346FB80FB6893F83E3057
:10392000DBB2202B1DD1BB68002B02D0FB88002B03
:1039300001D1012316E0FB6893F83C30012B01D143
:1039400002230FE0FB68012283F83C20FB68002281
:103950001A63FB881A46B968F86800F081FC0346D0
:1039600000E0022318461037BD4680BD80B5BAB0CE
:1039700000AF78607B681B681B68C7F8E4307B6821
:103980001B68DB68C7F8E0307B681B685B69C7F8B9
:10399000DC300023C7F8D8300023C7F8D430D7F87C
:1039A000E43003F00F03C7F8D830D7F8D830002B35
:1039B0000FD1D7F8E43003F02003002B09D0D7F85B
:1039C000E03003F02003002B03D0786800F0E9FD1D
:1039D00056E2D7F8D830002B00F0DE80D7F8DC3084
:1039E00003F00103002B06D1D7F8E03003F4907305
:1039F000002B00F0D180D7F8E43003F00103002B56
:103A00000BD0D7F8E03003F48073002B05D07B682F
:103A10001B6C43F001027B681A64D7F8E43003F0B2
:103A20000403002B0BD0D7F8DC3003F00103002B8C
:103A300005D07B681B6C43F002027B681A64D7F8E0
:103A4000E43003F00203002B0BD0D7F8DC3003F096
:103A50000103002B05D07B681B6C43F004027B68DC
:103A60001A64D7F8E43003F00803002B11D0D7F81C
:103A7000E03003F02003002B05D1D7F8DC3003F051
:103A80000103002B05D07B681B6C43F008027B68A8
:103A90001A647B681B6C002B00F0ED81D7F8E430D2
:103AA00003F02003002B08D0D7F8E03003F0200308
:103AB000002B02D0786800F074FD7B681B685B699E
:103AC00003F04003402B0CBF01230023DBB2C7F8F7
:103AD000D4307B681B6C03F00803002B03D1D7F8AC
:103AE000D430002B4FD0786800F07CFC7B681B68DA
:103AF0005B6903F04003402B41D17B681B681433A2
:103B0000C7F89C30D7F89C3053E8003FC7F898308E
:103B1000D7F8983023F04003C7F8D0307B681B6893
:103B20001433D7F8D020C7F8A820C7F8A430D7F8A6
:103B3000A410D7F8A82041E80023C7F8A030D7F890
:103B4000A030002BD9D17B689B6B002B13D07B68F6
:103B50009B6B7D4A1A657B689B6B1846FEF7CCFA17
:103B60000346002B16D07B689B6B1B6D7A68926BAB
:103B7000104698470EE0786800F09AF90AE07868F5
:103B800000F096F906E0786800F092F97B68002270
:103B90001A6470E100BF6EE17B681B6B012B40F083
:103BA0004A81D7F8E43003F01003002B00F0438182
:103BB000D7F8E03003F01003002B00F03C81002325
:103BC000BB607B681B681B68BB607B681B685B68AD
:103BD000BB60BB687B681B685B6903F04003402BDC
:103BE00040F0B4807B689B6B1B685B68A7F8BE30B5
:103BF000B7F8BE30002B00F040817B689B8DB7F892
:103C0000BE209A4280F039817B68B7F8BE20DA8501
:103C10007B689B6BDB69B3F5807F00F088807B68F5
:103C20001B680C33C7F88830D7F8883053E8003F5A
:103C3000C7F88430D7F8843023F48073C7F8B830DD
:103C40007B681B680C33D7F8B820C7F89420C7F8F6
:103C50009030D7F89010D7F8942041E80023C7F8A7
:103C60008C30D7F88C30002BD9D17B681B6814338B
:103C70007B677B6F53E8003F3B673B6F23F001039B
:103C8000C7F8B4307B681B681433D7F8B420C7F882
:103C90008020FB67F96FD7F8802041E80023BB67DD
:103CA000BB6F002BE1D17B681B6814333B663B6E16
:103CB00053E8003FFB65FB6D23F04003C7F8B030CD
:103CC0007B681B681433D7F8B020FA66BB66B96E00
:103CD000FA6E41E800237B667B6E002BE3D17B68A4
:103CE000202283F83E207B6800221A637B681B68D1
:103CF0000C33FB64FB6C53E8003FBB64BB6C23F0EC
:103D00001003C7F8AC307B681B680C33D7F8AC20C5
:103D1000BA657B65796DBA6D41E800233B653B6D03
:103D2000002BE3D17B689B6B1846FEF775F97B6827
:103D30009A8D7B68DB8D9BB2D31A9BB2194678684B
:103D400000F0C0F899E000BFAB4400087B689A8D92
:103D50007B68DB8D9BB2D31AA7F8CE307B68DB8DF6
:103D60009BB2002B00F08B80B7F8CE30002B00F018
:103D700086807B681B680C33BB63BB6B53E8003FDA
:103D80007B637B6B23F49073C7F8C8307B681B6838
:103D90000C33D7F8C8207A643B64396C7A6C41E8FC
:103DA0000023FB63FB6B002BE3D17B681B681433A0
:103DB0007B627B6A53E8003F3B623B6A23F001036E
:103DC000C7F8C4307B681B681433D7F8C4203A6343
:103DD000FB62F96A3A6B41E80023BB62BB6A002BC5
:103DE000E3D17B68202283F83E207B6800221A639F
:103DF0007B681B680C333B613B6953E8003FFB6009
:103E0000FB6823F01003C7F8C0307B681B680C33D5
:103E1000D7F8C020FA61BB61B969FA6941E80023AB
:103E20007B617B69002BE3D1B7F8CE301946786807
:103E300000F048F823E0D7F8E43003F08003002BCB
:103E400009D0D7F8E03003F08003002B03D0786866
:103E500000F03FFB14E0D7F8E43003F04003002B00
:103E60000ED0D7F8E03003F04003002B08D078687C
:103E700000F07FFB04E000BF02E000BF00E000BFF5
:103E8000E837BD4680BD00BF80B483B000AF786026
:103E900000BF0C37BD465DF8047B704780B483B02B
:103EA00000AF786000BF0C37BD465DF8047B7047FB
:103EB00080B483B000AF786000BF0C37BD465DF8BA
:103EC000047B704780B483B000AF78600B467B8082
:103ED00000BF0C37BD465DF8047B704780B590B0DD
:103EE00000AF78607B689B6BFB637B681B681B681B
:103EF00003F48073002B37D1FB6B0022DA84FB6B59
:103F00001B6814337B627B6A53E8003F3B623B6A69
:103F100023F08003BB63FB6B1B681433BA6B3A63FB
:103F2000FB62F96A3A6B41E80023BB62BB6A002B73
:103F3000E5D1FB6B1B680C333B613B6953E8003FE9
:103F4000FB60FB6843F040037B63FB6B1B680C3337
:103F50007A6BFA61BB61B969FA6941E800237B6158
:103F60007B69002BE5D102E0F86B01F0B7FD00BFE3
:103F70004037BD4680BD80B584B000AF78607B68B7
:103F80009B6BFB60F868FFF77FFF00BF1037BD46F3
:103F900080BD80B59CB000AF78607B689B6BFB6692
:103FA0007B681B681B6803F48073002B72D1FB6E67
:103FB0000022DA85FB6E1B680C33FB64FB6C53E854
:103FC000003FBB64BB6C23F48073BB66FB6E1B6855
:103FD0000C33BA6EBA657B65796DBA6D41E8002322
:103FE0003B653B6D002BE5D1FB6E1B681433BB6357
:103FF000BB6B53E8003F7B637B6B23F001037B6665
:10400000FB6E1B6814337A6E7A643B64396C7A6C8D
:1040100041E80023FB63FB6B002BE5D1FB6E1B68C3
:1040200014337B627B6A53E8003F3B623B6A23F0B8
:1040300040033B66FB6E1B6814333A6E3A63FB62C7
:10404000F96A3A6B41E80023BB62BB6A002BE5D1F9
:10405000FB6E202283F83E20FB6E1B6B012B19D1D7
:10406000FB6E1B680C333B613B6953E8003FFB6010
:10407000FB6823F01003FB65FB6E1B680C33FA6DC5
:10408000FA61BB61B969FA6941E800237B617B6928
:10409000002BE5D1FB6E1B6B012B06D1FB6E9B8DBC
:1040A0001946F86EFFF70EFF02E0F86E01F02AFDE8
:1040B00000BF7037BD4680BD80B584B000AF78606A
:1040C0007B689B6BFB60FB681B6B012B08D1FB685B
:1040D0009B8D5B089BB21946F868FFF7F3FE02E080
:1040E000F868FFF7DBFE00BF1037BD4680BD80B526
:1040F00084B000AF78600023FB607B689B6BBB6083
:10410000BB681B685B6903F08003802B0CBF012335
:104110000023DBB2FB60BB6893F83D30DBB2212BA0
:1041200008D1FB68002B05D0BB680022DA84B86890
:1041300000F030F9BB681B685B6903F04003402B5B
:104140000CBF01230023DBB2FB60BB6893F83E3059
:10415000DBB2222B08D1FB68002B05D0BB68002204
:10416000DA85B86800F03EF9BB681B6C43F01002BA
:10417000BB681A64B868FFF79BFE00BF1037BD46E6
:1041800080BD80B590B000AFF860B9603B60134669
:10419000FB7150E0BB6CB3F1FF3F4CD0BB6C002B0C
:1041A00007D0FDF7F1FC02463B68D31ABA6C9A427D
:1041B00041D2FB681B680C33BB62BB6A53E8003F0B
:1041C0007B627B6A23F4D073FB63FB681B680C3350
:1041D000FA6B7A633B63396B7A6B41E80023FB62CD
:1041E000FB6A002BE5D1FB681B6814337B617B699C
:1041F00053E8003F3B613B6923F00103BB63FB686D
:104200001B681433BA6B3A62FB61F9693A6A41E898
:104210000023BB61BB69002BE5D1FB68202283F83A
:104220003D20FB68202283F83E20FB68002283F8B3
:104230003C2003230FE0FB681B681A68BB6813402F
:10424000BA689A420CBF01230023DBB21A46FB79FD
:104250009A429FD0002318464037BD4680BD0000DB
:1042600080B598B000AFF860B9601346FB80BA68BB
:10427000FB689A62FB68FA889A85FB6800221A64D8
:10428000FB68222283F83E20FB689B6B3E4ADA6380
:10429000FB689B6B3D4A1A64FB689B6B3C4ADA6483
:1042A000FB689B6B00221A6507F10803FB65FB683E
:1042B000986BFB681B6804331946FB6D1A68FB8812
:1042C000FDF752FE00233B61FB681B681B683B61E6
:1042D000FB681B685B683B613B69FB68002283F8F5
:1042E0003C20FB681B680C333B643B6C53E8003F8D
:1042F000FB63FB6B43F48073BB65FB681B680C338B
:10430000BA6DFA64BB64B96CFA6C41E800237B6453
:104310007B6C002BE5D1FB681B681433FB62FB6AE6
:1043200053E8003FBB62BB6A43F001037B65FB6857
:104330001B6814337A6DBA637B63796BBA6B41E89F
:1043400000233B633B6B002BE5D1FB681B681433F8
:10435000BB61BB6953E8003F7B617B6943F040036D
:104360003B65FB681B6814333A6D7A623B62396ABD
:104370007A6A41E80023FB61FB69002BE5D1002349
:1043800018466037BD4680BD933F0008B94000081D
:10439000EF40000880B489B000AF78607B681B688C
:1043A0000C33FB60FB6853E8003FBB60BB6823F045
:1043B000C003FB617B681B680C33FA69BA617B61DF
:1043C0007969BA6941E800233B613B69002BE5D17B
:1043D0007B68202283F83D2000BF2437BD465DF86E
:1043E000047B704780B495B000AF78607B681B6831
:1043F0000C337B637B6B53E8003F3B633B6B23F4E5
:104400009073FB647B681B680C33FA6C3A64FB6343
:10441000F96B3A6C41E80023BB63BB6B002BE5D121
:104420007B681B6814333B623B6A53E8003FFB61C7
:10443000FB6923F00103BB647B681B681433BA6C0F
:10444000FA62BB62B96AFA6A41E800237B627B6A5E
:10445000002BE5D17B681B6B012B19D17B681B6896
:104460000C33FB60FB6853E8003FBB60BB6823F084
:1044700010037B647B681B680C337A6CBA617B61C8
:104480007969BA6941E800233B613B69002BE5D1BA
:104490007B68202283F83E207B6800221A6300BFDD
:1044A0005437BD465DF8047B704780B584B000AFDB
:1044B00078607B689B6BFB60FB680022DA85FB6899
:1044C0000022DA84F868FFF7F3FC00BF1037BD461E
:1044D00080BD80B485B000AF78607B6893F83D30D4
:1044E000DBB2212B3ED17B689B68B3F5805F14D192
:1044F0007B681B69002B10D17B681B6AFB60FB6823
:104500001B881A467B681B68C2F308025A607B68E6
:104510001B6A9A1C7B681A6208E07B681B6A591C3C
:104520007A6811621A787B681B685A607B68DB8C3A
:104530009BB2013B9BB27A681946D184002B0FD104
:104540007B681B68DA687B681B6822F08002DA608F
:104550007B681B68DA687B681B6842F04002DA609F
:10456000002300E0022318461437BD465DF8047BA3
:10457000704780B582B000AF78607B681B68DA68EE
:104580007B681B6822F04002DA607B68202283F897
:104590003D20786801F0A2FA002318460837BD468E
:1045A00080BD80B58CB000AF78607B6893F83E30FA
:1045B000DBB2222B40F0AB807B689B68B3F5805F59
:1045C00017D17B681B69002B13D10023FB627B682A
:1045D0009B6ABB627B681B685B689BB2C3F3080382
:1045E0009AB2BB6A1A807B689B6A9A1C7B689A6243
:1045F00026E07B689B6AFB620023BB627B689B684A
:10460000B3F5805F07D07B689B68002B0AD17B687D
:104610001B69002B06D17B681B685B68DAB2FB6AFA
:104620001A7008E07B681B685B68DBB203F07F03ED
:10463000DAB2FB6A1A707B689B6A5A1C7B689A62C2
:104640007B68DB8D9BB2013B9BB27A681946D185B2
:10465000002B5AD17B681B68DA687B681B6822F0E4
:104660002002DA607B681B68DA687B681B6822F4CA
:104670008072DA607B681B685A697B681B6822F06D
:1046800001025A617B68202283F83E207B681B6B05
:10469000012B35D17B6800221A637B681B680C33C1
:1046A0007B617B6953E8003F3B613B6923F010036A
:1046B0007B627B681B680C337A6A3A62FB61F9693A
:1046C0003A6A41E80023BB61BB69002BE5D17B68F6
:1046D0001B681B6803F01003102B0AD10023FB603A
:1046E0007B681B681B68FB607B681B685B68FB6002
:1046F000FB687B689B8D19467868FFF7E3FB02E057
:10470000786801F0FFF9002302E0002300E00223B3
:1047100018463037BD4680BD2DE9F04F9FB000AF41
:10472000F866FB6E1B681B6923F44050FB6ED9686A
:10473000FB6E1A6840EA01031361FB6E9A68FB6E18
:104740001B691A43FB6E5B691A43FB6EDB691343FB
:104750003B67FB6E1B68DB6823F4164121F00C01FC
:10476000FB6E1A683B6F0B43D360FB6E1B685B6983
:1047700023F44070FB6E9969FB6E1A6840EA0103EE
:104780005361FB6E1A68C54B9A4204D0FB6E1A68DF
:10479000C34B9A4203D1FEF747FF786702E0FEF76A
:1047A0002FFF7867FB6EDB69B3F5004F40F0B680F2
:1047B0007B6F1C464FF0000522462B46911839644A
:1047C0005B417B64D7E91023121945EB03034FF0DB
:1047D00000004FF00001D90041EA5271D0000246BA
:1047E0000B46111939666B417B66FB6E5B681A4696
:1047F0004FF000039118B9635B41FB63D7E90E23C7
:10480000D7E91801FCF740FA02460B46A54BA3FB7B
:1048100002235B091E017B6F1C464FF000052246F8
:104820002B46911839635B417B63D7E90C2312193E
:1048300045EB03034FF000004FF00001D90041EABF
:104840005271D00002460B461119B9656B41FB65E8
:10485000FB6E5B681A464FF000039118B9625B412A
:10486000FB62D7E90A23D7E91601FCF70DFA0246E5
:104870000B468C4BA3FB02135B09642101FB03F382
:10488000D31ADB003233874AA2FB03235B095B00A8
:1048900003F4F8731E447B6F18464FF00001024684
:1048A0000B4694183C625B417B62D7E908231218DF
:1048B00041EB03034FF000044FF00005DD0045EA33
:1048C0005275D40022462B4614183C654B417B653B
:1048D000FB6E5B681A464FF000039118B9615B41AB
:1048E000FB61D7E90623D7E91401FCF7CDF90246AD
:1048F0000B466C4BA3FB02135B09642101FB03F322
:10490000D31ADB003233674AA2FB03235B0903F0AF
:104910000702FB6E1B6832449A60B9E07B6F1C464D
:104920004FF0000522462B46911839615B417B61AF
:10493000D7E90423121945EB03034FF000004FF0B1
:104940000001D90041EA5271D00002460B4612EB39
:10495000040843EB0509FB6E5B6818464FF0000145
:104960004FF000024FF000038B0043EA9073820087
:1049700040464946FCF788F902460B46494BA3FBE3
:1049800002235B091E017B6F18464FF000010246AF
:104990000B469418BC605B41FB60D7E902231218F8
:1049A00041EB03034FF000044FF00005DD0045EA42
:1049B0005275D40022462B461418BC644B41FB644C
:1049C000FB6E5B6818464FF000014FF000024FF09D
:1049D00000038B0043EA90738200D7E91201FCF7D1
:1049E00053F902460B462F4BA3FB02135B096421CC
:1049F00001FB03F3D31A1B0132332A4AA2FB032320
:104A00005B0903F0F0031E447B6F18464FF0000172
:104A100002460B4694183C605B417B60D7E900235B
:104A2000121841EB03034FF000044FF00005DD00C6
:104A300045EA5275D40022462B4612EB000A43EB9E
:104A4000010BFB6E5B6818464FF000014FF000024F
:104A50004FF000038B0043EA9073820050465946A2
:104A6000FCF712F902460B460E4BA3FB02135B093F
:104A7000642101FB03F3D31A1B013233094AA2FB61
:104A800003235B0903F00F02FB6E1B6832449A603C
:104A900000BF7C37BD46BDE8F08F00BF001001406D
:104AA000001401401F85EB5180B483B000AF7860E3
:104AB0007B6800221A807B6800225A807B68002273
:104AC0009A8000BF0C37BD465DF8047B704700003C
:104AD00080B483B000AF78600B46FB707B689B8826
:104AE000B3F5877F01D300231FE07B685B881A46FC
:104AF0007B681344FA789A717B685B8801330E4AAD
:104B000082FB03121A441112DA178A1A4FF48771C2
:104B100001FB02F29A1A92B27B685A807B689B88EA
:104B200001339AB27B689A80012318460C37BD4640
:104B30005DF8047B704700BF49D6B9F280B483B0FA
:104B400000AF786039607B689B88002B01D100231F
:104B500020E07B681B881A467B6813449A793B687F
:104B60001A707B681B8801330D4A82FB03121A44BA
:104B70001112DA178A1A4FF4877101FB02F29A1A9E
:104B800092B27B681A807B689B88013B9AB27B68F3
:104B90009A80012318460C37BD465DF8047B7047A8
:104BA00049D6B9F280B582B000AF78607B68D3F89F
:104BB0000831124A93420BD17B6803F20E317B68B5
:104BC00093F8DE3A9BB21A460D48FEF721FE10E03C
:104BD0007B68D3F808310B4A93420AD17B6803F211
:104BE0000E317B6893F8DE3A9BB21A460648FEF710
:104BF0000FFE00BF0837BD4680BD00BF0044004027
:104C0000E4050020004C0040A005002080B586B0DF
:104C100000AFF860B9601346FB710023FB82FB68AC
:104C200093F80631002B3FD00023FB820DE0FA8A77
:104C3000FB8AF9680A4492F8F616FA6813440A46A1
:104C400083F80E23FB8A0133FB82FB6893F8DE3A7C
:104C50009BB2FA8A9A42EAD30023FB8213E0FB8AD2
:104C6000BA681A44FB6893F8DE3A591CC8B2F9686E
:104C700081F8DE0A19461278FB680B4483F80E238C
:104C8000FB8A0133FB82FB799BB2FA8A9A42E6D314
:104C9000F868FFF787FFFB68002283F8DE2AFB68CD
:104CA000002283F806211BE00023FB8213E0FB8A2D
:104CB000BA681A44FB6893F8DE3A591CC8B2F9681E
:104CC00081F8DE0A19461278FB680B4483F8F62651
:104CD000FB8A0133FB82FB799BB2FA8A9A42E6D3C4
:104CE00000BF1837BD4680BD80B584B000AF786086
:104CF0007B6893F8DE3A002B20D00023FB7300235F
:104D0000FB730DE0FA7BFB7B79680A4492F8F61698
:104D10007A6813440A4683F80E23FB7B0133FB7346
:104D20007B6893F8DE3AFA7B9A42EBD37868FFF718
:104D300039FF7B68002283F8DE2A03E07B680122CA
:104D400083F8062100BF1037BD4680BD80B485B012
:104D500000AF78600023FB607B68444A934206D82A
:104D60007B68B3F1006F02D30023FB6077E07B68C0
:104D70003F4A934206D87B683E4A934202D30123BE
:104D8000FB606CE07B683C4A934206D87B683B4AF8
:104D9000934202D30223FB6061E07B68384A93426E
:104DA00006D27B68374A934202D30323FB6056E066
:104DB0007B68354A934206D27B68314A934202D9D6
:104DC0000423FB604BE07B68304A934206D27B6849
:104DD0002D4A934202D90523FB6040E07B682C4AB0
:104DE000934206D27B68294A934202D90623FB608C
:104DF00035E07B68274A934206D27B68244A934277
:104E000002D90723FB602AE07B68234A934206D23B
:104E10007B68204A934202D90823FB601FE07B682D
:104E20001E4A934206D27B681B4A934202D9092349
:104E3000FB6014E07B681A4A934206D87B68174AE5
:104E4000934202D90A23FB6009E07B68154A93422A
:104E500005D87B68144A934201D90B23FB60FB6899
:104E600018461437BD465DF8047B7047FE3F0008C6
:104E7000FE7F000800400008FEBF00080080000818
:104E8000FFFF000800C00008FFFF0108FFFF030844
:104E9000FFFF0508FFFF0708FFFF0908FFFF0B08DA
:104EA000FEFF0D08FEFF0F08FFFF0D0880B586B05E
:104EB00000AF78603960FDF7ABFB7868FFF746FF1D
:104EC00078617A683B6813443B613869FFF73EFFBD
:104ED000F860144B00221A60124B02221A61114A28
:104EE0007B699360FA687B69D31A01330D4AD360FA
:104EF0007B683A6919460C4801F0AAFD07F10803DE
:104F000019460848FDF758FC0346002B03D0FDF76F
:104F1000B1FB034602E0FDF79DFB0023184618375E
:104F2000BD4680BD50020020ACA7000880B500AF90
:104F3000204B214A1A601F4B4FF416525A601D4BEA
:104F40004FF480529A601B4B0022DA60194B4FF4E9
:104F500080621A61174B0C225A61164B00229A612B
:104F6000144B0022DA611348FEF772FB0346002B54
:104F700001D0FCF7FDF90F4B1B685B680F4B104A23
:104F8000C3F840210D4B0C4AC3F808210B4B0122FA
:104F900083F806210B48FFF787FD01220A490548DF
:104FA000FEF7B4FC0346002B01D0FCF7E1F900BF8B
:104FB00080BD00BFE4050020004400408C110020AB
:104FC000DC0300208C1C0020A01D002080B582B0D6
:104FD00000AF7923BB803B1D012219460348FFF730
:104FE00015FE00BF0837BD4680BD00BF8C110020F4
:104FF00080B582B000AF1F23BB803B1D0122194644
:105000000348FFF703FE00BF0837BD4680BD00BF61
:105010008C11002080B582B000AF78600B467B8099
:105020007B88DBB21A4679680348FFF7EFFD00BFC3
:105030000837BD4680BD00BF8C11002080B485B00C
:1050400000AF03463960FB711346BB80FB79FB73ED
:105050000023BB8109E0BB893A6813441A78FB7BC3
:105060005340FB73BB890133BB81BA89BB889A4229
:10507000F1D3FB7B18461437BD465DF8047B7047BF
:1050800080B584B000AF78600023FB731D4B9B8814
:10509000012B20D107F10F0319461A48FFF74EFDE7
:1050A0000346012B17D1FB7B7F2B0CD1FFF78EFF23
:1050B000154B00221A60134B9B881946134801F0C8
:1050C000C7FC012319E0FFF793FF0E4B9B8819469D
:1050D0000F4801F0BDFCFCF757FD02460A4B1B6868
:1050E000D31AB3F57A7F07D9FCF74EFD0346064A7B
:1050F0001360084801F032FD002318461037BD4602
:1051000080BD00BF8C1C0020640200202CAA000877
:1051100070AA0008B4AA000880B584B000AF786017
:105120004BF64343BB810023FB72274B9B88022B2A
:1051300028D10023FB7322E007F10B031946224814
:10514000FFF7FCFC0346012B16D1FB7B07F1100295
:10515000134413F8042CFB7A9A420DD11B4B1B7895
:105160000133DAB2194B1A70FB7A1946164B9B8839
:105170001A46174801F06CFCFB7B0133FB73FB7B89
:10518000012BD9D9114B1B78022B17D14FF40031C9
:105190001048FFF78BFE0346002B0FD179233B729B
:1051A00007F1080301211846FFF734FF0A4801F010
:1051B000D5FC064B00221A70012300E0002318469C
:1051C0001037BD4680BD00BF8C1C00206802002047
:1051D000D0AC00080000020820AD000880B582B005
:1051E00000AF4CF63163BB800023FB701D4B9B88E6
:1051F000022B27D10023FB7121E0FB1C1946194823
:10520000FFF79CFC0346012B16D1FB7907F108023E
:10521000134413F8042CFB789A420DD1124B1B78DF
:105220000133DAB2104B1A70FB7819460D4B9B888C
:105230001A460E4801F00CFCFB790133FB71FB7937
:10524000012BDAD9084B1B78022B06D1FFF7BEFEE3
:10525000074801F083FC012300E0002318460837CB
:10526000BD4680BD8C1C0020690200206CAD00088A
:10527000C4AD000880B586B000AF78600023FB7332
:105280000523BB7507F1100305220021184600F025
:10529000A3FC3A4B1B78002B64D0394B9A88BB7D1A
:1052A0009BB29A4264D10023FB751AE007F10F0309
:1052B00019463348FFF742FC0346012B0ED1FB7D14
:1052C000FA7B07F118010B4403F8082CFB7B194605
:1052D0002B4B9B881A462B4801F0BAFBFB7D013310
:1052E000FB75FA7DBB7D9A42E0D307F110030422DF
:1052F00019460020FFF7A2FE03467B757B7D3A7DB1
:105300001946214801F0A4FB3B7D7A7D9A4222D1C7
:105310003B7C1A467B68DA617B68DB697A7C120227
:105320001A437B68DA617B68DB69BA7C12041A4332
:105330007B68DA617B68DB69FA7C12061A437B685A
:10534000DA61FFF743FE114801F008FC0B4B002225
:105350001A7002230DE0FFF74BFE0D4801F0FEFB33
:10536000012306E0FFF73AFF03461A46034B1A7083
:10537000002318461837BD4680BD00BF6A020020D2
:105380008C1C0020FCAD000854AE0008B8AE00082C
:10539000F0AE000880B584B000AF786000233B73A6
:1053A000574B1B78022B40F08C80564B1B78022BFE
:1053B0004CD0022B00F39E80002B02D0012B1DD07D
:1053C00098E0514B9B88012B40F08F8007F10C0334
:1053D00019464D48FFF7B2FB0346012B40F085808C
:1053E0003B7B9AB2494B1A80484B1B881946484868
:1053F00001F02EFB434B01221A7076E0424B9A8853
:10540000424B1B889A4272D14FF48072002141486E
:1054100000F0E2FB0123FB810FE007F10C031946CA
:105420003948FFF78BFB0346012B03D1FB89397BFE
:10543000384AD154FB890133FB81344B1B88FA89EC
:105440009A42EAD92F4B02221A7050E02E4B9B88C9
:10545000012B4ED107F10C0319462B48FFF76EFBC9
:105460000346002B45D0294B1B88D8B2274B1B88FD
:1054700001339BB21A462749FFF7E0FD03467B73D1
:10548000224B1B881A46234B9B5C7A7B9A4230D175
:105490001E4B00221A801B4B00221A70FFF796FD4C
:1054A0001D4801F05BFB1D4801F058FB144B002226
:1054B0001A70164B00221A80124B00221A70022317
:1054C00019E00F4B1B78012B07D1FFF791FD144812
:1054D00001F044FB0A4B1B780DE07868FFF7CAFE29
:1054E00003461A46064B1A7004E000BF02E000BFF4
:1054F00000E000BF002318461037BD4680BD00BF46
:105500006B0200206C0200208C1C00206E02002028
:105510002CAF00087002002064AF00089CAF0008A8
:10552000E4AF000880B582B000AF00237B71002398
:105530003B800023FB712B4B9B88022B4CD17B1DA6
:1055400019462848FFF7FAFA0346012B01D17B7967
:105550003B707B1D19462348FFF7F0FA0346012BE9
:1055600001D17B797B700023BB7126E03A78BB794F
:105570001D4911F813309A4202D1FB790133FB71B6
:105580007A78BB7918495B000B445B789A4202D168
:10559000FB790133FB71FB79022B09D1BB79134AEB
:1055A00052F823301946124801F052FABB7914E040
:1055B0000023FB71BB790133BB71BB790C2BD5D9AF
:1055C0003B7819467B781A460A4801F041FAFFF702
:1055D0000FFD094801F0C2FA002318460837BD46FE
:1055E00080BD00BF8C1C00200C0000202800002083
:1055F00020B0000844B0000888B0000880B588B02A
:1056000000AF0B233B7431237B740023BB74012355
:10561000FB7402233B7511237B752123BB7531235A
:10562000FB7543233B7663237B767323BB76822310
:10563000FB7692233B77A1237B7779233B703B7CDE
:105640007B707B7CBB70BB7CFB70FB7C3B713B7DD0
:105650007B717B7DBB71BB7DFB71FB7D3B723B7EB8
:105660007B727B7EBB72BB7EFB72FB7E3B733B7FA0
:105670007B737B7FBB737923FB733B4610211846FA
:10568000FFF7C8FC034801F069FA012318462037E8
:10569000BD4680BD40AB000880B584B000AF31236B
:1056A0003B730A237B730A23BB7379233B713B7BD8
:1056B0007B717B7BBB71BB7BFB7179233B723B1D99
:1056C00005211846FFF7A6FC034801F047FA01231D
:1056D00018461037BD4680BDB4B0000880B584B010
:1056E00000AF01233B7204237B721323BB72792327
:1056F0003B703B7A7B707B7ABB70BB7AFB70792303
:105700003B713B4605211846FFF784FC034801F036
:1057100025FA012318461037BD4680BD10B1000898
:1057200080B586B000AF00233B736E4A3B1D92E804
:10573000030018600433197000233B806A4B1B7808
:10574000032B00F2CA8001A252F823F05D57000833
:105750006F5700080158000885580008FFF736FC0D
:10576000624801F0FBF9604B01221A70B5E0604B12
:105770009B88052B40F0AE800023FB751AE007F1F3
:105780000C0319465A48FFF7D9F90346012B0ED1ED
:105790003B7B1946564B9B881A46564801F058F9F0
:1057A000FB7D3A7B07F118010B4403F8142CFB7DB9
:1057B0000133FB75FB7D042BE1D93B1D0422194607
:1057C0000020FFF73BFC03467B737B7B19464A486E
:1057D00001F03EF93B7A7A7B9A4208D1FFF7F6FB5B
:1057E000464801F0BBF9404B02221A7072E0FFF705
:1057F000FFFB434801F0B2F93B4B0A221A7069E003
:105800003B4B9B88022B67D10023BB751AE007F145
:105810000C0319463648FFF791F90346012B0ED1C8
:105820003B7B1946324B9B881A46324801F010F9EF
:10583000BB7D3A7B07F118010B4403F8182CBB7DA4
:105840000133BB75BB7D012BE1D93B4602221946D2
:105850000020FFF7F3FB0346BB73BB7B19462948C7
:1058600001F0F6F87B78BA7B9A4207D0FFF7C0FBCD
:10587000254801F073F91C4B0A221A701A4B0322B7
:105880001A7029E03B7802330121184600F054F9E0
:1058900003463B610023FB7307E03B695A1C3A61F6
:1058A0007B221A70FB7B0133FB733B78FA7B9A42B5
:1058B000F3D93B695A1C3A6179221A70022138697E
:1058C000FFF7A8FB386900F071F9074B00221A7046
:1058D000012303E000BF00E000BF00231846183793
:1058E000BD4680BD14B300087003002068B10008F5
:1058F0008C1C0020A0B10008E8B1000828B2000804
:1059000060B2000898B20008DCB2000880B500AFB1
:10591000FFF76EFB024801F021F90123184680BD14
:105920001CB3000880B500AFFFF750FBFFF74EFB3C
:10593000024801F013F90123184680BD54B3000852
:1059400080B582B000AF78607B689B780C2B67D8FD
:1059500001A252F823F000BF8D5900089B5900089E
:10596000AD590008BF590008D1590008075A00086E
:10597000075A0008075A0008075A0008075A000883
:10598000E3590008F5590008075A0008FFF7CAFD57
:1059900003461A467B689A7042E0FFF72FFE0346E3
:1059A000002B32D07B6800229A702EE0FFF774FE45
:1059B0000346002B2BD07B6800229A7027E0FFF76C
:1059C0008DFE0346002B24D07B6800229A7020E0D5
:1059D000FFF7A6FE0346002B1DD07B6800229A70BD
:1059E00019E0FFF793FF0346002B16D07B680022D7
:1059F0009A7012E0FFF796FF0346002B0FD07B68EA
:105A000000229A700BE000BF0AE000BF08E000BF70
:105A100006E000BF04E000BF02E000BF00E000BFFE
:105A200000BF0837BD4680BD80B582B000AF294BAE
:105A30005B78052B49D801A252F823F0555A00088B
:105A4000695A0008715A0008855A0008C15A0008AE
:105A5000C15A00081F48FFF713FB0346002B31D043
:105A60001C4B01225A702DE01A48FFF769FF2CE009
:105A70001848FFF751FB0346002B25D0154B032296
:105A80005A7021E0144B1B78002B02D0012B13D04D
:105A90001BE01048FFF77EFC0346FB71FB79022BED
:105AA00003D10C4B04225A7008E0FB79012B05D17D
:105AB000084B05225A7001E000BF06E000BF04E079
:105AC00000BF02E000BF00E000BF00BF0837BD46D6
:105AD00080BD00BF6C1C00207103002080B582B027
